{
  "contractName": "ProofOfPhysicalAddress",
  "abi": [
    {
      "constant": true,
      "inputs": [],
      "name": "signer",
      "outputs": [
        {
          "name": "",
          "type": "address"
        }
      ],
      "payable": false,
      "stateMutability": "view",
      "type": "function"
    },
    {
      "constant": true,
      "inputs": [],
      "name": "totalConfirmed",
      "outputs": [
        {
          "name": "",
          "type": "uint64"
        }
      ],
      "payable": false,
      "stateMutability": "view",
      "type": "function"
    },
    {
      "constant": true,
      "inputs": [],
      "name": "registry",
      "outputs": [
        {
          "name": "",
          "type": "address"
        }
      ],
      "payable": false,
      "stateMutability": "view",
      "type": "function"
    },
    {
      "constant": true,
      "inputs": [],
      "name": "owner",
      "outputs": [
        {
          "name": "",
          "type": "address"
        }
      ],
      "payable": false,
      "stateMutability": "view",
      "type": "function"
    },
    {
      "constant": true,
      "inputs": [
        {
          "name": "",
          "type": "address"
        }
      ],
      "name": "users",
      "outputs": [
        {
          "name": "creationBlock",
          "type": "uint256"
        }
      ],
      "payable": false,
      "stateMutability": "view",
      "type": "function"
    },
    {
      "constant": true,
      "inputs": [],
      "name": "totalUsers",
      "outputs": [
        {
          "name": "",
          "type": "uint64"
        }
      ],
      "payable": false,
      "stateMutability": "view",
      "type": "function"
    },
    {
      "constant": true,
      "inputs": [],
      "name": "totalAddresses",
      "outputs": [
        {
          "name": "",
          "type": "uint64"
        }
      ],
      "payable": false,
      "stateMutability": "view",
      "type": "function"
    },
    {
      "inputs": [
        {
          "name": "_registry",
          "type": "address"
        }
      ],
      "payable": false,
      "stateMutability": "nonpayable",
      "type": "constructor"
    },
    {
      "anonymous": false,
      "inputs": [
        {
          "indexed": false,
          "name": "newSigner",
          "type": "address"
        }
      ],
      "name": "LogSignerChanged",
      "type": "event"
    },
    {
      "anonymous": false,
      "inputs": [
        {
          "indexed": false,
          "name": "newRegistry",
          "type": "address"
        }
      ],
      "name": "LogRegistryChanged",
      "type": "event"
    },
    {
      "anonymous": false,
      "inputs": [
        {
          "indexed": false,
          "name": "wallet",
          "type": "address"
        },
        {
          "indexed": false,
          "name": "name",
          "type": "string"
        },
        {
          "indexed": false,
          "name": "country",
          "type": "string"
        },
        {
          "indexed": false,
          "name": "state",
          "type": "string"
        },
        {
          "indexed": false,
          "name": "city",
          "type": "string"
        },
        {
          "indexed": false,
          "name": "location",
          "type": "string"
        },
        {
          "indexed": false,
          "name": "zip",
          "type": "string"
        }
      ],
      "name": "LogAddressRegistered",
      "type": "event"
    },
    {
      "anonymous": false,
      "inputs": [
        {
          "indexed": false,
          "name": "wallet",
          "type": "address"
        },
        {
          "indexed": false,
          "name": "country",
          "type": "string"
        },
        {
          "indexed": false,
          "name": "state",
          "type": "string"
        },
        {
          "indexed": false,
          "name": "city",
          "type": "string"
        },
        {
          "indexed": false,
          "name": "location",
          "type": "string"
        },
        {
          "indexed": false,
          "name": "zip",
          "type": "string"
        }
      ],
      "name": "LogAddressUnregistered",
      "type": "event"
    },
    {
      "anonymous": false,
      "inputs": [
        {
          "indexed": false,
          "name": "wallet",
          "type": "address"
        },
        {
          "indexed": false,
          "name": "country",
          "type": "string"
        },
        {
          "indexed": false,
          "name": "state",
          "type": "string"
        },
        {
          "indexed": false,
          "name": "city",
          "type": "string"
        },
        {
          "indexed": false,
          "name": "location",
          "type": "string"
        },
        {
          "indexed": false,
          "name": "zip",
          "type": "string"
        }
      ],
      "name": "LogAddressConfirmed",
      "type": "event"
    },
    {
      "constant": true,
      "inputs": [
        {
          "name": "data",
          "type": "bytes32"
        },
        {
          "name": "v",
          "type": "uint8"
        },
        {
          "name": "r",
          "type": "bytes32"
        },
        {
          "name": "s",
          "type": "bytes32"
        }
      ],
      "name": "signerIsValid",
      "outputs": [
        {
          "name": "",
          "type": "bool"
        }
      ],
      "payable": false,
      "stateMutability": "view",
      "type": "function"
    },
    {
      "constant": false,
      "inputs": [
        {
          "name": "newSigner",
          "type": "address"
        }
      ],
      "name": "setSigner",
      "outputs": [],
      "payable": false,
      "stateMutability": "nonpayable",
      "type": "function"
    },
    {
      "constant": false,
      "inputs": [
        {
          "name": "newRegistry",
          "type": "address"
        }
      ],
      "name": "setRegistry",
      "outputs": [],
      "payable": false,
      "stateMutability": "nonpayable",
      "type": "function"
    },
    {
      "constant": false,
      "inputs": [
        {
          "name": "amountWei",
          "type": "uint256"
        }
      ],
      "name": "withdrawSome",
      "outputs": [],
      "payable": false,
      "stateMutability": "nonpayable",
      "type": "function"
    },
    {
      "constant": false,
      "inputs": [],
      "name": "withdrawAll",
      "outputs": [],
      "payable": false,
      "stateMutability": "nonpayable",
      "type": "function"
    },
    {
      "constant": true,
      "inputs": [
        {
          "name": "wallet",
          "type": "address"
        }
      ],
      "name": "userExists",
      "outputs": [
        {
          "name": "",
          "type": "bool"
        }
      ],
      "payable": false,
      "stateMutability": "view",
      "type": "function"
    },
    {
      "constant": true,
      "inputs": [
        {
          "name": "wallet",
          "type": "address"
        },
        {
          "name": "addressIndex",
          "type": "uint256"
        }
      ],
      "name": "userAddressConfirmed",
      "outputs": [
        {
          "name": "",
          "type": "bool"
        }
      ],
      "payable": false,
      "stateMutability": "view",
      "type": "function"
    },
    {
      "constant": true,
      "inputs": [
        {
          "name": "wallet",
          "type": "address"
        },
        {
          "name": "creationBlock",
          "type": "uint256"
        }
      ],
      "name": "userAddressByCreationBlock",
      "outputs": [
        {
          "name": "",
          "type": "bool"
        },
        {
          "name": "",
          "type": "uint256"
        },
        {
          "name": "",
          "type": "bool"
        }
      ],
      "payable": false,
      "stateMutability": "view",
      "type": "function"
    },
    {
      "constant": true,
      "inputs": [
        {
          "name": "wallet",
          "type": "address"
        },
        {
          "name": "confirmationCodeSha3",
          "type": "bytes32"
        }
      ],
      "name": "userAddressByConfirmationCode",
      "outputs": [
        {
          "name": "",
          "type": "bool"
        },
        {
          "name": "",
          "type": "uint256"
        },
        {
          "name": "",
          "type": "bool"
        },
        {
          "name": "",
          "type": "bytes32"
        }
      ],
      "payable": false,
      "stateMutability": "view",
      "type": "function"
    },
    {
      "constant": true,
      "inputs": [
        {
          "name": "wallet",
          "type": "address"
        },
        {
          "name": "country",
          "type": "string"
        },
        {
          "name": "state",
          "type": "string"
        },
        {
          "name": "city",
          "type": "string"
        },
        {
          "name": "location",
          "type": "string"
        },
        {
          "name": "zip",
          "type": "string"
        }
      ],
      "name": "userAddressByAddress",
      "outputs": [
        {
          "name": "",
          "type": "bool"
        },
        {
          "name": "",
          "type": "uint256"
        },
        {
          "name": "",
          "type": "bool"
        }
      ],
      "payable": false,
      "stateMutability": "view",
      "type": "function"
    },
    {
      "constant": true,
      "inputs": [
        {
          "name": "wallet",
          "type": "address"
        }
      ],
      "name": "userLastSubmittedName",
      "outputs": [
        {
          "name": "",
          "type": "string"
        }
      ],
      "payable": false,
      "stateMutability": "view",
      "type": "function"
    },
    {
      "constant": true,
      "inputs": [
        {
          "name": "wallet",
          "type": "address"
        }
      ],
      "name": "userLastConfirmedName",
      "outputs": [
        {
          "name": "",
          "type": "string"
        }
      ],
      "payable": false,
      "stateMutability": "view",
      "type": "function"
    },
    {
      "constant": true,
      "inputs": [
        {
          "name": "wallet",
          "type": "address"
        }
      ],
      "name": "userSubmittedAddressesCount",
      "outputs": [
        {
          "name": "",
          "type": "uint256"
        }
      ],
      "payable": false,
      "stateMutability": "view",
      "type": "function"
    },
    {
      "constant": true,
      "inputs": [
        {
          "name": "wallet",
          "type": "address"
        }
      ],
      "name": "userConfirmedAddressesCount",
      "outputs": [
        {
          "name": "",
          "type": "uint256"
        }
      ],
      "payable": false,
      "stateMutability": "view",
      "type": "function"
    },
    {
      "constant": true,
      "inputs": [
        {
          "name": "wallet",
          "type": "address"
        },
        {
          "name": "addressIndex",
          "type": "uint256"
        }
      ],
      "name": "userAddress",
      "outputs": [
        {
          "name": "country",
          "type": "string"
        },
        {
          "name": "state",
          "type": "string"
        },
        {
          "name": "city",
          "type": "string"
        },
        {
          "name": "location",
          "type": "string"
        },
        {
          "name": "zip",
          "type": "string"
        }
      ],
      "payable": false,
      "stateMutability": "view",
      "type": "function"
    },
    {
      "constant": true,
      "inputs": [
        {
          "name": "wallet",
          "type": "address"
        },
        {
          "name": "addressIndex",
          "type": "uint256"
        }
      ],
      "name": "userAddressInfo",
      "outputs": [
        {
          "name": "name",
          "type": "string"
        },
        {
          "name": "creationBlock",
          "type": "uint256"
        },
        {
          "name": "confirmationBlock",
          "type": "uint256"
        },
        {
          "name": "keccakIdentifier",
          "type": "bytes32"
        }
      ],
      "payable": false,
      "stateMutability": "view",
      "type": "function"
    },
    {
      "constant": false,
      "inputs": [
        {
          "name": "name",
          "type": "string"
        },
        {
          "name": "country",
          "type": "string"
        },
        {
          "name": "state",
          "type": "string"
        },
        {
          "name": "city",
          "type": "string"
        },
        {
          "name": "location",
          "type": "string"
        },
        {
          "name": "zip",
          "type": "string"
        },
        {
          "name": "priceWei",
          "type": "uint256"
        },
        {
          "name": "confirmationCodeSha3",
          "type": "bytes32"
        },
        {
          "name": "sigV",
          "type": "uint8"
        },
        {
          "name": "sigR",
          "type": "bytes32"
        },
        {
          "name": "sigS",
          "type": "bytes32"
        }
      ],
      "name": "registerAddress",
      "outputs": [],
      "payable": true,
      "stateMutability": "payable",
      "type": "function"
    },
    {
      "constant": false,
      "inputs": [
        {
          "name": "country",
          "type": "string"
        },
        {
          "name": "state",
          "type": "string"
        },
        {
          "name": "city",
          "type": "string"
        },
        {
          "name": "location",
          "type": "string"
        },
        {
          "name": "zip",
          "type": "string"
        }
      ],
      "name": "unregisterAddress",
      "outputs": [],
      "payable": false,
      "stateMutability": "nonpayable",
      "type": "function"
    },
    {
      "constant": false,
      "inputs": [
        {
          "name": "confirmationCodePlain",
          "type": "string"
        },
        {
          "name": "sigV",
          "type": "uint8"
        },
        {
          "name": "sigR",
          "type": "bytes32"
        },
        {
          "name": "sigS",
          "type": "bytes32"
        }
      ],
      "name": "confirmAddress",
      "outputs": [],
      "payable": false,
      "stateMutability": "nonpayable",
      "type": "function"
    }
  ],
  "bytecode": "0x6060604052341561000f57600080fd5b6040516020806149d083398101604052808051906020019091905050336000806101000a81548173ffffffffffffffffffffffffffffffffffffffff021916908373ffffffffffffffffffffffffffffffffffffffff1602179055506000809054906101000a900473ffffffffffffffffffffffffffffffffffffffff16600160006101000a81548173ffffffffffffffffffffffffffffffffffffffff021916908373ffffffffffffffffffffffffffffffffffffffff16021790555080600260006101000a81548173ffffffffffffffffffffffffffffffffffffffff021916908373ffffffffffffffffffffffffffffffffffffffff160217905550506148b28061011e6000396000f300606060405260043610610154576000357c0100000000000000000000000000000000000000000000000000000000900463ffffffff16806305831776146101595780630e666e49146101c5578063238ac933146102165780632c2a178e1461026b5780634028a0f1146104485780636c19e783146104855780637b103999146104be578063853828b6146105135780638da5cb5b14610528578063a5db3d021461057d578063a87430ba14610600578063a91ee0dc1461064d578063ae9b051c14610686578063b4778e2d146106a9578063b55fbd0414610914578063bff1f9e1146109c6578063c0fe077f14610a03578063c228251b14610a82578063c94f2c1b14610beb578063cfad527714610c38578063d673560414610c75578063d956be1014610d27578063de3d702e14610d8c578063e585332e14610dd9578063f0486ab414610f8b578063feea980814610fe5575b600080fd5b341561016457600080fd5b610199600480803573ffffffffffffffffffffffffffffffffffffffff169060200190919080359060200190919050506110bd565b604051808415151515815260200183815260200182151515158152602001935050505060405180910390f35b34156101d057600080fd5b6101fc600480803573ffffffffffffffffffffffffffffffffffffffff169060200190919050506111cf565b604051808215151515815260200191505060405180910390f35b341561022157600080fd5b61022961121d565b604051808273ffffffffffffffffffffffffffffffffffffffff1673ffffffffffffffffffffffffffffffffffffffff16815260200191505060405180910390f35b610446600480803590602001908201803590602001908080601f0160208091040260200160405190810160405280939291908181526020018383808284378201915050505050509190803590602001908201803590602001908080601f0160208091040260200160405190810160405280939291908181526020018383808284378201915050505050509190803590602001908201803590602001908080601f0160208091040260200160405190810160405280939291908181526020018383808284378201915050505050509190803590602001908201803590602001908080601f0160208091040260200160405190810160405280939291908181526020018383808284378201915050505050509190803590602001908201803590602001908080601f0160208091040260200160405190810160405280939291908181526020018383808284378201915050505050509190803590602001908201803590602001908080601f016020809104026020016040519081016040528093929190818152602001838380828437820191505050505050919080359060200190919080356000191690602001909190803560ff169060200190919080356000191690602001909190803560001916906020019091905050611243565b005b341561045357600080fd5b61045b611ca6565b604051808267ffffffffffffffff1667ffffffffffffffff16815260200191505060405180910390f35b341561049057600080fd5b6104bc600480803573ffffffffffffffffffffffffffffffffffffffff16906020019091905050611cc0565b005b34156104c957600080fd5b6104d1611dc2565b604051808273ffffffffffffffffffffffffffffffffffffffff1673ffffffffffffffffffffffffffffffffffffffff16815260200191505060405180910390f35b341561051e57600080fd5b610526611de8565b005b341561053357600080fd5b61053b611ee3565b604051808273ffffffffffffffffffffffffffffffffffffffff1673ffffffffffffffffffffffffffffffffffffffff16815260200191505060405180910390f35b341561058857600080fd5b6105fe600480803590602001908201803590602001908080601f0160208091040260200160405190810160405280939291908181526020018383808284378201915050505050509190803560ff169060200190919080356000191690602001909190803560001916906020019091905050611f08565b005b341561060b57600080fd5b610637600480803573ffffffffffffffffffffffffffffffffffffffff1690602001909190505061251e565b6040518082815260200191505060405180910390f35b341561065857600080fd5b610684600480803573ffffffffffffffffffffffffffffffffffffffff1690602001909190505061253c565b005b341561069157600080fd5b6106a7600480803590602001909190505061263e565b005b34156106b457600080fd5b6106e9600480803573ffffffffffffffffffffffffffffffffffffffff16906020019091908035906020019091905050612723565b60405180806020018060200180602001806020018060200186810386528b818151815260200191508051906020019080838360005b8381101561073957808201518184015260208101905061071e565b50505050905090810190601f1680156107665780820380516001836020036101000a031916815260200191505b5086810385528a818151815260200191508051906020019080838360005b8381101561079f578082015181840152602081019050610784565b50505050905090810190601f1680156107cc5780820380516001836020036101000a031916815260200191505b50868103845289818151815260200191508051906020019080838360005b838110156108055780820151818401526020810190506107ea565b50505050905090810190601f1680156108325780820380516001836020036101000a031916815260200191505b50868103835288818151815260200191508051906020019080838360005b8381101561086b578082015181840152602081019050610850565b50505050905090810190601f1680156108985780820380516001836020036101000a031916815260200191505b50868103825287818151815260200191508051906020019080838360005b838110156108d15780820151818401526020810190506108b6565b50505050905090810190601f1680156108fe5780820380516001836020036101000a031916815260200191505b509a505050505050505050505060405180910390f35b341561091f57600080fd5b61094b600480803573ffffffffffffffffffffffffffffffffffffffff16906020019091905050612c61565b6040518080602001828103825283818151815260200191508051906020019080838360005b8381101561098b578082015181840152602081019050610970565b50505050905090810190601f1680156109b85780820380516001836020036101000a031916815260200191505b509250505060405180910390f35b34156109d157600080fd5b6109d9612e0a565b604051808267ffffffffffffffff1667ffffffffffffffff16815260200191505060405180910390f35b3415610a0e57600080fd5b610a47600480803573ffffffffffffffffffffffffffffffffffffffff1690602001909190803560001916906020019091905050612e24565b604051808515151515815260200184815260200183151515158152602001826000191660001916815260200194505050505060405180910390f35b3415610a8d57600080fd5b610be9600480803590602001908201803590602001908080601f0160208091040260200160405190810160405280939291908181526020018383808284378201915050505050509190803590602001908201803590602001908080601f0160208091040260200160405190810160405280939291908181526020018383808284378201915050505050509190803590602001908201803590602001908080601f0160208091040260200160405190810160405280939291908181526020018383808284378201915050505050509190803590602001908201803590602001908080601f0160208091040260200160405190810160405280939291908181526020018383808284378201915050505050509190803590602001908201803590602001908080601f01602080910402602001604051908101604052809392919081815260200183838082843782019150505050505091905050612fae565b005b3415610bf657600080fd5b610c22600480803573ffffffffffffffffffffffffffffffffffffffff16906020019091905050613808565b6040518082815260200191505060405180910390f35b3415610c4357600080fd5b610c4b61388f565b604051808267ffffffffffffffff1667ffffffffffffffff16815260200191505060405180910390f35b3415610c8057600080fd5b610cac600480803573ffffffffffffffffffffffffffffffffffffffff169060200190919050506138a9565b6040518080602001828103825283818151815260200191508051906020019080838360005b83811015610cec578082015181840152602081019050610cd1565b50505050905090810190601f168015610d195780820380516001836020036101000a031916815260200191505b509250505060405180910390f35b3415610d3257600080fd5b610d7260048080356000191690602001909190803560ff169060200190919080356000191690602001909190803560001916906020019091905050613a0f565b604051808215151515815260200191505060405180910390f35b3415610d9757600080fd5b610dc3600480803573ffffffffffffffffffffffffffffffffffffffff16906020019091905050613bab565b6040518082815260200191505060405180910390f35b3415610de457600080fd5b610f5f600480803573ffffffffffffffffffffffffffffffffffffffff1690602001909190803590602001908201803590602001908080601f0160208091040260200160405190810160405280939291908181526020018383808284378201915050505050509190803590602001908201803590602001908080601f0160208091040260200160405190810160405280939291908181526020018383808284378201915050505050509190803590602001908201803590602001908080601f0160208091040260200160405190810160405280939291908181526020018383808284378201915050505050509190803590602001908201803590602001908080601f0160208091040260200160405190810160405280939291908181526020018383808284378201915050505050509190803590602001908201803590602001908080601f01602080910402602001604051908101604052809392919081815260200183838082843782019150505050505091905050613bfa565b604051808415151515815260200183815260200182151515158152602001935050505060405180910390f35b3415610f9657600080fd5b610fcb600480803573ffffffffffffffffffffffffffffffffffffffff16906020019091908035906020019091905050613ed5565b604051808215151515815260200191505060405180910390f35b3415610ff057600080fd5b611025600480803573ffffffffffffffffffffffffffffffffffffffff16906020019091908035906020019091905050614130565b60405180806020018581526020018481526020018360001916600019168152602001828103825286818151815260200191508051906020019080838360005b8381101561107f578082015181840152602081019050611064565b50505050905090810190601f1680156110ac5780820380516001836020036101000a031916815260200191505b509550505050505060405180910390f35b600080600080856110cd816111cf565b15156110d857600080fd5b600091505b600360008873ffffffffffffffffffffffffffffffffffffffff1673ffffffffffffffffffffffffffffffffffffffff168152602001908152602001600020600101805490508210156111b75785600360008973ffffffffffffffffffffffffffffffffffffffff1673ffffffffffffffffffffffffffffffffffffffff1681526020019081526020016000206001018381548110151561117a57fe5b90600052602060002090600902016006015414156111aa5760018261119f8985613ed5565b9450945094506111c6565b81806001019250506110dd565b60008060008191509450945094505b50509250925092565b600080600360008473ffffffffffffffffffffffffffffffffffffffff1673ffffffffffffffffffffffffffffffffffffffff16815260200190815260200160002060000154119050919050565b600160009054906101000a900473ffffffffffffffffffffffffffffffffffffffff1681565b60008061124e614540565b60008e5111151561125e57600080fd5b60008d5111151561126e57600080fd5b60008c5111151561127e57600080fd5b60008b5111151561128e57600080fd5b60008a5111151561129e57600080fd5b600089511115156112ae57600080fd5b8734101515156112bd57600080fd5b338e8e8e8e8e8e8e8e604051808a73ffffffffffffffffffffffffffffffffffffffff1673ffffffffffffffffffffffffffffffffffffffff166c0100000000000000000000000002815260140189805190602001908083835b60208310151561133c5780518252602082019150602081019050602083039250611317565b6001836020036101000a03801982511681845116808217855250505050505090500188805190602001908083835b60208310151561138f578051825260208201915060208101905060208303925061136a565b6001836020036101000a03801982511681845116808217855250505050505090500187805190602001908083835b6020831015156113e257805182526020820191506020810190506020830392506113bd565b6001836020036101000a03801982511681845116808217855250505050505090500186805190602001908083835b6020831015156114355780518252602082019150602081019050602083039250611410565b6001836020036101000a03801982511681845116808217855250505050505090500185805190602001908083835b6020831015156114885780518252602082019150602081019050602083039250611463565b6001836020036101000a03801982511681845116808217855250505050505090500184805190602001908083835b6020831015156114db57805182526020820191506020810190506020830392506114b6565b6001836020036101000a038019825116818451168082178552505050505050905001838152602001826000191660001916815260200199505050505050505050506040518091039020925061153283878787613a0f565b151561153d57600080fd5b611546336111cf565b1561157257611559338e8e8e8e8e613bfa565b905050809250508115151561156d57600080fd5b6115fd565b43600360003373ffffffffffffffffffffffffffffffffffffffff1673ffffffffffffffffffffffffffffffffffffffff168152602001908152602001600020600001819055506001600460008282829054906101000a900467ffffffffffffffff160192506101000a81548167ffffffffffffffff021916908367ffffffffffffffff1602179055505b8d81600001819052508c81602001819052508b81604001819052508a8160600181905250898160800181905250888160a00181905250438160c00181815250508681610100019060001916908160001916815250508c8c8c8c8c6040518086805190602001908083835b60208310151561168c5780518252602082019150602081019050602083039250611667565b6001836020036101000a03801982511681845116808217855250505050505090500185805190602001908083835b6020831015156116df57805182526020820191506020810190506020830392506116ba565b6001836020036101000a03801982511681845116808217855250505050505090500184805190602001908083835b602083101515611732578051825260208201915060208101905060208303925061170d565b6001836020036101000a03801982511681845116808217855250505050505090500183805190602001908083835b6020831015156117855780518252602082019150602081019050602083039250611760565b6001836020036101000a03801982511681845116808217855250505050505090500182805190602001908083835b6020831015156117d857805182526020820191506020810190506020830392506117b3565b6001836020036101000a0380198251168184511680821785525050505050509050019550505050505060405180910390208160e001906000191690816000191681525050600360003373ffffffffffffffffffffffffffffffffffffffff1673ffffffffffffffffffffffffffffffffffffffff168152602001908152602001600020600101805480600101828161187091906145b7565b9160005260206000209060090201600083909190915060008201518160000190805190602001906118a29291906145e9565b5060208201518160010190805190602001906118bf9291906145e9565b5060408201518160020190805190602001906118dc9291906145e9565b5060608201518160030190805190602001906118f99291906145e9565b5060808201518160040190805190602001906119169291906145e9565b5060a08201518160050190805190602001906119339291906145e9565b5060c0820151816006015560e0820151816007019060001916905561010082015181600801906000191690555050506001600460088282829054906101000a900467ffffffffffffffff160192506101000a81548167ffffffffffffffff021916908367ffffffffffffffff1602179055507fd4dc68b69b38a7ed62a3ad97ddc362ad46c590e9c6e22f64daa7336a1843375c338f8f8f8f8f8f604051808873ffffffffffffffffffffffffffffffffffffffff1673ffffffffffffffffffffffffffffffffffffffff16815260200180602001806020018060200180602001806020018060200187810387528d818151815260200191508051906020019080838360005b83811015611a53578082015181840152602081019050611a38565b50505050905090810190601f168015611a805780820380516001836020036101000a031916815260200191505b5087810386528c818151815260200191508051906020019080838360005b83811015611ab9578082015181840152602081019050611a9e565b50505050905090810190601f168015611ae65780820380516001836020036101000a031916815260200191505b5087810385528b818151815260200191508051906020019080838360005b83811015611b1f578082015181840152602081019050611b04565b50505050905090810190601f168015611b4c5780820380516001836020036101000a031916815260200191505b5087810384528a818151815260200191508051906020019080838360005b83811015611b85578082015181840152602081019050611b6a565b50505050905090810190601f168015611bb25780820380516001836020036101000a031916815260200191505b50878103835289818151815260200191508051906020019080838360005b83811015611beb578082015181840152602081019050611bd0565b50505050905090810190601f168015611c185780820380516001836020036101000a031916815260200191505b50878103825288818151815260200191508051906020019080838360005b83811015611c51578082015181840152602081019050611c36565b50505050905090810190601f168015611c7e5780820380516001836020036101000a031916815260200191505b509d505050505050505050505050505060405180910390a15050505050505050505050505050565b600460109054906101000a900467ffffffffffffffff1681565b6000809054906101000a900473ffffffffffffffffffffffffffffffffffffffff1673ffffffffffffffffffffffffffffffffffffffff163373ffffffffffffffffffffffffffffffffffffffff16141515611d1b57600080fd5b80600160006101000a81548173ffffffffffffffffffffffffffffffffffffffff021916908373ffffffffffffffffffffffffffffffffffffffff1602179055507fee87a28570c895f7da676d522308fff544b84e34ac47fcb36b53f5ef848e5e3281604051808273ffffffffffffffffffffffffffffffffffffffff1673ffffffffffffffffffffffffffffffffffffffff16815260200191505060405180910390a150565b600260009054906101000a900473ffffffffffffffffffffffffffffffffffffffff1681565b6000809054906101000a900473ffffffffffffffffffffffffffffffffffffffff1673ffffffffffffffffffffffffffffffffffffffff163373ffffffffffffffffffffffffffffffffffffffff16141515611e4357600080fd5b60003073ffffffffffffffffffffffffffffffffffffffff1631111515611e6957600080fd5b6000809054906101000a900473ffffffffffffffffffffffffffffffffffffffff1673ffffffffffffffffffffffffffffffffffffffff166108fc3073ffffffffffffffffffffffffffffffffffffffff16319081150290604051600060405180830381858888f193505050501515611ee157600080fd5b565b6000809054906101000a900473ffffffffffffffffffffffffffffffffffffffff1681565b600080600080611f16614669565b611f1e614669565b611f26614669565b611f2e614669565b611f36614669565b33611f40816111cf565b1515611f4b57600080fd5b60008e51111515611f5b57600080fd5b61200c338f604051808373ffffffffffffffffffffffffffffffffffffffff1673ffffffffffffffffffffffffffffffffffffffff166c0100000000000000000000000002815260140182805190602001908083835b602083101515611fd65780518252602082019150602081019050602083039250611fb1565b6001836020036101000a0380198251168184511680821785525050505050509050019250505060405180910390208e8e8e613a0f565b151561201757600080fd5b612083338f6040518082805190602001908083835b602083101515612051578051825260208201915060208101905060208303925061202c565b6001836020036101000a0380198251168184511680821785525050505050509050019150506040518091039020612e24565b809a50819b50829c50839d505050505089151561209f57600080fd5b871515156120ac57600080fd5b600260009054906101000a900473ffffffffffffffffffffffffffffffffffffffff1673ffffffffffffffffffffffffffffffffffffffff16639918925d338973__PhysicalAddressClaim__________________63deb21fa2436000604051602001526040518263ffffffff167c01000000000000000000000000000000000000000000000000000000000281526004018082815260200191505060206040518083038186803b151561215f57600080fd5b6102c65a03f4151561217057600080fd5b505050604051805190506040518463ffffffff167c0100000000000000000000000000000000000000000000000000000000028152600401808473ffffffffffffffffffffffffffffffffffffffff1673ffffffffffffffffffffffffffffffffffffffff168152602001836000191660001916815260200182600019166000191681526020019350505050600060405180830381600087803b151561221557600080fd5b6102c65a03f1151561222657600080fd5b5050506001600460108282829054906101000a900467ffffffffffffffff160192506101000a81548167ffffffffffffffff021916908367ffffffffffffffff160217905550612276338a612723565b809650819750829850839950849a5050505050507fcc9a722bc1e59565a0ca9bbce65fa8ba6437631bac547c174d9f6b92f66e44b5338787878787604051808773ffffffffffffffffffffffffffffffffffffffff1673ffffffffffffffffffffffffffffffffffffffff168152602001806020018060200180602001806020018060200186810386528b818151815260200191508051906020019080838360005b83811015612333578082015181840152602081019050612318565b50505050905090810190601f1680156123605780820380516001836020036101000a031916815260200191505b5086810385528a818151815260200191508051906020019080838360005b8381101561239957808201518184015260208101905061237e565b50505050905090810190601f1680156123c65780820380516001836020036101000a031916815260200191505b50868103845289818151815260200191508051906020019080838360005b838110156123ff5780820151818401526020810190506123e4565b50505050905090810190601f16801561242c5780820380516001836020036101000a031916815260200191505b50868103835288818151815260200191508051906020019080838360005b8381101561246557808201518184015260208101905061244a565b50505050905090810190601f1680156124925780820380516001836020036101000a031916815260200191505b50868103825287818151815260200191508051906020019080838360005b838110156124cb5780820151818401526020810190506124b0565b50505050905090810190601f1680156124f85780820380516001836020036101000a031916815260200191505b509b50505050505050505050505060405180910390a15050505050505050505050505050565b60036020528060005260406000206000915090508060000154905081565b6000809054906101000a900473ffffffffffffffffffffffffffffffffffffffff1673ffffffffffffffffffffffffffffffffffffffff163373ffffffffffffffffffffffffffffffffffffffff1614151561259757600080fd5b80600260006101000a81548173ffffffffffffffffffffffffffffffffffffffff021916908373ffffffffffffffffffffffffffffffffffffffff1602179055507fffd9ec64cd3990d58d48617f2750d82ea8ea105c84989b7f77c5242178ba4aeb81604051808273ffffffffffffffffffffffffffffffffffffffff1673ffffffffffffffffffffffffffffffffffffffff16815260200191505060405180910390a150565b6000809054906101000a900473ffffffffffffffffffffffffffffffffffffffff1673ffffffffffffffffffffffffffffffffffffffff163373ffffffffffffffffffffffffffffffffffffffff1614151561269957600080fd5b803073ffffffffffffffffffffffffffffffffffffffff1631101515156126bf57600080fd5b6000809054906101000a900473ffffffffffffffffffffffffffffffffffffffff1673ffffffffffffffffffffffffffffffffffffffff166108fc829081150290604051600060405180830381858888f19350505050151561272057600080fd5b50565b61272b614669565b612733614669565b61273b614669565b612743614669565b61274b614669565b86612755816111cf565b151561276057600080fd5b600360008973ffffffffffffffffffffffffffffffffffffffff1673ffffffffffffffffffffffffffffffffffffffff168152602001908152602001600020600101878154811015156127af57fe5b9060005260206000209060090201600101600360008a73ffffffffffffffffffffffffffffffffffffffff1673ffffffffffffffffffffffffffffffffffffffff1681526020019081526020016000206001018881548110151561280f57fe5b9060005260206000209060090201600201600360008b73ffffffffffffffffffffffffffffffffffffffff1673ffffffffffffffffffffffffffffffffffffffff1681526020019081526020016000206001018981548110151561286f57fe5b9060005260206000209060090201600301600360008c73ffffffffffffffffffffffffffffffffffffffff1673ffffffffffffffffffffffffffffffffffffffff1681526020019081526020016000206001018a8154811015156128cf57fe5b9060005260206000209060090201600401600360008d73ffffffffffffffffffffffffffffffffffffffff1673ffffffffffffffffffffffffffffffffffffffff1681526020019081526020016000206001018b81548110151561292f57fe5b9060005260206000209060090201600501848054600181600116156101000203166002900480601f0160208091040260200160405190810160405280929190818152602001828054600181600116156101000203166002900480156129d55780601f106129aa576101008083540402835291602001916129d5565b820191906000526020600020905b8154815290600101906020018083116129b857829003601f168201915b50505050509450838054600181600116156101000203166002900480601f016020809104026020016040519081016040528092919081815260200182805460018160011615610100020316600290048015612a715780601f10612a4657610100808354040283529160200191612a71565b820191906000526020600020905b815481529060010190602001808311612a5457829003601f168201915b50505050509350828054600181600116156101000203166002900480601f016020809104026020016040519081016040528092919081815260200182805460018160011615610100020316600290048015612b0d5780601f10612ae257610100808354040283529160200191612b0d565b820191906000526020600020905b815481529060010190602001808311612af057829003601f168201915b50505050509250818054600181600116156101000203166002900480601f016020809104026020016040519081016040528092919081815260200182805460018160011615610100020316600290048015612ba95780601f10612b7e57610100808354040283529160200191612ba9565b820191906000526020600020905b815481529060010190602001808311612b8c57829003601f168201915b50505050509150808054600181600116156101000203166002900480601f016020809104026020016040519081016040528092919081815260200182805460018160011615610100020316600290048015612c455780601f10612c1a57610100808354040283529160200191612c45565b820191906000526020600020905b815481529060010190602001808311612c2857829003601f168201915b5050505050905095509550955095509550509295509295909350565b612c69614669565b600082612c75816111cf565b1515612c8057600080fd5b600360008573ffffffffffffffffffffffffffffffffffffffff1673ffffffffffffffffffffffffffffffffffffffff1681526020019081526020016000206001018054905091505b6000821115612def57818060019003925050612ce58483613ed5565b15612dea57600360008573ffffffffffffffffffffffffffffffffffffffff1673ffffffffffffffffffffffffffffffffffffffff16815260200190815260200160002060010182815481101515612d3957fe5b90600052602060002090600902016000018054600181600116156101000203166002900480601f016020809104026020016040519081016040528092919081815260200182805460018160011615610100020316600290048015612dde5780601f10612db357610100808354040283529160200191612dde565b820191906000526020600020905b815481529060010190602001808311612dc157829003601f168201915b50505050509250612e03565b612cc9565b602060405190810160405280600081525092505b5050919050565b600460009054906101000a900467ffffffffffffffff1681565b600080600080600086612e36816111cf565b1515612e4157600080fd5b600091505b600360008973ffffffffffffffffffffffffffffffffffffffff1673ffffffffffffffffffffffffffffffffffffffff16815260200190815260200160002060010180549050821015612f8b578660001916600360008a73ffffffffffffffffffffffffffffffffffffffff1673ffffffffffffffffffffffffffffffffffffffff16815260200190815260200160002060010183815481101515612ee757fe5b906000526020600020906009020160080154600019161415612f7e57600182612f108a85613ed5565b600360008c73ffffffffffffffffffffffffffffffffffffffff1673ffffffffffffffffffffffffffffffffffffffff16815260200190815260200160002060010185815481101515612f5f57fe5b9060005260206000209060090201600701549550955095509550612fa3565b8180600101925050612e46565b60008060008082925080600102905095509550955095505b505092959194509250565b60008060008033612fbe816111cf565b1515612fc957600080fd5b612fd7338b8b8b8b8b613bfa565b508095508196505050841515612fec57600080fd5b600260009054906101000a900473ffffffffffffffffffffffffffffffffffffffff1673ffffffffffffffffffffffffffffffffffffffff1663c7508ec73033600360003373ffffffffffffffffffffffffffffffffffffffff1673ffffffffffffffffffffffffffffffffffffffff1681526020019081526020016000206001018881548110151561307b57fe5b9060005260206000209060090201600701546040518463ffffffff167c0100000000000000000000000000000000000000000000000000000000028152600401808473ffffffffffffffffffffffffffffffffffffffff1673ffffffffffffffffffffffffffffffffffffffff1681526020018373ffffffffffffffffffffffffffffffffffffffff1673ffffffffffffffffffffffffffffffffffffffff16815260200182600019166000191681526020019350505050600060405180830381600087803b151561314c57600080fd5b6102c65a03f1151561315d57600080fd5b505050600360003373ffffffffffffffffffffffffffffffffffffffff1673ffffffffffffffffffffffffffffffffffffffff1681526020019081526020016000206001018054905092508391505b6001830382101561339e57600360003373ffffffffffffffffffffffffffffffffffffffff1673ffffffffffffffffffffffffffffffffffffffff1681526020019081526020016000206001016001830181548110151561320957fe5b9060005260206000209060090201600360003373ffffffffffffffffffffffffffffffffffffffff1673ffffffffffffffffffffffffffffffffffffffff1681526020019081526020016000206001018381548110151561326657fe5b90600052602060002090600902016000820181600001908054600181600116156101000203166002900461329b92919061467d565b50600182018160010190805460018160011615610100020316600290046132c392919061467d565b50600282018160020190805460018160011615610100020316600290046132eb92919061467d565b506003820181600301908054600181600116156101000203166002900461331392919061467d565b506004820181600401908054600181600116156101000203166002900461333b92919061467d565b506005820181600501908054600181600116156101000203166002900461336392919061467d565b5060068201548160060155600782015481600701906000191690556008820154816008019060001916905590505081806001019250506131ac565b600360003373ffffffffffffffffffffffffffffffffffffffff1673ffffffffffffffffffffffffffffffffffffffff168152602001908152602001600020600101600184038154811015156133f057fe5b90600052602060002090600902016000808201600061340f9190614704565b60018201600061341f9190614704565b60028201600061342f9190614704565b60038201600061343f9190614704565b60048201600061344f9190614704565b60058201600061345f9190614704565b6006820160009055600782016000905560088201600090555050600360003373ffffffffffffffffffffffffffffffffffffffff1673ffffffffffffffffffffffffffffffffffffffff1681526020019081526020016000206001018054809190600190036134ce919061474c565b506000600360003373ffffffffffffffffffffffffffffffffffffffff1673ffffffffffffffffffffffffffffffffffffffff16815260200190815260200160002060010180549050141561357857600360003373ffffffffffffffffffffffffffffffffffffffff1673ffffffffffffffffffffffffffffffffffffffff168152602001908152602001600020600080820160009055600182016000613575919061477e565b50505b7fdac4fb4815aee49c5540cd084f54a869d62fbc1093f34e71f27896a0eb9a2353338b8b8b8b8b604051808773ffffffffffffffffffffffffffffffffffffffff1673ffffffffffffffffffffffffffffffffffffffff168152602001806020018060200180602001806020018060200186810386528b818151815260200191508051906020019080838360005b83811015613621578082015181840152602081019050613606565b50505050905090810190601f16801561364e5780820380516001836020036101000a031916815260200191505b5086810385528a818151815260200191508051906020019080838360005b8381101561368757808201518184015260208101905061366c565b50505050905090810190601f1680156136b45780820380516001836020036101000a031916815260200191505b50868103845289818151815260200191508051906020019080838360005b838110156136ed5780820151818401526020810190506136d2565b50505050905090810190601f16801561371a5780820380516001836020036101000a031916815260200191505b50868103835288818151815260200191508051906020019080838360005b83811015613753578082015181840152602081019050613738565b50505050905090810190601f1680156137805780820380516001836020036101000a031916815260200191505b50868103825287818151815260200191508051906020019080838360005b838110156137b957808201518184015260208101905061379e565b50505050905090810190601f1680156137e65780820380516001836020036101000a031916815260200191505b509b50505050505050505050505060405180910390a150505050505050505050565b6000806000809150600090505b600360008573ffffffffffffffffffffffffffffffffffffffff1673ffffffffffffffffffffffffffffffffffffffff168152602001908152602001600020600101805490508110156138855761386c8482613ed5565b15613878576001820191505b8080600101915050613815565b8192505050919050565b600460089054906101000a900467ffffffffffffffff1681565b6138b1614669565b816138bb816111cf565b15156138c657600080fd5b600360008473ffffffffffffffffffffffffffffffffffffffff1673ffffffffffffffffffffffffffffffffffffffff1681526020019081526020016000206001016001600360008673ffffffffffffffffffffffffffffffffffffffff1673ffffffffffffffffffffffffffffffffffffffff168152602001908152602001600020600101805490500381548110151561395d57fe5b90600052602060002090600902016000018054600181600116156101000203166002900480601f016020809104026020016040519081016040528092919081815260200182805460018160011615610100020316600290048015613a025780601f106139d757610100808354040283529160200191613a02565b820191906000526020600020905b8154815290600101906020018083116139e557829003601f168201915b5050505050915050919050565b6000613a196147a2565b60006040805190810160405280601c81526020017f19457468657265756d205369676e6564204d6573736167653a0a333200000000815250915081876040518083805190602001908083835b602083101515613a8a5780518252602082019150602081019050602083039250613a65565b6001836020036101000a03801982511681845116808217855250505050505090500182600019166000191681526020019250505060405180910390209050600160009054906101000a900473ffffffffffffffffffffffffffffffffffffffff1673ffffffffffffffffffffffffffffffffffffffff16600182888888604051600081526020016040526000604051602001526040518085600019166000191681526020018460ff1660ff16815260200183600019166000191681526020018260001916600019168152602001945050505050602060405160208103908084039060008661646e5a03f11515613b7f57600080fd5b50506020604051035173ffffffffffffffffffffffffffffffffffffffff161492505050949350505050565b6000600360008373ffffffffffffffffffffffffffffffffffffffff1673ffffffffffffffffffffffffffffffffffffffff168152602001908152602001600020600101805490509050919050565b60008060008060008a613c0c816111cf565b1515613c1757600080fd5b8a8a8a8a8a6040518086805190602001908083835b602083101515613c515780518252602082019150602081019050602083039250613c2c565b6001836020036101000a03801982511681845116808217855250505050505090500185805190602001908083835b602083101515613ca45780518252602082019150602081019050602083039250613c7f565b6001836020036101000a03801982511681845116808217855250505050505090500184805190602001908083835b602083101515613cf75780518252602082019150602081019050602083039250613cd2565b6001836020036101000a03801982511681845116808217855250505050505090500183805190602001908083835b602083101515613d4a5780518252602082019150602081019050602083039250613d25565b6001836020036101000a03801982511681845116808217855250505050505090500182805190602001908083835b602083101515613d9d5780518252602082019150602081019050602083039250613d78565b6001836020036101000a0380198251168184511680821785525050505050509050019550505050505060405180910390209250600091505b600360008d73ffffffffffffffffffffffffffffffffffffffff1673ffffffffffffffffffffffffffffffffffffffff16815260200190815260200160002060010180549050821015613eb7578260001916600360008e73ffffffffffffffffffffffffffffffffffffffff1673ffffffffffffffffffffffffffffffffffffffff16815260200190815260200160002060010183815481101515613e7657fe5b906000526020600020906009020160070154600019161415613eaa57600182613e9f8e85613ed5565b955095509550613ec6565b8180600101925050613dd5565b60008060008191509550955095505b50505096509650969350505050565b60008083613ee2816111cf565b1515613eed57600080fd5b600360008673ffffffffffffffffffffffffffffffffffffffff1673ffffffffffffffffffffffffffffffffffffffff16815260200190815260200160002060010184815481101515613f3c57fe5b9060005260206000209060090201600701549150600060010282600019161415613f695760009250614128565b600073__PhysicalAddressClaim__________________637194df0d600260009054906101000a900473ffffffffffffffffffffffffffffffffffffffff1673ffffffffffffffffffffffffffffffffffffffff1663e1661eff308a886000604051602001526040518463ffffffff167c0100000000000000000000000000000000000000000000000000000000028152600401808473ffffffffffffffffffffffffffffffffffffffff1673ffffffffffffffffffffffffffffffffffffffff1681526020018373ffffffffffffffffffffffffffffffffffffffff1673ffffffffffffffffffffffffffffffffffffffff16815260200182600019166000191681526020019350505050602060405180830381600087803b151561408e57600080fd5b6102c65a03f1151561409f57600080fd5b505050604051805190506000604051602001526040518263ffffffff167c010000000000000000000000000000000000000000000000000000000002815260040180826000191660001916815260200191505060206040518083038186803b151561410957600080fd5b6102c65a03f4151561411a57600080fd5b505050604051805190501192505b505092915050565b614138614669565b60008060008086614148816111cf565b151561415357600080fd5b73__PhysicalAddressClaim__________________637194df0d600260009054906101000a900473ffffffffffffffffffffffffffffffffffffffff1673ffffffffffffffffffffffffffffffffffffffff1663e1661eff308c600360008f73ffffffffffffffffffffffffffffffffffffffff1673ffffffffffffffffffffffffffffffffffffffff1681526020019081526020016000206001018d8154811015156141fc57fe5b9060005260206000209060090201600701546000604051602001526040518463ffffffff167c0100000000000000000000000000000000000000000000000000000000028152600401808473ffffffffffffffffffffffffffffffffffffffff1673ffffffffffffffffffffffffffffffffffffffff1681526020018373ffffffffffffffffffffffffffffffffffffffff1673ffffffffffffffffffffffffffffffffffffffff16815260200182600019166000191681526020019350505050602060405180830381600087803b15156142d657600080fd5b6102c65a03f115156142e757600080fd5b505050604051805190506000604051602001526040518263ffffffff167c010000000000000000000000000000000000000000000000000000000002815260040180826000191660001916815260200191505060206040518083038186803b151561435157600080fd5b6102c65a03f4151561436257600080fd5b505050604051805190509150600360008973ffffffffffffffffffffffffffffffffffffffff1673ffffffffffffffffffffffffffffffffffffffff168152602001908152602001600020600101878154811015156143bd57fe5b9060005260206000209060090201600001600360008a73ffffffffffffffffffffffffffffffffffffffff1673ffffffffffffffffffffffffffffffffffffffff1681526020019081526020016000206001018881548110151561441d57fe5b90600052602060002090600902016006015483600360008c73ffffffffffffffffffffffffffffffffffffffff1673ffffffffffffffffffffffffffffffffffffffff1681526020019081526020016000206001018a81548110151561447f57fe5b906000526020600020906009020160070154838054600181600116156101000203166002900480601f0160208091040260200160405190810160405280929190818152602001828054600181600116156101000203166002900480156145265780601f106144fb57610100808354040283529160200191614526565b820191906000526020600020905b81548152906001019060200180831161450957829003601f168201915b505050505093509550955095509550505092959194509250565b610120604051908101604052806145556147b6565b81526020016145626147b6565b815260200161456f6147b6565b815260200161457c6147b6565b81526020016145896147b6565b81526020016145966147b6565b81526020016000815260200160008019168152602001600080191681525090565b8154818355818115116145e4576009028160090283600052602060002091820191016145e391906147ca565b5b505050565b828054600181600116156101000203166002900490600052602060002090601f016020900481019282601f1061462a57805160ff1916838001178555614658565b82800160010185558215614658579182015b8281111561465757825182559160200191906001019061463c565b5b5090506146659190614861565b5090565b602060405190810160405280600081525090565b828054600181600116156101000203166002900490600052602060002090601f016020900481019282601f106146b657805485556146f3565b828001600101855582156146f357600052602060002091601f016020900482015b828111156146f25782548255916001019190600101906146d7565b5b5090506147009190614861565b5090565b50805460018160011615610100020316600290046000825580601f1061472a5750614749565b601f0160209004906000526020600020908101906147489190614861565b5b50565b8154818355818115116147795760090281600902836000526020600020918201910161477891906147ca565b5b505050565b508054600082556009029060005260206000209081019061479f91906147ca565b50565b602060405190810160405280600081525090565b602060405190810160405280600081525090565b61485e91905b8082111561485a57600080820160006147e99190614704565b6001820160006147f99190614704565b6002820160006148099190614704565b6003820160006148199190614704565b6004820160006148299190614704565b6005820160006148399190614704565b600682016000905560078201600090556008820160009055506009016147d0565b5090565b90565b61488391905b8082111561487f576000816000905550600101614867565b5090565b905600a165627a7a7230582076664b5292da73b384d93c187a9c87d18db231f83d4b3060c00997b4a2306fee0029",
  "source": "pragma solidity 0.4.19;\n\nimport \"./EthereumClaimsRegistryInterface.sol\";\nimport \"./PhysicalAddressClaim.sol\";\n\n\n// Checks -> Effects -> Interactions\ncontract ProofOfPhysicalAddress {\n    address public owner;\n    address public signer;\n    EthereumClaimsRegistryInterface public registry;\n\n    // Main structures:\n    struct PhysicalAddress {\n        string name;\n\n        string country;\n        string state;\n        string city;\n        string location;\n        string zip;\n\n        uint256 creationBlock;\n        bytes32 keccakIdentifier;\n        bytes32 confirmationCodeSha3;\n    }\n\n    function ProofOfPhysicalAddress(address _registry) public\n    {\n        owner = msg.sender;\n        signer = owner;\n        registry = EthereumClaimsRegistryInterface(_registry);\n    }\n\n    struct User {\n        uint256 creationBlock;\n        PhysicalAddress[] physicalAddresses;\n    }\n\n    mapping (address => User) public users;\n\n    // Stats:\n\n    uint64 public totalUsers;\n    uint64 public totalAddresses;\n    uint64 public totalConfirmed;\n\n    // Events:\n\n    event LogSignerChanged(address newSigner);\n    event LogRegistryChanged(address newRegistry);\n    event LogAddressRegistered(\n      address wallet,\n      string name,\n      string country,\n      string state,\n      string city,\n      string location,\n      string zip\n    );\n    event LogAddressUnregistered(\n      address wallet,\n      string country,\n      string state,\n      string city,\n      string location,\n      string zip\n    );\n    event LogAddressConfirmed(\n      address wallet,\n      string country,\n      string state,\n      string city,\n      string location,\n      string zip\n    );\n\n    // Modifiers:\n    modifier onlyOwner() {\n        require(msg.sender == owner);\n        _;\n    }\n\n    modifier checkUserExists(address wallet) {\n        require(userExists(wallet));\n        _;\n    }\n\n    // Helpers:\n    function signerIsValid(bytes32 data, uint8 v, bytes32 r, bytes32 s)\n    public constant returns (bool)\n    {\n        bytes memory prefix = \"\\x19Ethereum Signed Message:\\n32\";\n        bytes32 prefixed = keccak256(prefix, data);\n        return (ecrecover(prefixed, v, r, s) == signer);\n    }\n\n    // Methods:\n    // set address that is used on server-side to calculate signatures\n    // and on contract-side to verify them\n    function setSigner(address newSigner) public onlyOwner {\n        signer = newSigner;\n        LogSignerChanged(newSigner);\n    }\n\n    function setRegistry(address newRegistry) public onlyOwner {\n        registry = EthereumClaimsRegistryInterface(newRegistry);\n        LogRegistryChanged(newRegistry);\n    }\n\n    // withdraw specified amount of eth in wei\n    function withdrawSome(uint256 amountWei)\n    public onlyOwner\n    {\n        require(address(this).balance >= amountWei);\n        owner.transfer(amountWei);\n    }\n\n    // withdraw all available eth\n    function withdrawAll()\n    public onlyOwner\n    {\n        require(address(this).balance > 0);\n        owner.transfer(address(this).balance);\n    }\n\n    function userExists(address wallet)\n    public constant returns (bool)\n    {\n        return (users[wallet].creationBlock > 0);\n    }\n\n    function userAddressConfirmed(address wallet, uint256 addressIndex)\n    public constant checkUserExists(wallet) returns (bool)\n    {\n        bytes32 keccakIdentifier = users[wallet].physicalAddresses[addressIndex].keccakIdentifier;\n\n        if (keccakIdentifier == 0x0) {\n            return false;\n        }\n\n        return PhysicalAddressClaim.decodeConfirmation(registry.getClaim(address(this), wallet, keccakIdentifier)) > 0;\n    }\n\n    // returns (found/not found, index if found/0 if not found, confirmed/not confirmed)\n    function userAddressByCreationBlock(address wallet, uint256 creationBlock)\n    public constant checkUserExists(wallet) returns (bool, uint256, bool)\n    {\n        for (uint256 ai = 0; ai < users[wallet].physicalAddresses.length; ai++) {\n            if (users[wallet].physicalAddresses[ai].creationBlock == creationBlock) {\n                return (true, ai, userAddressConfirmed(wallet, ai));\n            }\n        }\n        return (false, 0, false);\n    }\n\n    // returns (found/not found, index if found/0 if not found, confirmed/not confirmed)\n    function userAddressByConfirmationCode(\n        address wallet,\n        bytes32 confirmationCodeSha3\n    )\n        public\n        constant\n        checkUserExists(wallet)\n        returns(bool, uint256, bool, bytes32)\n    {\n        for (uint256 ai = 0; ai < users[wallet].physicalAddresses.length; ai++) {\n            if (users[wallet].physicalAddresses[ai].confirmationCodeSha3 == confirmationCodeSha3) {\n                return (\n                    true,\n                    ai,\n                    userAddressConfirmed(wallet, ai),\n                    users[wallet].physicalAddresses[ai].keccakIdentifier\n                );\n            }\n        }\n        return (false, 0, false, 0x0);\n    }\n\n    // returns (found/not found, index if found/0 if not found, confirmed/not confirmed)\n    function userAddressByAddress(address wallet, string country, string state, string city, string location, string zip)\n    public constant checkUserExists(wallet) returns(bool, uint256, bool)\n    {\n        bytes32 keccakIdentifier = keccak256(country, state, city, location, zip);\n        for (uint256 ai = 0; ai < users[wallet].physicalAddresses.length; ai++) {\n            if (users[wallet].physicalAddresses[ai].keccakIdentifier == keccakIdentifier) {\n                return (true, ai, userAddressConfirmed(wallet, ai));\n            }\n        }\n        return (false, 0, false);\n    }\n\n    // returns last name submitted to PoPA contract\n    function userLastSubmittedName(address wallet)\n    public constant checkUserExists(wallet) returns (string)\n    {\n        return users[wallet].physicalAddresses[users[wallet].physicalAddresses.length-1].name;\n    }\n\n    // returns name from the last confirmed address. If no addresses were confirmed returns ''\n    function userLastConfirmedName(address wallet)\n    public constant checkUserExists(wallet) returns (string)\n    {\n        for (uint256 ai = users[wallet].physicalAddresses.length; ai > 0;) {\n            ai--;\n            if (userAddressConfirmed(wallet, ai)) {\n                return users[wallet].physicalAddresses[ai].name;\n            }\n        }\n        return \"\";\n    }\n\n    // returns how many addresses there are in PoPA contract. If user does not exist, returns 0\n    function userSubmittedAddressesCount(address wallet)\n    public constant returns (uint256)\n    {\n        return users[wallet].physicalAddresses.length;\n    }\n\n    // returns how many addresses from PoPA contract are confirmed. If user does not exist, returns 0\n    function userConfirmedAddressesCount(address wallet)\n    public constant returns (uint256)\n    {\n        uint256 c = 0;\n        for (uint256 ai = 0; ai < users[wallet].physicalAddresses.length; ai++) {\n            if (userAddressConfirmed(wallet, ai)) {\n                c += 1;\n            }\n        }\n        return c;\n    }\n\n    function userAddress(address wallet, uint256 addressIndex)\n    public constant checkUserExists(wallet) returns (\n        string country, string state, string city, string location, string zip)\n    {\n        return (\n            users[wallet].physicalAddresses[addressIndex].country,\n            users[wallet].physicalAddresses[addressIndex].state,\n            users[wallet].physicalAddresses[addressIndex].city,\n            users[wallet].physicalAddresses[addressIndex].location,\n            users[wallet].physicalAddresses[addressIndex].zip\n        );\n    }\n\n    function userAddressInfo(address wallet, uint256 addressIndex)\n    public constant checkUserExists(wallet) returns (\n        string name,\n        uint256 creationBlock,\n        uint256 confirmationBlock,\n        bytes32 keccakIdentifier\n    ) {\n        uint256 _confirmationBlock = PhysicalAddressClaim.decodeConfirmation(registry.getClaim(\n            address(this),\n            wallet,\n            users[wallet].physicalAddresses[addressIndex].keccakIdentifier)\n        );\n        return (\n            users[wallet].physicalAddresses[addressIndex].name,\n            users[wallet].physicalAddresses[addressIndex].creationBlock,\n            _confirmationBlock,\n            users[wallet].physicalAddresses[addressIndex].keccakIdentifier\n        );\n    }\n\n    // Main methods:\n    function registerAddress(\n        string name,\n        string country, string state, string city, string location, string zip,\n        uint256 priceWei,\n        bytes32 confirmationCodeSha3, uint8 sigV, bytes32 sigR, bytes32 sigS)\n    public payable\n    {\n        require(bytes(name).length > 0);\n        require(bytes(country).length > 0);\n        require(bytes(state).length > 0);\n        require(bytes(city).length > 0);\n        require(bytes(location).length > 0);\n        require(bytes(zip).length > 0);\n        require(msg.value >= priceWei);\n\n        bytes32 data = keccak256(\n            msg.sender,\n            name,\n            country,\n            state,\n            city,\n            location,\n            zip,\n            priceWei,\n            confirmationCodeSha3\n        );\n        require(signerIsValid(data, sigV, sigR, sigS));\n\n        if (userExists(msg.sender)) {\n            // check if this address is already registered\n            bool found;\n            (found, , ) = userAddressByAddress(msg.sender, country, state, city, location, zip);\n\n            require(!found);\n        } else {\n            // new user\n            users[msg.sender].creationBlock = block.number;\n\n            totalUsers += 1;\n        }\n\n        PhysicalAddress memory pa;\n\n        pa.name = name;\n        pa.country = country;\n        pa.state = state;\n        pa.city = city;\n        pa.location = location;\n        pa.zip = zip;\n        pa.creationBlock = block.number;\n        pa.confirmationCodeSha3 = confirmationCodeSha3;\n        pa.keccakIdentifier = keccak256(country, state, city, location, zip);\n        users[msg.sender].physicalAddresses.push(pa);\n\n        totalAddresses += 1;\n\n        LogAddressRegistered(msg.sender, name, country, state, city, location, zip);\n    }\n\n    function unregisterAddress(string country, string state, string city, string location, string zip)\n        public checkUserExists(msg.sender)\n    {\n        bool found;\n        uint256 index;\n        (found, index, ) = userAddressByAddress(msg.sender, country, state, city, location, zip);\n        require(found);\n\n        registry.removeClaim(\n            address(this),\n            msg.sender,\n            users[msg.sender].physicalAddresses[index].keccakIdentifier\n        );\n\n        // Remove physical address from list\n        uint256 length = users[msg.sender].physicalAddresses.length;\n\n        for (uint256 i = index; i < length - 1; i++) {\n            users[msg.sender].physicalAddresses[i] = users[msg.sender].physicalAddresses[i+1];\n        }\n\n        delete users[msg.sender].physicalAddresses[length - 1];\n        users[msg.sender].physicalAddresses.length--;\n\n        if (users[msg.sender].physicalAddresses.length == 0) {\n            delete users[msg.sender];\n        }\n\n        LogAddressUnregistered(msg.sender, country, state, city, location, zip);\n    }\n\n    function confirmAddress(string confirmationCodePlain, uint8 sigV, bytes32 sigR, bytes32 sigS)\n    public checkUserExists(msg.sender)\n    {\n        require(bytes(confirmationCodePlain).length > 0);\n\n        require(signerIsValid(keccak256(\n            msg.sender,\n            confirmationCodePlain\n        ), sigV, sigR, sigS));\n\n        bool found;\n        uint ai;\n        bool confirmed;\n        bytes32 keccakIdentifier;\n        (found, ai, confirmed, keccakIdentifier) = userAddressByConfirmationCode(\n            msg.sender,\n            keccak256(confirmationCodePlain)\n        );\n        require(found);\n        require(!confirmed);\n\n        registry.setClaim(msg.sender, keccakIdentifier, PhysicalAddressClaim.encode(block.number));\n        totalConfirmed += 1;\n\n        string memory country;\n        string memory state;\n        string memory city;\n        string memory location;\n        string memory zip;\n        (country, state, city, location, zip) = userAddress(msg.sender, ai);\n\n        LogAddressConfirmed(msg.sender, country, state, city, location, zip);\n    }\n}\n",
  "sourcePath": "/home/fvictorio/repos/poa-popa/blockchain/contracts/ProofOfPhysicalAddress.sol",
  "compiler": {
    "name": "solc",
    "version": "0.4.19+commit.c4cbbb05.Emscripten.clang"
  },
  "schemaVersion": "1.0.1",
  "updatedAt": "2018-05-15T17:31:26.733Z"
}