{
  "contractName": "ProofOfPhysicalAddress",
  "abi": [
    {
      "constant": true,
      "inputs": [],
      "name": "signer",
      "outputs": [
        {
          "name": "",
          "type": "address"
        }
      ],
      "payable": false,
      "stateMutability": "view",
      "type": "function"
    },
    {
      "constant": true,
      "inputs": [],
      "name": "totalConfirmed",
      "outputs": [
        {
          "name": "",
          "type": "uint64"
        }
      ],
      "payable": false,
      "stateMutability": "view",
      "type": "function"
    },
    {
      "constant": true,
      "inputs": [],
      "name": "registry",
      "outputs": [
        {
          "name": "",
          "type": "address"
        }
      ],
      "payable": false,
      "stateMutability": "view",
      "type": "function"
    },
    {
      "constant": true,
      "inputs": [],
      "name": "owner",
      "outputs": [
        {
          "name": "",
          "type": "address"
        }
      ],
      "payable": false,
      "stateMutability": "view",
      "type": "function"
    },
    {
      "constant": true,
      "inputs": [
        {
          "name": "",
          "type": "address"
        }
      ],
      "name": "users",
      "outputs": [
        {
          "name": "creationBlock",
          "type": "uint256"
        }
      ],
      "payable": false,
      "stateMutability": "view",
      "type": "function"
    },
    {
      "constant": true,
      "inputs": [],
      "name": "totalUsers",
      "outputs": [
        {
          "name": "",
          "type": "uint64"
        }
      ],
      "payable": false,
      "stateMutability": "view",
      "type": "function"
    },
    {
      "constant": true,
      "inputs": [],
      "name": "totalAddresses",
      "outputs": [
        {
          "name": "",
          "type": "uint64"
        }
      ],
      "payable": false,
      "stateMutability": "view",
      "type": "function"
    },
    {
      "inputs": [
        {
          "name": "_registry",
          "type": "address"
        }
      ],
      "payable": false,
      "stateMutability": "nonpayable",
      "type": "constructor"
    },
    {
      "anonymous": false,
      "inputs": [
        {
          "indexed": false,
          "name": "token",
          "type": "address"
        },
        {
          "indexed": false,
          "name": "to",
          "type": "address"
        },
        {
          "indexed": false,
          "name": "amount",
          "type": "uint256"
        }
      ],
      "name": "ClaimedTokens",
      "type": "event"
    },
    {
      "constant": true,
      "inputs": [
        {
          "name": "data",
          "type": "bytes32"
        },
        {
          "name": "v",
          "type": "uint8"
        },
        {
          "name": "r",
          "type": "bytes32"
        },
        {
          "name": "s",
          "type": "bytes32"
        }
      ],
      "name": "signerIsValid",
      "outputs": [
        {
          "name": "",
          "type": "bool"
        }
      ],
      "payable": false,
      "stateMutability": "view",
      "type": "function"
    },
    {
      "constant": false,
      "inputs": [
        {
          "name": "newSigner",
          "type": "address"
        }
      ],
      "name": "setSigner",
      "outputs": [],
      "payable": false,
      "stateMutability": "nonpayable",
      "type": "function"
    },
    {
      "constant": false,
      "inputs": [
        {
          "name": "newRegistry",
          "type": "address"
        }
      ],
      "name": "setRegistry",
      "outputs": [],
      "payable": false,
      "stateMutability": "nonpayable",
      "type": "function"
    },
    {
      "constant": false,
      "inputs": [
        {
          "name": "amountWei",
          "type": "uint256"
        }
      ],
      "name": "withdrawSome",
      "outputs": [],
      "payable": false,
      "stateMutability": "nonpayable",
      "type": "function"
    },
    {
      "constant": false,
      "inputs": [],
      "name": "withdrawAll",
      "outputs": [],
      "payable": false,
      "stateMutability": "nonpayable",
      "type": "function"
    },
    {
      "constant": true,
      "inputs": [
        {
          "name": "wallet",
          "type": "address"
        }
      ],
      "name": "userExists",
      "outputs": [
        {
          "name": "",
          "type": "bool"
        }
      ],
      "payable": false,
      "stateMutability": "view",
      "type": "function"
    },
    {
      "constant": true,
      "inputs": [
        {
          "name": "wallet",
          "type": "address"
        },
        {
          "name": "addressIndex",
          "type": "uint256"
        }
      ],
      "name": "userAddressConfirmed",
      "outputs": [
        {
          "name": "",
          "type": "bool"
        }
      ],
      "payable": false,
      "stateMutability": "view",
      "type": "function"
    },
    {
      "constant": true,
      "inputs": [
        {
          "name": "wallet",
          "type": "address"
        },
        {
          "name": "creationBlock",
          "type": "uint256"
        }
      ],
      "name": "userAddressByCreationBlock",
      "outputs": [
        {
          "name": "",
          "type": "bool"
        },
        {
          "name": "",
          "type": "uint256"
        },
        {
          "name": "",
          "type": "bool"
        }
      ],
      "payable": false,
      "stateMutability": "view",
      "type": "function"
    },
    {
      "constant": true,
      "inputs": [
        {
          "name": "wallet",
          "type": "address"
        },
        {
          "name": "confirmationCodeSha3",
          "type": "bytes32"
        }
      ],
      "name": "userAddressByConfirmationCode",
      "outputs": [
        {
          "name": "",
          "type": "bool"
        },
        {
          "name": "",
          "type": "uint256"
        },
        {
          "name": "",
          "type": "bool"
        },
        {
          "name": "",
          "type": "bytes32"
        }
      ],
      "payable": false,
      "stateMutability": "view",
      "type": "function"
    },
    {
      "constant": true,
      "inputs": [
        {
          "name": "wallet",
          "type": "address"
        },
        {
          "name": "country",
          "type": "string"
        },
        {
          "name": "state",
          "type": "string"
        },
        {
          "name": "city",
          "type": "string"
        },
        {
          "name": "location",
          "type": "string"
        },
        {
          "name": "zip",
          "type": "string"
        }
      ],
      "name": "userAddressByAddress",
      "outputs": [
        {
          "name": "",
          "type": "bool"
        },
        {
          "name": "",
          "type": "uint256"
        },
        {
          "name": "",
          "type": "bool"
        }
      ],
      "payable": false,
      "stateMutability": "view",
      "type": "function"
    },
    {
      "constant": true,
      "inputs": [
        {
          "name": "wallet",
          "type": "address"
        }
      ],
      "name": "userLastSubmittedName",
      "outputs": [
        {
          "name": "",
          "type": "string"
        }
      ],
      "payable": false,
      "stateMutability": "view",
      "type": "function"
    },
    {
      "constant": true,
      "inputs": [
        {
          "name": "wallet",
          "type": "address"
        }
      ],
      "name": "userLastConfirmedName",
      "outputs": [
        {
          "name": "",
          "type": "string"
        }
      ],
      "payable": false,
      "stateMutability": "view",
      "type": "function"
    },
    {
      "constant": true,
      "inputs": [
        {
          "name": "wallet",
          "type": "address"
        }
      ],
      "name": "userSubmittedAddressesCount",
      "outputs": [
        {
          "name": "",
          "type": "uint256"
        }
      ],
      "payable": false,
      "stateMutability": "view",
      "type": "function"
    },
    {
      "constant": true,
      "inputs": [
        {
          "name": "wallet",
          "type": "address"
        }
      ],
      "name": "userConfirmedAddressesCount",
      "outputs": [
        {
          "name": "",
          "type": "uint256"
        }
      ],
      "payable": false,
      "stateMutability": "view",
      "type": "function"
    },
    {
      "constant": true,
      "inputs": [
        {
          "name": "wallet",
          "type": "address"
        },
        {
          "name": "addressIndex",
          "type": "uint256"
        }
      ],
      "name": "userAddress",
      "outputs": [
        {
          "name": "country",
          "type": "string"
        },
        {
          "name": "state",
          "type": "string"
        },
        {
          "name": "city",
          "type": "string"
        },
        {
          "name": "location",
          "type": "string"
        },
        {
          "name": "zip",
          "type": "string"
        }
      ],
      "payable": false,
      "stateMutability": "view",
      "type": "function"
    },
    {
      "constant": true,
      "inputs": [
        {
          "name": "wallet",
          "type": "address"
        },
        {
          "name": "addressIndex",
          "type": "uint256"
        }
      ],
      "name": "userAddressInfo",
      "outputs": [
        {
          "name": "name",
          "type": "string"
        },
        {
          "name": "creationBlock",
          "type": "uint256"
        },
        {
          "name": "confirmationBlock",
          "type": "uint256"
        },
        {
          "name": "keccakIdentifier",
          "type": "bytes32"
        }
      ],
      "payable": false,
      "stateMutability": "view",
      "type": "function"
    },
    {
      "constant": false,
      "inputs": [
        {
          "name": "name",
          "type": "string"
        },
        {
          "name": "country",
          "type": "string"
        },
        {
          "name": "state",
          "type": "string"
        },
        {
          "name": "city",
          "type": "string"
        },
        {
          "name": "location",
          "type": "string"
        },
        {
          "name": "zip",
          "type": "string"
        },
        {
          "name": "priceWei",
          "type": "uint256"
        },
        {
          "name": "confirmationCodeSha3",
          "type": "bytes32"
        },
        {
          "name": "sigV",
          "type": "uint8"
        },
        {
          "name": "sigR",
          "type": "bytes32"
        },
        {
          "name": "sigS",
          "type": "bytes32"
        }
      ],
      "name": "registerAddress",
      "outputs": [],
      "payable": true,
      "stateMutability": "payable",
      "type": "function"
    },
    {
      "constant": false,
      "inputs": [
        {
          "name": "country",
          "type": "string"
        },
        {
          "name": "state",
          "type": "string"
        },
        {
          "name": "city",
          "type": "string"
        },
        {
          "name": "location",
          "type": "string"
        },
        {
          "name": "zip",
          "type": "string"
        }
      ],
      "name": "unregisterAddress",
      "outputs": [],
      "payable": false,
      "stateMutability": "nonpayable",
      "type": "function"
    },
    {
      "constant": false,
      "inputs": [
        {
          "name": "confirmationCodePlain",
          "type": "string"
        },
        {
          "name": "sigV",
          "type": "uint8"
        },
        {
          "name": "sigR",
          "type": "bytes32"
        },
        {
          "name": "sigS",
          "type": "bytes32"
        }
      ],
      "name": "confirmAddress",
      "outputs": [],
      "payable": false,
      "stateMutability": "nonpayable",
      "type": "function"
    },
    {
      "constant": false,
      "inputs": [
        {
          "name": "_token",
          "type": "address"
        },
        {
          "name": "_to",
          "type": "address"
        }
      ],
      "name": "claimTokens",
      "outputs": [],
      "payable": false,
      "stateMutability": "nonpayable",
      "type": "function"
    }
  ],
  "bytecode": "0x6060604052341561000f57600080fd5b60405160208061443483398101604052808051906020019091905050336000806101000a81548173ffffffffffffffffffffffffffffffffffffffff021916908373ffffffffffffffffffffffffffffffffffffffff1602179055506000809054906101000a900473ffffffffffffffffffffffffffffffffffffffff16600160006101000a81548173ffffffffffffffffffffffffffffffffffffffff021916908373ffffffffffffffffffffffffffffffffffffffff16021790555080600260006101000a81548173ffffffffffffffffffffffffffffffffffffffff021916908373ffffffffffffffffffffffffffffffffffffffff160217905550506143168061011e6000396000f30060606040526004361061015f576000357c0100000000000000000000000000000000000000000000000000000000900463ffffffff16806305831776146101645780630e666e49146101d0578063238ac933146102215780632c2a178e146102765780634028a0f11461045357806369ffa08a146104905780636c19e783146104e85780637b10399914610521578063853828b6146105765780638da5cb5b1461058b578063a5db3d02146105e0578063a87430ba14610663578063a91ee0dc146106b0578063ae9b051c146106e9578063b4778e2d1461070c578063b55fbd0414610977578063bff1f9e114610a29578063c0fe077f14610a66578063c228251b14610ae5578063c94f2c1b14610c4e578063cfad527714610c9b578063d673560414610cd8578063d956be1014610d8a578063de3d702e14610def578063e585332e14610e3c578063f0486ab414610fee578063feea980814611048575b600080fd5b341561016f57600080fd5b6101a4600480803573ffffffffffffffffffffffffffffffffffffffff16906020019091908035906020019091905050611120565b604051808415151515815260200183815260200182151515158152602001935050505060405180910390f35b34156101db57600080fd5b610207600480803573ffffffffffffffffffffffffffffffffffffffff16906020019091905050611232565b604051808215151515815260200191505060405180910390f35b341561022c57600080fd5b610234611280565b604051808273ffffffffffffffffffffffffffffffffffffffff1673ffffffffffffffffffffffffffffffffffffffff16815260200191505060405180910390f35b610451600480803590602001908201803590602001908080601f0160208091040260200160405190810160405280939291908181526020018383808284378201915050505050509190803590602001908201803590602001908080601f0160208091040260200160405190810160405280939291908181526020018383808284378201915050505050509190803590602001908201803590602001908080601f0160208091040260200160405190810160405280939291908181526020018383808284378201915050505050509190803590602001908201803590602001908080601f0160208091040260200160405190810160405280939291908181526020018383808284378201915050505050509190803590602001908201803590602001908080601f0160208091040260200160405190810160405280939291908181526020018383808284378201915050505050509190803590602001908201803590602001908080601f016020809104026020016040519081016040528093929190818152602001838380828437820191505050505050919080359060200190919080356000191690602001909190803560ff1690602001909190803560001916906020019091908035600019169060200190919050506112a6565b005b341561045e57600080fd5b610466611a18565b604051808267ffffffffffffffff1667ffffffffffffffff16815260200191505060405180910390f35b341561049b57600080fd5b6104e6600480803573ffffffffffffffffffffffffffffffffffffffff1690602001909190803573ffffffffffffffffffffffffffffffffffffffff16906020019091905050611a32565b005b34156104f357600080fd5b61051f600480803573ffffffffffffffffffffffffffffffffffffffff16906020019091905050611d37565b005b341561052c57600080fd5b610534611dd6565b604051808273ffffffffffffffffffffffffffffffffffffffff1673ffffffffffffffffffffffffffffffffffffffff16815260200191505060405180910390f35b341561058157600080fd5b610589611dfc565b005b341561059657600080fd5b61059e611ef7565b604051808273ffffffffffffffffffffffffffffffffffffffff1673ffffffffffffffffffffffffffffffffffffffff16815260200191505060405180910390f35b34156105eb57600080fd5b610661600480803590602001908201803590602001908080601f0160208091040260200160405190810160405280939291908181526020018383808284378201915050505050509190803560ff169060200190919080356000191690602001909190803560001916906020019091905050611f1c565b005b341561066e57600080fd5b61069a600480803573ffffffffffffffffffffffffffffffffffffffff16906020019091905050612269565b6040518082815260200191505060405180910390f35b34156106bb57600080fd5b6106e7600480803573ffffffffffffffffffffffffffffffffffffffff16906020019091905050612287565b005b34156106f457600080fd5b61070a6004808035906020019091905050612326565b005b341561071757600080fd5b61074c600480803573ffffffffffffffffffffffffffffffffffffffff1690602001909190803590602001909190505061240b565b60405180806020018060200180602001806020018060200186810386528b818151815260200191508051906020019080838360005b8381101561079c578082015181840152602081019050610781565b50505050905090810190601f1680156107c95780820380516001836020036101000a031916815260200191505b5086810385528a818151815260200191508051906020019080838360005b838110156108025780820151818401526020810190506107e7565b50505050905090810190601f16801561082f5780820380516001836020036101000a031916815260200191505b50868103845289818151815260200191508051906020019080838360005b8381101561086857808201518184015260208101905061084d565b50505050905090810190601f1680156108955780820380516001836020036101000a031916815260200191505b50868103835288818151815260200191508051906020019080838360005b838110156108ce5780820151818401526020810190506108b3565b50505050905090810190601f1680156108fb5780820380516001836020036101000a031916815260200191505b50868103825287818151815260200191508051906020019080838360005b83811015610934578082015181840152602081019050610919565b50505050905090810190601f1680156109615780820380516001836020036101000a031916815260200191505b509a505050505050505050505060405180910390f35b341561098257600080fd5b6109ae600480803573ffffffffffffffffffffffffffffffffffffffff16906020019091905050612949565b6040518080602001828103825283818151815260200191508051906020019080838360005b838110156109ee5780820151818401526020810190506109d3565b50505050905090810190601f168015610a1b5780820380516001836020036101000a031916815260200191505b509250505060405180910390f35b3415610a3457600080fd5b610a3c612af2565b604051808267ffffffffffffffff1667ffffffffffffffff16815260200191505060405180910390f35b3415610a7157600080fd5b610aaa600480803573ffffffffffffffffffffffffffffffffffffffff1690602001909190803560001916906020019091905050612b0c565b604051808515151515815260200184815260200183151515158152602001826000191660001916815260200194505050505060405180910390f35b3415610af057600080fd5b610c4c600480803590602001908201803590602001908080601f0160208091040260200160405190810160405280939291908181526020018383808284378201915050505050509190803590602001908201803590602001908080601f0160208091040260200160405190810160405280939291908181526020018383808284378201915050505050509190803590602001908201803590602001908080601f0160208091040260200160405190810160405280939291908181526020018383808284378201915050505050509190803590602001908201803590602001908080601f0160208091040260200160405190810160405280939291908181526020018383808284378201915050505050509190803590602001908201803590602001908080601f01602080910402602001604051908101604052809392919081815260200183838082843782019150505050505091905050612c96565b005b3415610c5957600080fd5b610c85600480803573ffffffffffffffffffffffffffffffffffffffff1690602001909190505061326c565b6040518082815260200191505060405180910390f35b3415610ca657600080fd5b610cae6132f3565b604051808267ffffffffffffffff1667ffffffffffffffff16815260200191505060405180910390f35b3415610ce357600080fd5b610d0f600480803573ffffffffffffffffffffffffffffffffffffffff1690602001909190505061330d565b6040518080602001828103825283818151815260200191508051906020019080838360005b83811015610d4f578082015181840152602081019050610d34565b50505050905090810190601f168015610d7c5780820380516001836020036101000a031916815260200191505b509250505060405180910390f35b3415610d9557600080fd5b610dd560048080356000191690602001909190803560ff169060200190919080356000191690602001909190803560001916906020019091905050613473565b604051808215151515815260200191505060405180910390f35b3415610dfa57600080fd5b610e26600480803573ffffffffffffffffffffffffffffffffffffffff1690602001909190505061360f565b6040518082815260200191505060405180910390f35b3415610e4757600080fd5b610fc2600480803573ffffffffffffffffffffffffffffffffffffffff1690602001909190803590602001908201803590602001908080601f0160208091040260200160405190810160405280939291908181526020018383808284378201915050505050509190803590602001908201803590602001908080601f0160208091040260200160405190810160405280939291908181526020018383808284378201915050505050509190803590602001908201803590602001908080601f0160208091040260200160405190810160405280939291908181526020018383808284378201915050505050509190803590602001908201803590602001908080601f0160208091040260200160405190810160405280939291908181526020018383808284378201915050505050509190803590602001908201803590602001908080601f0160208091040260200160405190810160405280939291908181526020018383808284378201915050505050509190505061365e565b604051808415151515815260200183815260200182151515158152602001935050505060405180910390f35b3415610ff957600080fd5b61102e600480803573ffffffffffffffffffffffffffffffffffffffff16906020019091908035906020019091905050613939565b604051808215151515815260200191505060405180910390f35b341561105357600080fd5b611088600480803573ffffffffffffffffffffffffffffffffffffffff16906020019091908035906020019091905050613b94565b60405180806020018581526020018481526020018360001916600019168152602001828103825286818151815260200191508051906020019080838360005b838110156110e25780820151818401526020810190506110c7565b50505050905090810190601f16801561110f5780820380516001836020036101000a031916815260200191505b509550505050505060405180910390f35b6000806000808561113081611232565b151561113b57600080fd5b600091505b600360008873ffffffffffffffffffffffffffffffffffffffff1673ffffffffffffffffffffffffffffffffffffffff1681526020019081526020016000206001018054905082101561121a5785600360008973ffffffffffffffffffffffffffffffffffffffff1673ffffffffffffffffffffffffffffffffffffffff168152602001908152602001600020600101838154811015156111dd57fe5b906000526020600020906009020160060154141561120d576001826112028985613939565b945094509450611229565b8180600101925050611140565b60008060008191509450945094505b50509250925092565b600080600360008473ffffffffffffffffffffffffffffffffffffffff1673ffffffffffffffffffffffffffffffffffffffff16815260200190815260200160002060000154119050919050565b600160009054906101000a900473ffffffffffffffffffffffffffffffffffffffff1681565b6000806112b1613fa4565b60008e511115156112c157600080fd5b60008d511115156112d157600080fd5b60008c511115156112e157600080fd5b60008b511115156112f157600080fd5b60008a5111151561130157600080fd5b6000895111151561131157600080fd5b87341015151561132057600080fd5b338e8e8e8e8e8e8e8e604051808a73ffffffffffffffffffffffffffffffffffffffff1673ffffffffffffffffffffffffffffffffffffffff166c0100000000000000000000000002815260140189805190602001908083835b60208310151561139f578051825260208201915060208101905060208303925061137a565b6001836020036101000a03801982511681845116808217855250505050505090500188805190602001908083835b6020831015156113f257805182526020820191506020810190506020830392506113cd565b6001836020036101000a03801982511681845116808217855250505050505090500187805190602001908083835b6020831015156114455780518252602082019150602081019050602083039250611420565b6001836020036101000a03801982511681845116808217855250505050505090500186805190602001908083835b6020831015156114985780518252602082019150602081019050602083039250611473565b6001836020036101000a03801982511681845116808217855250505050505090500185805190602001908083835b6020831015156114eb57805182526020820191506020810190506020830392506114c6565b6001836020036101000a03801982511681845116808217855250505050505090500184805190602001908083835b60208310151561153e5780518252602082019150602081019050602083039250611519565b6001836020036101000a038019825116818451168082178552505050505050905001838152602001826000191660001916815260200199505050505050505050506040518091039020925061159583878787613473565b15156115a057600080fd5b6115a933611232565b156115d5576115bc338e8e8e8e8e61365e565b90505080925050811515156115d057600080fd5b611660565b43600360003373ffffffffffffffffffffffffffffffffffffffff1673ffffffffffffffffffffffffffffffffffffffff168152602001908152602001600020600001819055506001600460008282829054906101000a900467ffffffffffffffff160192506101000a81548167ffffffffffffffff021916908367ffffffffffffffff1602179055505b8d81600001819052508c81602001819052508b81604001819052508a8160600181905250898160800181905250888160a00181905250438160c00181815250508681610100019060001916908160001916815250508c8c8c8c8c6040518086805190602001908083835b6020831015156116ef57805182526020820191506020810190506020830392506116ca565b6001836020036101000a03801982511681845116808217855250505050505090500185805190602001908083835b602083101515611742578051825260208201915060208101905060208303925061171d565b6001836020036101000a03801982511681845116808217855250505050505090500184805190602001908083835b6020831015156117955780518252602082019150602081019050602083039250611770565b6001836020036101000a03801982511681845116808217855250505050505090500183805190602001908083835b6020831015156117e857805182526020820191506020810190506020830392506117c3565b6001836020036101000a03801982511681845116808217855250505050505090500182805190602001908083835b60208310151561183b5780518252602082019150602081019050602083039250611816565b6001836020036101000a0380198251168184511680821785525050505050509050019550505050505060405180910390208160e001906000191690816000191681525050600360003373ffffffffffffffffffffffffffffffffffffffff1673ffffffffffffffffffffffffffffffffffffffff16815260200190815260200160002060010180548060010182816118d3919061401b565b91600052602060002090600902016000839091909150600082015181600001908051906020019061190592919061404d565b50602082015181600101908051906020019061192292919061404d565b50604082015181600201908051906020019061193f92919061404d565b50606082015181600301908051906020019061195c92919061404d565b50608082015181600401908051906020019061197992919061404d565b5060a082015181600501908051906020019061199692919061404d565b5060c0820151816006015560e0820151816007019060001916905561010082015181600801906000191690555050506001600460088282829054906101000a900467ffffffffffffffff160192506101000a81548167ffffffffffffffff021916908367ffffffffffffffff1602179055505050505050505050505050505050565b600460109054906101000a900467ffffffffffffffff1681565b6000806000809054906101000a900473ffffffffffffffffffffffffffffffffffffffff1673ffffffffffffffffffffffffffffffffffffffff163373ffffffffffffffffffffffffffffffffffffffff16141515611a9057600080fd5b600073ffffffffffffffffffffffffffffffffffffffff168473ffffffffffffffffffffffffffffffffffffffff1614151515611acc57600080fd5b600073ffffffffffffffffffffffffffffffffffffffff168373ffffffffffffffffffffffffffffffffffffffff1614151515611b0857600080fd5b8391508173ffffffffffffffffffffffffffffffffffffffff166370a08231306000604051602001526040518263ffffffff167c0100000000000000000000000000000000000000000000000000000000028152600401808273ffffffffffffffffffffffffffffffffffffffff1673ffffffffffffffffffffffffffffffffffffffff168152602001915050602060405180830381600087803b1515611bae57600080fd5b6102c65a03f11515611bbf57600080fd5b5050506040518051905090508173ffffffffffffffffffffffffffffffffffffffff1663a9059cbb84836000604051602001526040518363ffffffff167c0100000000000000000000000000000000000000000000000000000000028152600401808373ffffffffffffffffffffffffffffffffffffffff1673ffffffffffffffffffffffffffffffffffffffff16815260200182815260200192505050602060405180830381600087803b1515611c7657600080fd5b6102c65a03f11515611c8757600080fd5b50505060405180519050507ff931edb47c50b4b4104c187b5814a9aef5f709e17e2ecf9617e860cacade929c848483604051808473ffffffffffffffffffffffffffffffffffffffff1673ffffffffffffffffffffffffffffffffffffffff1681526020018373ffffffffffffffffffffffffffffffffffffffff1673ffffffffffffffffffffffffffffffffffffffff168152602001828152602001935050505060405180910390a150505050565b6000809054906101000a900473ffffffffffffffffffffffffffffffffffffffff1673ffffffffffffffffffffffffffffffffffffffff163373ffffffffffffffffffffffffffffffffffffffff16141515611d9257600080fd5b80600160006101000a81548173ffffffffffffffffffffffffffffffffffffffff021916908373ffffffffffffffffffffffffffffffffffffffff16021790555050565b600260009054906101000a900473ffffffffffffffffffffffffffffffffffffffff1681565b6000809054906101000a900473ffffffffffffffffffffffffffffffffffffffff1673ffffffffffffffffffffffffffffffffffffffff163373ffffffffffffffffffffffffffffffffffffffff16141515611e5757600080fd5b60003073ffffffffffffffffffffffffffffffffffffffff1631111515611e7d57600080fd5b6000809054906101000a900473ffffffffffffffffffffffffffffffffffffffff1673ffffffffffffffffffffffffffffffffffffffff166108fc3073ffffffffffffffffffffffffffffffffffffffff16319081150290604051600060405180830381858888f193505050501515611ef557600080fd5b565b6000809054906101000a900473ffffffffffffffffffffffffffffffffffffffff1681565b600080600080600033611f2e81611232565b1515611f3957600080fd5b60008a51111515611f4957600080fd5b338a604051808373ffffffffffffffffffffffffffffffffffffffff1673ffffffffffffffffffffffffffffffffffffffff166c0100000000000000000000000002815260140182805190602001908083835b602083101515611fc15780518252602082019150602081019050602083039250611f9c565b6001836020036101000a0380198251168184511680821785525050505050509050019250505060405180910390209550611ffd868a8a8a613473565b151561200857600080fd5b612074338b6040518082805190602001908083835b602083101515612042578051825260208201915060208101905060208303925061201d565b6001836020036101000a0380198251168184511680821785525050505050509050019150506040518091039020612b0c565b8095508196508297508398505050505084151561209057600080fd5b8215151561209d57600080fd5b600260009054906101000a900473ffffffffffffffffffffffffffffffffffffffff1673ffffffffffffffffffffffffffffffffffffffff16639918925d338473__PhysicalAddressClaim__________________63deb21fa2436000604051602001526040518263ffffffff167c01000000000000000000000000000000000000000000000000000000000281526004018082815260200191505060206040518083038186803b151561215057600080fd5b6102c65a03f4151561216157600080fd5b505050604051805190506040518463ffffffff167c0100000000000000000000000000000000000000000000000000000000028152600401808473ffffffffffffffffffffffffffffffffffffffff1673ffffffffffffffffffffffffffffffffffffffff168152602001836000191660001916815260200182600019166000191681526020019350505050600060405180830381600087803b151561220657600080fd5b6102c65a03f1151561221757600080fd5b5050506001600460108282829054906101000a900467ffffffffffffffff160192506101000a81548167ffffffffffffffff021916908367ffffffffffffffff16021790555050505050505050505050565b60036020528060005260406000206000915090508060000154905081565b6000809054906101000a900473ffffffffffffffffffffffffffffffffffffffff1673ffffffffffffffffffffffffffffffffffffffff163373ffffffffffffffffffffffffffffffffffffffff161415156122e257600080fd5b80600260006101000a81548173ffffffffffffffffffffffffffffffffffffffff021916908373ffffffffffffffffffffffffffffffffffffffff16021790555050565b6000809054906101000a900473ffffffffffffffffffffffffffffffffffffffff1673ffffffffffffffffffffffffffffffffffffffff163373ffffffffffffffffffffffffffffffffffffffff1614151561238157600080fd5b803073ffffffffffffffffffffffffffffffffffffffff1631101515156123a757600080fd5b6000809054906101000a900473ffffffffffffffffffffffffffffffffffffffff1673ffffffffffffffffffffffffffffffffffffffff166108fc829081150290604051600060405180830381858888f19350505050151561240857600080fd5b50565b6124136140cd565b61241b6140cd565b6124236140cd565b61242b6140cd565b6124336140cd565b8661243d81611232565b151561244857600080fd5b600360008973ffffffffffffffffffffffffffffffffffffffff1673ffffffffffffffffffffffffffffffffffffffff1681526020019081526020016000206001018781548110151561249757fe5b9060005260206000209060090201600101600360008a73ffffffffffffffffffffffffffffffffffffffff1673ffffffffffffffffffffffffffffffffffffffff168152602001908152602001600020600101888154811015156124f757fe5b9060005260206000209060090201600201600360008b73ffffffffffffffffffffffffffffffffffffffff1673ffffffffffffffffffffffffffffffffffffffff1681526020019081526020016000206001018981548110151561255757fe5b9060005260206000209060090201600301600360008c73ffffffffffffffffffffffffffffffffffffffff1673ffffffffffffffffffffffffffffffffffffffff1681526020019081526020016000206001018a8154811015156125b757fe5b9060005260206000209060090201600401600360008d73ffffffffffffffffffffffffffffffffffffffff1673ffffffffffffffffffffffffffffffffffffffff1681526020019081526020016000206001018b81548110151561261757fe5b9060005260206000209060090201600501848054600181600116156101000203166002900480601f0160208091040260200160405190810160405280929190818152602001828054600181600116156101000203166002900480156126bd5780601f10612692576101008083540402835291602001916126bd565b820191906000526020600020905b8154815290600101906020018083116126a057829003601f168201915b50505050509450838054600181600116156101000203166002900480601f0160208091040260200160405190810160405280929190818152602001828054600181600116156101000203166002900480156127595780601f1061272e57610100808354040283529160200191612759565b820191906000526020600020905b81548152906001019060200180831161273c57829003601f168201915b50505050509350828054600181600116156101000203166002900480601f0160208091040260200160405190810160405280929190818152602001828054600181600116156101000203166002900480156127f55780601f106127ca576101008083540402835291602001916127f5565b820191906000526020600020905b8154815290600101906020018083116127d857829003601f168201915b50505050509250818054600181600116156101000203166002900480601f0160208091040260200160405190810160405280929190818152602001828054600181600116156101000203166002900480156128915780601f1061286657610100808354040283529160200191612891565b820191906000526020600020905b81548152906001019060200180831161287457829003601f168201915b50505050509150808054600181600116156101000203166002900480601f01602080910402602001604051908101604052809291908181526020018280546001816001161561010002031660029004801561292d5780601f106129025761010080835404028352916020019161292d565b820191906000526020600020905b81548152906001019060200180831161291057829003601f168201915b5050505050905095509550955095509550509295509295909350565b6129516140cd565b60008261295d81611232565b151561296857600080fd5b600360008573ffffffffffffffffffffffffffffffffffffffff1673ffffffffffffffffffffffffffffffffffffffff1681526020019081526020016000206001018054905091505b6000821115612ad7578180600190039250506129cd8483613939565b15612ad257600360008573ffffffffffffffffffffffffffffffffffffffff1673ffffffffffffffffffffffffffffffffffffffff16815260200190815260200160002060010182815481101515612a2157fe5b90600052602060002090600902016000018054600181600116156101000203166002900480601f016020809104026020016040519081016040528092919081815260200182805460018160011615610100020316600290048015612ac65780601f10612a9b57610100808354040283529160200191612ac6565b820191906000526020600020905b815481529060010190602001808311612aa957829003601f168201915b50505050509250612aeb565b6129b1565b602060405190810160405280600081525092505b5050919050565b600460009054906101000a900467ffffffffffffffff1681565b600080600080600086612b1e81611232565b1515612b2957600080fd5b600091505b600360008973ffffffffffffffffffffffffffffffffffffffff1673ffffffffffffffffffffffffffffffffffffffff16815260200190815260200160002060010180549050821015612c73578660001916600360008a73ffffffffffffffffffffffffffffffffffffffff1673ffffffffffffffffffffffffffffffffffffffff16815260200190815260200160002060010183815481101515612bcf57fe5b906000526020600020906009020160080154600019161415612c6657600182612bf88a85613939565b600360008c73ffffffffffffffffffffffffffffffffffffffff1673ffffffffffffffffffffffffffffffffffffffff16815260200190815260200160002060010185815481101515612c4757fe5b9060005260206000209060090201600701549550955095509550612c8b565b8180600101925050612b2e565b60008060008082925080600102905095509550955095505b505092959194509250565b60008060008033612ca681611232565b1515612cb157600080fd5b612cbf338b8b8b8b8b61365e565b508095508196505050841515612cd457600080fd5b600260009054906101000a900473ffffffffffffffffffffffffffffffffffffffff1673ffffffffffffffffffffffffffffffffffffffff1663c7508ec73033600360003373ffffffffffffffffffffffffffffffffffffffff1673ffffffffffffffffffffffffffffffffffffffff16815260200190815260200160002060010188815481101515612d6357fe5b9060005260206000209060090201600701546040518463ffffffff167c0100000000000000000000000000000000000000000000000000000000028152600401808473ffffffffffffffffffffffffffffffffffffffff1673ffffffffffffffffffffffffffffffffffffffff1681526020018373ffffffffffffffffffffffffffffffffffffffff1673ffffffffffffffffffffffffffffffffffffffff16815260200182600019166000191681526020019350505050600060405180830381600087803b1515612e3457600080fd5b6102c65a03f11515612e4557600080fd5b505050600360003373ffffffffffffffffffffffffffffffffffffffff1673ffffffffffffffffffffffffffffffffffffffff1681526020019081526020016000206001018054905092508391505b6001830382101561308657600360003373ffffffffffffffffffffffffffffffffffffffff1673ffffffffffffffffffffffffffffffffffffffff16815260200190815260200160002060010160018301815481101515612ef157fe5b9060005260206000209060090201600360003373ffffffffffffffffffffffffffffffffffffffff1673ffffffffffffffffffffffffffffffffffffffff16815260200190815260200160002060010183815481101515612f4e57fe5b906000526020600020906009020160008201816000019080546001816001161561010002031660029004612f839291906140e1565b5060018201816001019080546001816001161561010002031660029004612fab9291906140e1565b5060028201816002019080546001816001161561010002031660029004612fd39291906140e1565b5060038201816003019080546001816001161561010002031660029004612ffb9291906140e1565b50600482018160040190805460018160011615610100020316600290046130239291906140e1565b506005820181600501908054600181600116156101000203166002900461304b9291906140e1565b506006820154816006015560078201548160070190600019169055600882015481600801906000191690559050508180600101925050612e94565b600360003373ffffffffffffffffffffffffffffffffffffffff1673ffffffffffffffffffffffffffffffffffffffff168152602001908152602001600020600101600184038154811015156130d857fe5b9060005260206000209060090201600080820160006130f79190614168565b6001820160006131079190614168565b6002820160006131179190614168565b6003820160006131279190614168565b6004820160006131379190614168565b6005820160006131479190614168565b6006820160009055600782016000905560088201600090555050600360003373ffffffffffffffffffffffffffffffffffffffff1673ffffffffffffffffffffffffffffffffffffffff1681526020019081526020016000206001018054809190600190036131b691906141b0565b506000600360003373ffffffffffffffffffffffffffffffffffffffff1673ffffffffffffffffffffffffffffffffffffffff16815260200190815260200160002060010180549050141561326057600360003373ffffffffffffffffffffffffffffffffffffffff1673ffffffffffffffffffffffffffffffffffffffff16815260200190815260200160002060008082016000905560018201600061325d91906141e2565b50505b50505050505050505050565b6000806000809150600090505b600360008573ffffffffffffffffffffffffffffffffffffffff1673ffffffffffffffffffffffffffffffffffffffff168152602001908152602001600020600101805490508110156132e9576132d08482613939565b156132dc576001820191505b8080600101915050613279565b8192505050919050565b600460089054906101000a900467ffffffffffffffff1681565b6133156140cd565b8161331f81611232565b151561332a57600080fd5b600360008473ffffffffffffffffffffffffffffffffffffffff1673ffffffffffffffffffffffffffffffffffffffff1681526020019081526020016000206001016001600360008673ffffffffffffffffffffffffffffffffffffffff1673ffffffffffffffffffffffffffffffffffffffff16815260200190815260200160002060010180549050038154811015156133c157fe5b90600052602060002090600902016000018054600181600116156101000203166002900480601f0160208091040260200160405190810160405280929190818152602001828054600181600116156101000203166002900480156134665780601f1061343b57610100808354040283529160200191613466565b820191906000526020600020905b81548152906001019060200180831161344957829003601f168201915b5050505050915050919050565b600061347d614206565b60006040805190810160405280601c81526020017f19457468657265756d205369676e6564204d6573736167653a0a333200000000815250915081876040518083805190602001908083835b6020831015156134ee57805182526020820191506020810190506020830392506134c9565b6001836020036101000a03801982511681845116808217855250505050505090500182600019166000191681526020019250505060405180910390209050600160009054906101000a900473ffffffffffffffffffffffffffffffffffffffff1673ffffffffffffffffffffffffffffffffffffffff16600182888888604051600081526020016040526000604051602001526040518085600019166000191681526020018460ff1660ff16815260200183600019166000191681526020018260001916600019168152602001945050505050602060405160208103908084039060008661646e5a03f115156135e357600080fd5b50506020604051035173ffffffffffffffffffffffffffffffffffffffff161492505050949350505050565b6000600360008373ffffffffffffffffffffffffffffffffffffffff1673ffffffffffffffffffffffffffffffffffffffff168152602001908152602001600020600101805490509050919050565b60008060008060008a61367081611232565b151561367b57600080fd5b8a8a8a8a8a6040518086805190602001908083835b6020831015156136b55780518252602082019150602081019050602083039250613690565b6001836020036101000a03801982511681845116808217855250505050505090500185805190602001908083835b60208310151561370857805182526020820191506020810190506020830392506136e3565b6001836020036101000a03801982511681845116808217855250505050505090500184805190602001908083835b60208310151561375b5780518252602082019150602081019050602083039250613736565b6001836020036101000a03801982511681845116808217855250505050505090500183805190602001908083835b6020831015156137ae5780518252602082019150602081019050602083039250613789565b6001836020036101000a03801982511681845116808217855250505050505090500182805190602001908083835b60208310151561380157805182526020820191506020810190506020830392506137dc565b6001836020036101000a0380198251168184511680821785525050505050509050019550505050505060405180910390209250600091505b600360008d73ffffffffffffffffffffffffffffffffffffffff1673ffffffffffffffffffffffffffffffffffffffff1681526020019081526020016000206001018054905082101561391b578260001916600360008e73ffffffffffffffffffffffffffffffffffffffff1673ffffffffffffffffffffffffffffffffffffffff168152602001908152602001600020600101838154811015156138da57fe5b90600052602060002090600902016007015460001916141561390e576001826139038e85613939565b95509550955061392a565b8180600101925050613839565b60008060008191509550955095505b50505096509650969350505050565b6000808361394681611232565b151561395157600080fd5b600360008673ffffffffffffffffffffffffffffffffffffffff1673ffffffffffffffffffffffffffffffffffffffff168152602001908152602001600020600101848154811015156139a057fe5b90600052602060002090600902016007015491506000600102826000191614156139cd5760009250613b8c565b600073__PhysicalAddressClaim__________________637194df0d600260009054906101000a900473ffffffffffffffffffffffffffffffffffffffff1673ffffffffffffffffffffffffffffffffffffffff1663e1661eff308a886000604051602001526040518463ffffffff167c0100000000000000000000000000000000000000000000000000000000028152600401808473ffffffffffffffffffffffffffffffffffffffff1673ffffffffffffffffffffffffffffffffffffffff1681526020018373ffffffffffffffffffffffffffffffffffffffff1673ffffffffffffffffffffffffffffffffffffffff16815260200182600019166000191681526020019350505050602060405180830381600087803b1515613af257600080fd5b6102c65a03f11515613b0357600080fd5b505050604051805190506000604051602001526040518263ffffffff167c010000000000000000000000000000000000000000000000000000000002815260040180826000191660001916815260200191505060206040518083038186803b1515613b6d57600080fd5b6102c65a03f41515613b7e57600080fd5b505050604051805190501192505b505092915050565b613b9c6140cd565b60008060008086613bac81611232565b1515613bb757600080fd5b73__PhysicalAddressClaim__________________637194df0d600260009054906101000a900473ffffffffffffffffffffffffffffffffffffffff1673ffffffffffffffffffffffffffffffffffffffff1663e1661eff308c600360008f73ffffffffffffffffffffffffffffffffffffffff1673ffffffffffffffffffffffffffffffffffffffff1681526020019081526020016000206001018d815481101515613c6057fe5b9060005260206000209060090201600701546000604051602001526040518463ffffffff167c0100000000000000000000000000000000000000000000000000000000028152600401808473ffffffffffffffffffffffffffffffffffffffff1673ffffffffffffffffffffffffffffffffffffffff1681526020018373ffffffffffffffffffffffffffffffffffffffff1673ffffffffffffffffffffffffffffffffffffffff16815260200182600019166000191681526020019350505050602060405180830381600087803b1515613d3a57600080fd5b6102c65a03f11515613d4b57600080fd5b505050604051805190506000604051602001526040518263ffffffff167c010000000000000000000000000000000000000000000000000000000002815260040180826000191660001916815260200191505060206040518083038186803b1515613db557600080fd5b6102c65a03f41515613dc657600080fd5b505050604051805190509150600360008973ffffffffffffffffffffffffffffffffffffffff1673ffffffffffffffffffffffffffffffffffffffff16815260200190815260200160002060010187815481101515613e2157fe5b9060005260206000209060090201600001600360008a73ffffffffffffffffffffffffffffffffffffffff1673ffffffffffffffffffffffffffffffffffffffff16815260200190815260200160002060010188815481101515613e8157fe5b90600052602060002090600902016006015483600360008c73ffffffffffffffffffffffffffffffffffffffff1673ffffffffffffffffffffffffffffffffffffffff1681526020019081526020016000206001018a815481101515613ee357fe5b906000526020600020906009020160070154838054600181600116156101000203166002900480601f016020809104026020016040519081016040528092919081815260200182805460018160011615610100020316600290048015613f8a5780601f10613f5f57610100808354040283529160200191613f8a565b820191906000526020600020905b815481529060010190602001808311613f6d57829003601f168201915b505050505093509550955095509550505092959194509250565b61012060405190810160405280613fb961421a565b8152602001613fc661421a565b8152602001613fd361421a565b8152602001613fe061421a565b8152602001613fed61421a565b8152602001613ffa61421a565b81526020016000815260200160008019168152602001600080191681525090565b81548183558181151161404857600902816009028360005260206000209182019101614047919061422e565b5b505050565b828054600181600116156101000203166002900490600052602060002090601f016020900481019282601f1061408e57805160ff19168380011785556140bc565b828001600101855582156140bc579182015b828111156140bb5782518255916020019190600101906140a0565b5b5090506140c991906142c5565b5090565b602060405190810160405280600081525090565b828054600181600116156101000203166002900490600052602060002090601f016020900481019282601f1061411a5780548555614157565b8280016001018555821561415757600052602060002091601f016020900482015b8281111561415657825482559160010191906001019061413b565b5b50905061416491906142c5565b5090565b50805460018160011615610100020316600290046000825580601f1061418e57506141ad565b601f0160209004906000526020600020908101906141ac91906142c5565b5b50565b8154818355818115116141dd576009028160090283600052602060002091820191016141dc919061422e565b5b505050565b5080546000825560090290600052602060002090810190614203919061422e565b50565b602060405190810160405280600081525090565b602060405190810160405280600081525090565b6142c291905b808211156142be576000808201600061424d9190614168565b60018201600061425d9190614168565b60028201600061426d9190614168565b60038201600061427d9190614168565b60048201600061428d9190614168565b60058201600061429d9190614168565b60068201600090556007820160009055600882016000905550600901614234565b5090565b90565b6142e791905b808211156142e35760008160009055506001016142cb565b5090565b905600a165627a7a723058202a6cd20c7d0acad3fb48cb24e735b032488c4d0cfc43122fbb518ab6b72f3e960029",
  "source": "pragma solidity 0.4.19;\n\nimport \"./EthereumClaimsRegistryInterface.sol\";\nimport \"./PhysicalAddressClaim.sol\";\nimport \"./ERC20.sol\";\n\n\n// Checks -> Effects -> Interactions\ncontract ProofOfPhysicalAddress {\n    address public owner;\n    address public signer;\n    EthereumClaimsRegistryInterface public registry;\n\n    // Main structures:\n    struct PhysicalAddress {\n        string name;\n\n        string country;\n        string state;\n        string city;\n        string location;\n        string zip;\n\n        uint256 creationBlock;\n        bytes32 keccakIdentifier;\n        bytes32 confirmationCodeSha3;\n    }\n\n    function ProofOfPhysicalAddress(address _registry) public\n    {\n        owner = msg.sender;\n        signer = owner;\n        registry = EthereumClaimsRegistryInterface(_registry);\n    }\n\n    struct User {\n        uint256 creationBlock;\n        PhysicalAddress[] physicalAddresses;\n    }\n\n    mapping (address => User) public users;\n\n    // Stats:\n\n    uint64 public totalUsers;\n    uint64 public totalAddresses;\n    uint64 public totalConfirmed;\n\n    // Events:\n\n    event ClaimedTokens(address token, address to, uint256 amount);\n\n    // Modifiers:\n    modifier onlyOwner() {\n        require(msg.sender == owner);\n        _;\n    }\n\n    modifier checkUserExists(address wallet) {\n        require(userExists(wallet));\n        _;\n    }\n\n    // Helpers:\n    function signerIsValid(bytes32 data, uint8 v, bytes32 r, bytes32 s)\n    public constant returns (bool)\n    {\n        bytes memory prefix = \"\\x19Ethereum Signed Message:\\n32\";\n        bytes32 prefixed = keccak256(prefix, data);\n        return (ecrecover(prefixed, v, r, s) == signer);\n    }\n\n    // Methods:\n    // set address that is used on server-side to calculate signatures\n    // and on contract-side to verify them\n    function setSigner(address newSigner) public onlyOwner {\n        signer = newSigner;\n    }\n\n    function setRegistry(address newRegistry) public onlyOwner {\n        registry = EthereumClaimsRegistryInterface(newRegistry);\n    }\n\n    // withdraw specified amount of eth in wei\n    function withdrawSome(uint256 amountWei)\n    public onlyOwner\n    {\n        require(address(this).balance >= amountWei);\n        owner.transfer(amountWei);\n    }\n\n    // withdraw all available eth\n    function withdrawAll()\n    public onlyOwner\n    {\n        require(address(this).balance > 0);\n        owner.transfer(address(this).balance);\n    }\n\n    function userExists(address wallet)\n    public constant returns (bool)\n    {\n        return (users[wallet].creationBlock > 0);\n    }\n\n    function userAddressConfirmed(address wallet, uint256 addressIndex)\n    public constant checkUserExists(wallet) returns (bool)\n    {\n        bytes32 keccakIdentifier = users[wallet].physicalAddresses[addressIndex].keccakIdentifier;\n\n        if (keccakIdentifier == 0x0) {\n            return false;\n        }\n\n        return PhysicalAddressClaim.decodeConfirmation(registry.getClaim(address(this), wallet, keccakIdentifier)) > 0;\n    }\n\n    // returns (found/not found, index if found/0 if not found, confirmed/not confirmed)\n    function userAddressByCreationBlock(address wallet, uint256 creationBlock)\n    public constant checkUserExists(wallet) returns (bool, uint256, bool)\n    {\n        for (uint256 ai = 0; ai < users[wallet].physicalAddresses.length; ai++) {\n            if (users[wallet].physicalAddresses[ai].creationBlock == creationBlock) {\n                return (true, ai, userAddressConfirmed(wallet, ai));\n            }\n        }\n        return (false, 0, false);\n    }\n\n    // returns (found/not found, index if found/0 if not found, confirmed/not confirmed)\n    function userAddressByConfirmationCode(\n        address wallet,\n        bytes32 confirmationCodeSha3\n    )\n        public\n        constant\n        checkUserExists(wallet)\n        returns(bool, uint256, bool, bytes32)\n    {\n        for (uint256 ai = 0; ai < users[wallet].physicalAddresses.length; ai++) {\n            if (users[wallet].physicalAddresses[ai].confirmationCodeSha3 == confirmationCodeSha3) {\n                return (\n                    true,\n                    ai,\n                    userAddressConfirmed(wallet, ai),\n                    users[wallet].physicalAddresses[ai].keccakIdentifier\n                );\n            }\n        }\n        return (false, 0, false, 0x0);\n    }\n\n    // returns (found/not found, index if found/0 if not found, confirmed/not confirmed)\n    function userAddressByAddress(address wallet, string country, string state, string city, string location, string zip)\n    public constant checkUserExists(wallet) returns(bool, uint256, bool)\n    {\n        bytes32 keccakIdentifier = keccak256(country, state, city, location, zip);\n        for (uint256 ai = 0; ai < users[wallet].physicalAddresses.length; ai++) {\n            if (users[wallet].physicalAddresses[ai].keccakIdentifier == keccakIdentifier) {\n                return (true, ai, userAddressConfirmed(wallet, ai));\n            }\n        }\n        return (false, 0, false);\n    }\n\n    // returns last name submitted to PoPA contract\n    function userLastSubmittedName(address wallet)\n    public constant checkUserExists(wallet) returns (string)\n    {\n        return users[wallet].physicalAddresses[users[wallet].physicalAddresses.length-1].name;\n    }\n\n    // returns name from the last confirmed address. If no addresses were confirmed returns ''\n    function userLastConfirmedName(address wallet)\n    public constant checkUserExists(wallet) returns (string)\n    {\n        for (uint256 ai = users[wallet].physicalAddresses.length; ai > 0;) {\n            ai--;\n            if (userAddressConfirmed(wallet, ai)) {\n                return users[wallet].physicalAddresses[ai].name;\n            }\n        }\n        return \"\";\n    }\n\n    // returns how many addresses there are in PoPA contract. If user does not exist, returns 0\n    function userSubmittedAddressesCount(address wallet)\n    public constant returns (uint256)\n    {\n        return users[wallet].physicalAddresses.length;\n    }\n\n    // returns how many addresses from PoPA contract are confirmed. If user does not exist, returns 0\n    function userConfirmedAddressesCount(address wallet)\n    public constant returns (uint256)\n    {\n        uint256 c = 0;\n        for (uint256 ai = 0; ai < users[wallet].physicalAddresses.length; ai++) {\n            if (userAddressConfirmed(wallet, ai)) {\n                c += 1;\n            }\n        }\n        return c;\n    }\n\n    function userAddress(address wallet, uint256 addressIndex)\n    public constant checkUserExists(wallet) returns (\n        string country, string state, string city, string location, string zip)\n    {\n        return (\n            users[wallet].physicalAddresses[addressIndex].country,\n            users[wallet].physicalAddresses[addressIndex].state,\n            users[wallet].physicalAddresses[addressIndex].city,\n            users[wallet].physicalAddresses[addressIndex].location,\n            users[wallet].physicalAddresses[addressIndex].zip\n        );\n    }\n\n    function userAddressInfo(address wallet, uint256 addressIndex)\n    public constant checkUserExists(wallet) returns (\n        string name,\n        uint256 creationBlock,\n        uint256 confirmationBlock,\n        bytes32 keccakIdentifier\n    ) {\n        uint256 _confirmationBlock = PhysicalAddressClaim.decodeConfirmation(registry.getClaim(\n            address(this),\n            wallet,\n            users[wallet].physicalAddresses[addressIndex].keccakIdentifier)\n        );\n        return (\n            users[wallet].physicalAddresses[addressIndex].name,\n            users[wallet].physicalAddresses[addressIndex].creationBlock,\n            _confirmationBlock,\n            users[wallet].physicalAddresses[addressIndex].keccakIdentifier\n        );\n    }\n\n    // Main methods:\n    function registerAddress(\n        string name,\n        string country, string state, string city, string location, string zip,\n        uint256 priceWei,\n        bytes32 confirmationCodeSha3, uint8 sigV, bytes32 sigR, bytes32 sigS)\n    public payable\n    {\n        require(bytes(name).length > 0);\n        require(bytes(country).length > 0);\n        require(bytes(state).length > 0);\n        require(bytes(city).length > 0);\n        require(bytes(location).length > 0);\n        require(bytes(zip).length > 0);\n        require(msg.value >= priceWei);\n\n        bytes32 data = keccak256(\n            msg.sender,\n            name,\n            country,\n            state,\n            city,\n            location,\n            zip,\n            priceWei,\n            confirmationCodeSha3\n        );\n        require(signerIsValid(data, sigV, sigR, sigS));\n\n        if (userExists(msg.sender)) {\n            // check if this address is already registered\n            bool found;\n            (found, , ) = userAddressByAddress(msg.sender, country, state, city, location, zip);\n\n            require(!found);\n        } else {\n            // new user\n            users[msg.sender].creationBlock = block.number;\n\n            totalUsers += 1;\n        }\n\n        PhysicalAddress memory pa;\n\n        pa.name = name;\n        pa.country = country;\n        pa.state = state;\n        pa.city = city;\n        pa.location = location;\n        pa.zip = zip;\n        pa.creationBlock = block.number;\n        pa.confirmationCodeSha3 = confirmationCodeSha3;\n        pa.keccakIdentifier = keccak256(country, state, city, location, zip);\n        users[msg.sender].physicalAddresses.push(pa);\n\n        totalAddresses += 1;\n    }\n\n    function unregisterAddress(string country, string state, string city, string location, string zip)\n        public checkUserExists(msg.sender)\n    {\n        bool found;\n        uint256 index;\n        (found, index, ) = userAddressByAddress(msg.sender, country, state, city, location, zip);\n        require(found);\n\n        registry.removeClaim(\n            address(this),\n            msg.sender,\n            users[msg.sender].physicalAddresses[index].keccakIdentifier\n        );\n\n        // Remove physical address from list\n        uint256 length = users[msg.sender].physicalAddresses.length;\n\n        for (uint256 i = index; i < length - 1; i++) {\n            users[msg.sender].physicalAddresses[i] = users[msg.sender].physicalAddresses[i+1];\n        }\n\n        delete users[msg.sender].physicalAddresses[length - 1];\n        users[msg.sender].physicalAddresses.length--;\n\n        if (users[msg.sender].physicalAddresses.length == 0) {\n            delete users[msg.sender];\n        }\n    }\n\n    function confirmAddress(string confirmationCodePlain, uint8 sigV, bytes32 sigR, bytes32 sigS)\n    public checkUserExists(msg.sender)\n    {\n        require(bytes(confirmationCodePlain).length > 0);\n\n        bytes32 data = keccak256(\n            msg.sender,\n            confirmationCodePlain\n        );\n        require(signerIsValid(data, sigV, sigR, sigS));\n\n        bool found;\n        uint ai;\n        bool confirmed;\n        bytes32 keccakIdentifier;\n        (found, ai, confirmed, keccakIdentifier) = userAddressByConfirmationCode(\n            msg.sender,\n            keccak256(confirmationCodePlain)\n        );\n        require(found);\n        require(!confirmed);\n\n        registry.setClaim(msg.sender, keccakIdentifier, PhysicalAddressClaim.encode(block.number));\n        totalConfirmed += 1;\n    }\n\n    function claimTokens(address _token, address _to) public onlyOwner {\n        require(_token != address(0));\n        require(_to != address(0));\n\n        ERC20 token = ERC20(_token);\n        uint256 balance = token.balanceOf(this);\n        token.transfer(_to, balance);\n        ClaimedTokens(_token, _to, balance);\n    }\n}\n",
  "sourcePath": "/home/fvictorio/repos/poa-popa/blockchain/contracts/ProofOfPhysicalAddress.sol",
  "compiler": {
    "name": "solc",
    "version": "0.4.19+commit.c4cbbb05.Emscripten.clang"
  },
  "schemaVersion": "1.0.1",
  "updatedAt": "2018-05-16T15:31:07.465Z"
}