{
  "contractName": "ProofOfPhysicalAddress",
  "abi": [
    {
      "constant": true,
      "inputs": [],
      "name": "signer",
      "outputs": [
        {
          "name": "",
          "type": "address"
        }
      ],
      "payable": false,
      "stateMutability": "view",
      "type": "function"
    },
    {
      "constant": true,
      "inputs": [],
      "name": "totalConfirmed",
      "outputs": [
        {
          "name": "",
          "type": "uint64"
        }
      ],
      "payable": false,
      "stateMutability": "view",
      "type": "function"
    },
    {
      "constant": true,
      "inputs": [],
      "name": "registry",
      "outputs": [
        {
          "name": "",
          "type": "address"
        }
      ],
      "payable": false,
      "stateMutability": "view",
      "type": "function"
    },
    {
      "constant": true,
      "inputs": [],
      "name": "owner",
      "outputs": [
        {
          "name": "",
          "type": "address"
        }
      ],
      "payable": false,
      "stateMutability": "view",
      "type": "function"
    },
    {
      "constant": true,
      "inputs": [
        {
          "name": "",
          "type": "address"
        }
      ],
      "name": "users",
      "outputs": [
        {
          "name": "creationBlock",
          "type": "uint256"
        }
      ],
      "payable": false,
      "stateMutability": "view",
      "type": "function"
    },
    {
      "constant": true,
      "inputs": [],
      "name": "totalUsers",
      "outputs": [
        {
          "name": "",
          "type": "uint64"
        }
      ],
      "payable": false,
      "stateMutability": "view",
      "type": "function"
    },
    {
      "constant": true,
      "inputs": [],
      "name": "totalAddresses",
      "outputs": [
        {
          "name": "",
          "type": "uint64"
        }
      ],
      "payable": false,
      "stateMutability": "view",
      "type": "function"
    },
    {
      "inputs": [
        {
          "name": "_registry",
          "type": "address"
        }
      ],
      "payable": false,
      "stateMutability": "nonpayable",
      "type": "constructor"
    },
    {
      "anonymous": false,
      "inputs": [
        {
          "indexed": false,
          "name": "newSigner",
          "type": "address"
        }
      ],
      "name": "LogSignerChanged",
      "type": "event"
    },
    {
      "anonymous": false,
      "inputs": [
        {
          "indexed": false,
          "name": "newRegistry",
          "type": "address"
        }
      ],
      "name": "LogRegistryChanged",
      "type": "event"
    },
    {
      "anonymous": false,
      "inputs": [
        {
          "indexed": true,
          "name": "wallet",
          "type": "address"
        },
        {
          "indexed": false,
          "name": "keccakIdentifier",
          "type": "bytes32"
        }
      ],
      "name": "LogAddressRegistered",
      "type": "event"
    },
    {
      "anonymous": false,
      "inputs": [
        {
          "indexed": true,
          "name": "wallet",
          "type": "address"
        },
        {
          "indexed": false,
          "name": "keccakIdentifier",
          "type": "bytes32"
        }
      ],
      "name": "LogAddressUnregistered",
      "type": "event"
    },
    {
      "anonymous": false,
      "inputs": [
        {
          "indexed": true,
          "name": "wallet",
          "type": "address"
        },
        {
          "indexed": false,
          "name": "keccakIdentifier",
          "type": "bytes32"
        }
      ],
      "name": "LogAddressConfirmed",
      "type": "event"
    },
    {
      "anonymous": false,
      "inputs": [
        {
          "indexed": false,
          "name": "token",
          "type": "address"
        },
        {
          "indexed": false,
          "name": "to",
          "type": "address"
        },
        {
          "indexed": false,
          "name": "amount",
          "type": "uint256"
        }
      ],
      "name": "LogClaimedTokens",
      "type": "event"
    },
    {
      "constant": true,
      "inputs": [
        {
          "name": "data",
          "type": "bytes32"
        },
        {
          "name": "v",
          "type": "uint8"
        },
        {
          "name": "r",
          "type": "bytes32"
        },
        {
          "name": "s",
          "type": "bytes32"
        }
      ],
      "name": "signerIsValid",
      "outputs": [
        {
          "name": "",
          "type": "bool"
        }
      ],
      "payable": false,
      "stateMutability": "view",
      "type": "function"
    },
    {
      "constant": false,
      "inputs": [
        {
          "name": "newSigner",
          "type": "address"
        }
      ],
      "name": "setSigner",
      "outputs": [],
      "payable": false,
      "stateMutability": "nonpayable",
      "type": "function"
    },
    {
      "constant": false,
      "inputs": [
        {
          "name": "newRegistry",
          "type": "address"
        }
      ],
      "name": "setRegistry",
      "outputs": [],
      "payable": false,
      "stateMutability": "nonpayable",
      "type": "function"
    },
    {
      "constant": false,
      "inputs": [
        {
          "name": "amountWei",
          "type": "uint256"
        }
      ],
      "name": "withdrawSome",
      "outputs": [],
      "payable": false,
      "stateMutability": "nonpayable",
      "type": "function"
    },
    {
      "constant": false,
      "inputs": [],
      "name": "withdrawAll",
      "outputs": [],
      "payable": false,
      "stateMutability": "nonpayable",
      "type": "function"
    },
    {
      "constant": true,
      "inputs": [
        {
          "name": "wallet",
          "type": "address"
        }
      ],
      "name": "userExists",
      "outputs": [
        {
          "name": "",
          "type": "bool"
        }
      ],
      "payable": false,
      "stateMutability": "view",
      "type": "function"
    },
    {
      "constant": true,
      "inputs": [
        {
          "name": "wallet",
          "type": "address"
        },
        {
          "name": "addressIndex",
          "type": "uint256"
        }
      ],
      "name": "userAddressConfirmed",
      "outputs": [
        {
          "name": "",
          "type": "bool"
        }
      ],
      "payable": false,
      "stateMutability": "view",
      "type": "function"
    },
    {
      "constant": true,
      "inputs": [
        {
          "name": "wallet",
          "type": "address"
        },
        {
          "name": "creationBlock",
          "type": "uint256"
        }
      ],
      "name": "userAddressByCreationBlock",
      "outputs": [
        {
          "name": "",
          "type": "bool"
        },
        {
          "name": "",
          "type": "uint256"
        },
        {
          "name": "",
          "type": "bool"
        }
      ],
      "payable": false,
      "stateMutability": "view",
      "type": "function"
    },
    {
      "constant": true,
      "inputs": [
        {
          "name": "wallet",
          "type": "address"
        },
        {
          "name": "confirmationCodeSha3",
          "type": "bytes32"
        }
      ],
      "name": "userAddressByConfirmationCode",
      "outputs": [
        {
          "name": "",
          "type": "bool"
        },
        {
          "name": "",
          "type": "uint256"
        },
        {
          "name": "",
          "type": "bool"
        },
        {
          "name": "",
          "type": "bytes32"
        }
      ],
      "payable": false,
      "stateMutability": "view",
      "type": "function"
    },
    {
      "constant": true,
      "inputs": [
        {
          "name": "wallet",
          "type": "address"
        },
        {
          "name": "country",
          "type": "string"
        },
        {
          "name": "state",
          "type": "string"
        },
        {
          "name": "city",
          "type": "string"
        },
        {
          "name": "location",
          "type": "string"
        },
        {
          "name": "zip",
          "type": "string"
        }
      ],
      "name": "userAddressByAddress",
      "outputs": [
        {
          "name": "",
          "type": "bool"
        },
        {
          "name": "",
          "type": "uint256"
        },
        {
          "name": "",
          "type": "bool"
        }
      ],
      "payable": false,
      "stateMutability": "view",
      "type": "function"
    },
    {
      "constant": true,
      "inputs": [
        {
          "name": "wallet",
          "type": "address"
        },
        {
          "name": "keccakIdentifier",
          "type": "bytes32"
        }
      ],
      "name": "userAddressByKeccakIdentifier",
      "outputs": [
        {
          "name": "",
          "type": "bool"
        },
        {
          "name": "",
          "type": "uint256"
        },
        {
          "name": "",
          "type": "bool"
        }
      ],
      "payable": false,
      "stateMutability": "view",
      "type": "function"
    },
    {
      "constant": true,
      "inputs": [
        {
          "name": "wallet",
          "type": "address"
        }
      ],
      "name": "userLastSubmittedName",
      "outputs": [
        {
          "name": "",
          "type": "string"
        }
      ],
      "payable": false,
      "stateMutability": "view",
      "type": "function"
    },
    {
      "constant": true,
      "inputs": [
        {
          "name": "wallet",
          "type": "address"
        }
      ],
      "name": "userLastConfirmedName",
      "outputs": [
        {
          "name": "",
          "type": "string"
        }
      ],
      "payable": false,
      "stateMutability": "view",
      "type": "function"
    },
    {
      "constant": true,
      "inputs": [
        {
          "name": "wallet",
          "type": "address"
        }
      ],
      "name": "userSubmittedAddressesCount",
      "outputs": [
        {
          "name": "",
          "type": "uint256"
        }
      ],
      "payable": false,
      "stateMutability": "view",
      "type": "function"
    },
    {
      "constant": true,
      "inputs": [
        {
          "name": "wallet",
          "type": "address"
        }
      ],
      "name": "userConfirmedAddressesCount",
      "outputs": [
        {
          "name": "",
          "type": "uint256"
        }
      ],
      "payable": false,
      "stateMutability": "view",
      "type": "function"
    },
    {
      "constant": true,
      "inputs": [
        {
          "name": "wallet",
          "type": "address"
        },
        {
          "name": "addressIndex",
          "type": "uint256"
        }
      ],
      "name": "userAddress",
      "outputs": [
        {
          "name": "country",
          "type": "string"
        },
        {
          "name": "state",
          "type": "string"
        },
        {
          "name": "city",
          "type": "string"
        },
        {
          "name": "location",
          "type": "string"
        },
        {
          "name": "zip",
          "type": "string"
        }
      ],
      "payable": false,
      "stateMutability": "view",
      "type": "function"
    },
    {
      "constant": true,
      "inputs": [
        {
          "name": "wallet",
          "type": "address"
        },
        {
          "name": "addressIndex",
          "type": "uint256"
        }
      ],
      "name": "userAddressInfo",
      "outputs": [
        {
          "name": "name",
          "type": "string"
        },
        {
          "name": "creationBlock",
          "type": "uint256"
        },
        {
          "name": "confirmationBlock",
          "type": "uint256"
        },
        {
          "name": "keccakIdentifier",
          "type": "bytes32"
        }
      ],
      "payable": false,
      "stateMutability": "view",
      "type": "function"
    },
    {
      "constant": false,
      "inputs": [
        {
          "name": "name",
          "type": "string"
        },
        {
          "name": "country",
          "type": "string"
        },
        {
          "name": "state",
          "type": "string"
        },
        {
          "name": "city",
          "type": "string"
        },
        {
          "name": "location",
          "type": "string"
        },
        {
          "name": "zip",
          "type": "string"
        },
        {
          "name": "priceWei",
          "type": "uint256"
        },
        {
          "name": "confirmationCodeSha3",
          "type": "bytes32"
        },
        {
          "name": "sigV",
          "type": "uint8"
        },
        {
          "name": "sigR",
          "type": "bytes32"
        },
        {
          "name": "sigS",
          "type": "bytes32"
        }
      ],
      "name": "registerAddress",
      "outputs": [],
      "payable": true,
      "stateMutability": "payable",
      "type": "function"
    },
    {
      "constant": false,
      "inputs": [
        {
          "name": "country",
          "type": "string"
        },
        {
          "name": "state",
          "type": "string"
        },
        {
          "name": "city",
          "type": "string"
        },
        {
          "name": "location",
          "type": "string"
        },
        {
          "name": "zip",
          "type": "string"
        }
      ],
      "name": "unregisterAddress",
      "outputs": [],
      "payable": false,
      "stateMutability": "nonpayable",
      "type": "function"
    },
    {
      "constant": false,
      "inputs": [
        {
          "name": "confirmationCodePlain",
          "type": "string"
        },
        {
          "name": "sigV",
          "type": "uint8"
        },
        {
          "name": "sigR",
          "type": "bytes32"
        },
        {
          "name": "sigS",
          "type": "bytes32"
        }
      ],
      "name": "confirmAddress",
      "outputs": [],
      "payable": false,
      "stateMutability": "nonpayable",
      "type": "function"
    },
    {
      "constant": false,
      "inputs": [
        {
          "name": "_token",
          "type": "address"
        },
        {
          "name": "_to",
          "type": "address"
        }
      ],
      "name": "claimTokens",
      "outputs": [],
      "payable": false,
      "stateMutability": "nonpayable",
      "type": "function"
    }
  ],
  "bytecode": "0x6060604052341561000f57600080fd5b6040516020806146b283398101604052808051906020019091905050336000806101000a81548173ffffffffffffffffffffffffffffffffffffffff021916908373ffffffffffffffffffffffffffffffffffffffff1602179055506000809054906101000a900473ffffffffffffffffffffffffffffffffffffffff16600160006101000a81548173ffffffffffffffffffffffffffffffffffffffff021916908373ffffffffffffffffffffffffffffffffffffffff16021790555080600260006101000a81548173ffffffffffffffffffffffffffffffffffffffff021916908373ffffffffffffffffffffffffffffffffffffffff160217905550506145948061011e6000396000f30060606040526004361061016a576000357c0100000000000000000000000000000000000000000000000000000000900463ffffffff168063058317761461016f5780630e666e49146101db578063238ac9331461022c5780632c2a178e146102815780634028a0f11461045e57806369ffa08a1461049b5780636c19e783146104f35780637b1039991461052c578063853828b61461058157806389bff0b9146105965780638da5cb5b14610606578063a5db3d021461065b578063a87430ba146106de578063a91ee0dc1461072b578063ae9b051c14610764578063b4778e2d14610787578063b55fbd04146109f2578063bff1f9e114610aa4578063c0fe077f14610ae1578063c228251b14610b60578063c94f2c1b14610cc9578063cfad527714610d16578063d673560414610d53578063d956be1014610e05578063de3d702e14610e6a578063e585332e14610eb7578063f0486ab414611069578063feea9808146110c3575b600080fd5b341561017a57600080fd5b6101af600480803573ffffffffffffffffffffffffffffffffffffffff1690602001909190803590602001909190505061119b565b604051808415151515815260200183815260200182151515158152602001935050505060405180910390f35b34156101e657600080fd5b610212600480803573ffffffffffffffffffffffffffffffffffffffff169060200190919050506112ad565b604051808215151515815260200191505060405180910390f35b341561023757600080fd5b61023f6112fb565b604051808273ffffffffffffffffffffffffffffffffffffffff1673ffffffffffffffffffffffffffffffffffffffff16815260200191505060405180910390f35b61045c600480803590602001908201803590602001908080601f0160208091040260200160405190810160405280939291908181526020018383808284378201915050505050509190803590602001908201803590602001908080601f0160208091040260200160405190810160405280939291908181526020018383808284378201915050505050509190803590602001908201803590602001908080601f0160208091040260200160405190810160405280939291908181526020018383808284378201915050505050509190803590602001908201803590602001908080601f0160208091040260200160405190810160405280939291908181526020018383808284378201915050505050509190803590602001908201803590602001908080601f0160208091040260200160405190810160405280939291908181526020018383808284378201915050505050509190803590602001908201803590602001908080601f016020809104026020016040519081016040528093929190818152602001838380828437820191505050505050919080359060200190919080356000191690602001909190803560ff169060200190919080356000191690602001909190803560001916906020019091905050611321565b005b341561046957600080fd5b610471611aed565b604051808267ffffffffffffffff1667ffffffffffffffff16815260200191505060405180910390f35b34156104a657600080fd5b6104f1600480803573ffffffffffffffffffffffffffffffffffffffff1690602001909190803573ffffffffffffffffffffffffffffffffffffffff16906020019091905050611b07565b005b34156104fe57600080fd5b61052a600480803573ffffffffffffffffffffffffffffffffffffffff16906020019091905050611e0c565b005b341561053757600080fd5b61053f611f0e565b604051808273ffffffffffffffffffffffffffffffffffffffff1673ffffffffffffffffffffffffffffffffffffffff16815260200191505060405180910390f35b341561058c57600080fd5b610594611f34565b005b34156105a157600080fd5b6105da600480803573ffffffffffffffffffffffffffffffffffffffff169060200190919080356000191690602001909190505061202f565b604051808415151515815260200183815260200182151515158152602001935050505060405180910390f35b341561061157600080fd5b610619612149565b604051808273ffffffffffffffffffffffffffffffffffffffff1673ffffffffffffffffffffffffffffffffffffffff16815260200191505060405180910390f35b341561066657600080fd5b6106dc600480803590602001908201803590602001908080601f0160208091040260200160405190810160405280939291908181526020018383808284378201915050505050509190803560ff16906020019091908035600019169060200190919080356000191690602001909190505061216e565b005b34156106e957600080fd5b610715600480803573ffffffffffffffffffffffffffffffffffffffff16906020019091905050612511565b6040518082815260200191505060405180910390f35b341561073657600080fd5b610762600480803573ffffffffffffffffffffffffffffffffffffffff1690602001909190505061252f565b005b341561076f57600080fd5b6107856004808035906020019091905050612631565b005b341561079257600080fd5b6107c7600480803573ffffffffffffffffffffffffffffffffffffffff16906020019091908035906020019091905050612716565b60405180806020018060200180602001806020018060200186810386528b818151815260200191508051906020019080838360005b838110156108175780820151818401526020810190506107fc565b50505050905090810190601f1680156108445780820380516001836020036101000a031916815260200191505b5086810385528a818151815260200191508051906020019080838360005b8381101561087d578082015181840152602081019050610862565b50505050905090810190601f1680156108aa5780820380516001836020036101000a031916815260200191505b50868103845289818151815260200191508051906020019080838360005b838110156108e35780820151818401526020810190506108c8565b50505050905090810190601f1680156109105780820380516001836020036101000a031916815260200191505b50868103835288818151815260200191508051906020019080838360005b8381101561094957808201518184015260208101905061092e565b50505050905090810190601f1680156109765780820380516001836020036101000a031916815260200191505b50868103825287818151815260200191508051906020019080838360005b838110156109af578082015181840152602081019050610994565b50505050905090810190601f1680156109dc5780820380516001836020036101000a031916815260200191505b509a505050505050505050505060405180910390f35b34156109fd57600080fd5b610a29600480803573ffffffffffffffffffffffffffffffffffffffff16906020019091905050612c54565b6040518080602001828103825283818151815260200191508051906020019080838360005b83811015610a69578082015181840152602081019050610a4e565b50505050905090810190601f168015610a965780820380516001836020036101000a031916815260200191505b509250505060405180910390f35b3415610aaf57600080fd5b610ab7612dfd565b604051808267ffffffffffffffff1667ffffffffffffffff16815260200191505060405180910390f35b3415610aec57600080fd5b610b25600480803573ffffffffffffffffffffffffffffffffffffffff1690602001909190803560001916906020019091905050612e17565b604051808515151515815260200184815260200183151515158152602001826000191660001916815260200194505050505060405180910390f35b3415610b6b57600080fd5b610cc7600480803590602001908201803590602001908080601f0160208091040260200160405190810160405280939291908181526020018383808284378201915050505050509190803590602001908201803590602001908080601f0160208091040260200160405190810160405280939291908181526020018383808284378201915050505050509190803590602001908201803590602001908080601f0160208091040260200160405190810160405280939291908181526020018383808284378201915050505050509190803590602001908201803590602001908080601f0160208091040260200160405190810160405280939291908181526020018383808284378201915050505050509190803590602001908201803590602001908080601f01602080910402602001604051908101604052809392919081815260200183838082843782019150505050505091905050612fa1565b005b3415610cd457600080fd5b610d00600480803573ffffffffffffffffffffffffffffffffffffffff169060200190919050506135d3565b6040518082815260200191505060405180910390f35b3415610d2157600080fd5b610d2961365a565b604051808267ffffffffffffffff1667ffffffffffffffff16815260200191505060405180910390f35b3415610d5e57600080fd5b610d8a600480803573ffffffffffffffffffffffffffffffffffffffff16906020019091905050613674565b6040518080602001828103825283818151815260200191508051906020019080838360005b83811015610dca578082015181840152602081019050610daf565b50505050905090810190601f168015610df75780820380516001836020036101000a031916815260200191505b509250505060405180910390f35b3415610e1057600080fd5b610e5060048080356000191690602001909190803560ff1690602001909190803560001916906020019091908035600019169060200190919050506137da565b604051808215151515815260200191505060405180910390f35b3415610e7557600080fd5b610ea1600480803573ffffffffffffffffffffffffffffffffffffffff16906020019091905050613976565b6040518082815260200191505060405180910390f35b3415610ec257600080fd5b61103d600480803573ffffffffffffffffffffffffffffffffffffffff1690602001909190803590602001908201803590602001908080601f0160208091040260200160405190810160405280939291908181526020018383808284378201915050505050509190803590602001908201803590602001908080601f0160208091040260200160405190810160405280939291908181526020018383808284378201915050505050509190803590602001908201803590602001908080601f0160208091040260200160405190810160405280939291908181526020018383808284378201915050505050509190803590602001908201803590602001908080601f0160208091040260200160405190810160405280939291908181526020018383808284378201915050505050509190803590602001908201803590602001908080601f016020809104026020016040519081016040528093929190818152602001838380828437820191505050505050919050506139c5565b604051808415151515815260200183815260200182151515158152602001935050505060405180910390f35b341561107457600080fd5b6110a9600480803573ffffffffffffffffffffffffffffffffffffffff16906020019091908035906020019091905050613bb7565b604051808215151515815260200191505060405180910390f35b34156110ce57600080fd5b611103600480803573ffffffffffffffffffffffffffffffffffffffff16906020019091908035906020019091905050613e12565b60405180806020018581526020018481526020018360001916600019168152602001828103825286818151815260200191508051906020019080838360005b8381101561115d578082015181840152602081019050611142565b50505050905090810190601f16801561118a5780820380516001836020036101000a031916815260200191505b509550505050505060405180910390f35b600080600080856111ab816112ad565b15156111b657600080fd5b600091505b600360008873ffffffffffffffffffffffffffffffffffffffff1673ffffffffffffffffffffffffffffffffffffffff168152602001908152602001600020600101805490508210156112955785600360008973ffffffffffffffffffffffffffffffffffffffff1673ffffffffffffffffffffffffffffffffffffffff1681526020019081526020016000206001018381548110151561125857fe5b90600052602060002090600902016006015414156112885760018261127d8985613bb7565b9450945094506112a4565b81806001019250506111bb565b60008060008191509450945094505b50509250925092565b600080600360008473ffffffffffffffffffffffffffffffffffffffff1673ffffffffffffffffffffffffffffffffffffffff16815260200190815260200160002060000154119050919050565b600160009054906101000a900473ffffffffffffffffffffffffffffffffffffffff1681565b60008061132c614222565b60008e5111151561133c57600080fd5b60008d5111151561134c57600080fd5b60008c5111151561135c57600080fd5b60008b5111151561136c57600080fd5b60008a5111151561137c57600080fd5b6000895111151561138c57600080fd5b87341015151561139b57600080fd5b338e8e8e8e8e8e8e8e604051808a73ffffffffffffffffffffffffffffffffffffffff1673ffffffffffffffffffffffffffffffffffffffff166c0100000000000000000000000002815260140189805190602001908083835b60208310151561141a57805182526020820191506020810190506020830392506113f5565b6001836020036101000a03801982511681845116808217855250505050505090500188805190602001908083835b60208310151561146d5780518252602082019150602081019050602083039250611448565b6001836020036101000a03801982511681845116808217855250505050505090500187805190602001908083835b6020831015156114c0578051825260208201915060208101905060208303925061149b565b6001836020036101000a03801982511681845116808217855250505050505090500186805190602001908083835b60208310151561151357805182526020820191506020810190506020830392506114ee565b6001836020036101000a03801982511681845116808217855250505050505090500185805190602001908083835b6020831015156115665780518252602082019150602081019050602083039250611541565b6001836020036101000a03801982511681845116808217855250505050505090500184805190602001908083835b6020831015156115b95780518252602082019150602081019050602083039250611594565b6001836020036101000a0380198251168184511680821785525050505050509050018381526020018260001916600019168152602001995050505050505050505060405180910390209250611610838787876137da565b151561161b57600080fd5b611624336112ad565b1561165057611637338e8e8e8e8e6139c5565b905050809250508115151561164b57600080fd5b6116db565b43600360003373ffffffffffffffffffffffffffffffffffffffff1673ffffffffffffffffffffffffffffffffffffffff168152602001908152602001600020600001819055506001600460008282829054906101000a900467ffffffffffffffff160192506101000a81548167ffffffffffffffff021916908367ffffffffffffffff1602179055505b8d81600001819052508c81602001819052508b81604001819052508a8160600181905250898160800181905250888160a00181905250438160c00181815250508681610100019060001916908160001916815250508c8c8c8c8c6040518086805190602001908083835b60208310151561176a5780518252602082019150602081019050602083039250611745565b6001836020036101000a03801982511681845116808217855250505050505090500185805190602001908083835b6020831015156117bd5780518252602082019150602081019050602083039250611798565b6001836020036101000a03801982511681845116808217855250505050505090500184805190602001908083835b60208310151561181057805182526020820191506020810190506020830392506117eb565b6001836020036101000a03801982511681845116808217855250505050505090500183805190602001908083835b602083101515611863578051825260208201915060208101905060208303925061183e565b6001836020036101000a03801982511681845116808217855250505050505090500182805190602001908083835b6020831015156118b65780518252602082019150602081019050602083039250611891565b6001836020036101000a0380198251168184511680821785525050505050509050019550505050505060405180910390208160e001906000191690816000191681525050600360003373ffffffffffffffffffffffffffffffffffffffff1673ffffffffffffffffffffffffffffffffffffffff168152602001908152602001600020600101805480600101828161194e9190614299565b9160005260206000209060090201600083909190915060008201518160000190805190602001906119809291906142cb565b50602082015181600101908051906020019061199d9291906142cb565b5060408201518160020190805190602001906119ba9291906142cb565b5060608201518160030190805190602001906119d79291906142cb565b5060808201518160040190805190602001906119f49291906142cb565b5060a0820151816005019080519060200190611a119291906142cb565b5060c0820151816006015560e0820151816007019060001916905561010082015181600801906000191690555050506001600460088282829054906101000a900467ffffffffffffffff160192506101000a81548167ffffffffffffffff021916908367ffffffffffffffff1602179055503373ffffffffffffffffffffffffffffffffffffffff167fe7c91dadc713049bfb35a5b137524bc4546369091366d48bb185433127b9f26b8260e0015160405180826000191660001916815260200191505060405180910390a25050505050505050505050505050565b600460109054906101000a900467ffffffffffffffff1681565b6000806000809054906101000a900473ffffffffffffffffffffffffffffffffffffffff1673ffffffffffffffffffffffffffffffffffffffff163373ffffffffffffffffffffffffffffffffffffffff16141515611b6557600080fd5b600073ffffffffffffffffffffffffffffffffffffffff168473ffffffffffffffffffffffffffffffffffffffff1614151515611ba157600080fd5b600073ffffffffffffffffffffffffffffffffffffffff168373ffffffffffffffffffffffffffffffffffffffff1614151515611bdd57600080fd5b8391508173ffffffffffffffffffffffffffffffffffffffff166370a08231306000604051602001526040518263ffffffff167c0100000000000000000000000000000000000000000000000000000000028152600401808273ffffffffffffffffffffffffffffffffffffffff1673ffffffffffffffffffffffffffffffffffffffff168152602001915050602060405180830381600087803b1515611c8357600080fd5b6102c65a03f11515611c9457600080fd5b5050506040518051905090508173ffffffffffffffffffffffffffffffffffffffff1663a9059cbb84836000604051602001526040518363ffffffff167c0100000000000000000000000000000000000000000000000000000000028152600401808373ffffffffffffffffffffffffffffffffffffffff1673ffffffffffffffffffffffffffffffffffffffff16815260200182815260200192505050602060405180830381600087803b1515611d4b57600080fd5b6102c65a03f11515611d5c57600080fd5b50505060405180519050507fbade9c303f5a400b6706b3cbea82197948f018cd82138ea9bafcada571831967848483604051808473ffffffffffffffffffffffffffffffffffffffff1673ffffffffffffffffffffffffffffffffffffffff1681526020018373ffffffffffffffffffffffffffffffffffffffff1673ffffffffffffffffffffffffffffffffffffffff168152602001828152602001935050505060405180910390a150505050565b6000809054906101000a900473ffffffffffffffffffffffffffffffffffffffff1673ffffffffffffffffffffffffffffffffffffffff163373ffffffffffffffffffffffffffffffffffffffff16141515611e6757600080fd5b80600160006101000a81548173ffffffffffffffffffffffffffffffffffffffff021916908373ffffffffffffffffffffffffffffffffffffffff1602179055507fee87a28570c895f7da676d522308fff544b84e34ac47fcb36b53f5ef848e5e3281604051808273ffffffffffffffffffffffffffffffffffffffff1673ffffffffffffffffffffffffffffffffffffffff16815260200191505060405180910390a150565b600260009054906101000a900473ffffffffffffffffffffffffffffffffffffffff1681565b6000809054906101000a900473ffffffffffffffffffffffffffffffffffffffff1673ffffffffffffffffffffffffffffffffffffffff163373ffffffffffffffffffffffffffffffffffffffff16141515611f8f57600080fd5b60003073ffffffffffffffffffffffffffffffffffffffff1631111515611fb557600080fd5b6000809054906101000a900473ffffffffffffffffffffffffffffffffffffffff1673ffffffffffffffffffffffffffffffffffffffff166108fc3073ffffffffffffffffffffffffffffffffffffffff16319081150290604051600060405180830381858888f19350505050151561202d57600080fd5b565b6000806000808561203f816112ad565b151561204a57600080fd5b600091505b600360008873ffffffffffffffffffffffffffffffffffffffff1673ffffffffffffffffffffffffffffffffffffffff16815260200190815260200160002060010180549050821015612131578560001916600360008973ffffffffffffffffffffffffffffffffffffffff1673ffffffffffffffffffffffffffffffffffffffff168152602001908152602001600020600101838154811015156120f057fe5b906000526020600020906009020160070154600019161415612124576001826121198985613bb7565b945094509450612140565b818060010192505061204f565b60008060008191509450945094505b50509250925092565b6000809054906101000a900473ffffffffffffffffffffffffffffffffffffffff1681565b600080600080600033612180816112ad565b151561218b57600080fd5b60008a5111151561219b57600080fd5b338a604051808373ffffffffffffffffffffffffffffffffffffffff1673ffffffffffffffffffffffffffffffffffffffff166c0100000000000000000000000002815260140182805190602001908083835b60208310151561221357805182526020820191506020810190506020830392506121ee565b6001836020036101000a038019825116818451168082178552505050505050905001925050506040518091039020955061224f868a8a8a6137da565b151561225a57600080fd5b6122c6338b6040518082805190602001908083835b602083101515612294578051825260208201915060208101905060208303925061226f565b6001836020036101000a0380198251168184511680821785525050505050509050019150506040518091039020612e17565b809550819650829750839850505050508415156122e257600080fd5b821515156122ef57600080fd5b600260009054906101000a900473ffffffffffffffffffffffffffffffffffffffff1673ffffffffffffffffffffffffffffffffffffffff16639918925d338473__PhysicalAddressClaim__________________63deb21fa2436000604051602001526040518263ffffffff167c01000000000000000000000000000000000000000000000000000000000281526004018082815260200191505060206040518083038186803b15156123a257600080fd5b6102c65a03f415156123b357600080fd5b505050604051805190506040518463ffffffff167c0100000000000000000000000000000000000000000000000000000000028152600401808473ffffffffffffffffffffffffffffffffffffffff1673ffffffffffffffffffffffffffffffffffffffff168152602001836000191660001916815260200182600019166000191681526020019350505050600060405180830381600087803b151561245857600080fd5b6102c65a03f1151561246957600080fd5b5050506001600460108282829054906101000a900467ffffffffffffffff160192506101000a81548167ffffffffffffffff021916908367ffffffffffffffff1602179055503373ffffffffffffffffffffffffffffffffffffffff167fcb5c5ab258abc7b8cafdc09ca97a09fa4d98a46a9a83f0462061e78fcb198cb98360405180826000191660001916815260200191505060405180910390a250505050505050505050565b60036020528060005260406000206000915090508060000154905081565b6000809054906101000a900473ffffffffffffffffffffffffffffffffffffffff1673ffffffffffffffffffffffffffffffffffffffff163373ffffffffffffffffffffffffffffffffffffffff1614151561258a57600080fd5b80600260006101000a81548173ffffffffffffffffffffffffffffffffffffffff021916908373ffffffffffffffffffffffffffffffffffffffff1602179055507fffd9ec64cd3990d58d48617f2750d82ea8ea105c84989b7f77c5242178ba4aeb81604051808273ffffffffffffffffffffffffffffffffffffffff1673ffffffffffffffffffffffffffffffffffffffff16815260200191505060405180910390a150565b6000809054906101000a900473ffffffffffffffffffffffffffffffffffffffff1673ffffffffffffffffffffffffffffffffffffffff163373ffffffffffffffffffffffffffffffffffffffff1614151561268c57600080fd5b803073ffffffffffffffffffffffffffffffffffffffff1631101515156126b257600080fd5b6000809054906101000a900473ffffffffffffffffffffffffffffffffffffffff1673ffffffffffffffffffffffffffffffffffffffff166108fc829081150290604051600060405180830381858888f19350505050151561271357600080fd5b50565b61271e61434b565b61272661434b565b61272e61434b565b61273661434b565b61273e61434b565b86612748816112ad565b151561275357600080fd5b600360008973ffffffffffffffffffffffffffffffffffffffff1673ffffffffffffffffffffffffffffffffffffffff168152602001908152602001600020600101878154811015156127a257fe5b9060005260206000209060090201600101600360008a73ffffffffffffffffffffffffffffffffffffffff1673ffffffffffffffffffffffffffffffffffffffff1681526020019081526020016000206001018881548110151561280257fe5b9060005260206000209060090201600201600360008b73ffffffffffffffffffffffffffffffffffffffff1673ffffffffffffffffffffffffffffffffffffffff1681526020019081526020016000206001018981548110151561286257fe5b9060005260206000209060090201600301600360008c73ffffffffffffffffffffffffffffffffffffffff1673ffffffffffffffffffffffffffffffffffffffff1681526020019081526020016000206001018a8154811015156128c257fe5b9060005260206000209060090201600401600360008d73ffffffffffffffffffffffffffffffffffffffff1673ffffffffffffffffffffffffffffffffffffffff1681526020019081526020016000206001018b81548110151561292257fe5b9060005260206000209060090201600501848054600181600116156101000203166002900480601f0160208091040260200160405190810160405280929190818152602001828054600181600116156101000203166002900480156129c85780601f1061299d576101008083540402835291602001916129c8565b820191906000526020600020905b8154815290600101906020018083116129ab57829003601f168201915b50505050509450838054600181600116156101000203166002900480601f016020809104026020016040519081016040528092919081815260200182805460018160011615610100020316600290048015612a645780601f10612a3957610100808354040283529160200191612a64565b820191906000526020600020905b815481529060010190602001808311612a4757829003601f168201915b50505050509350828054600181600116156101000203166002900480601f016020809104026020016040519081016040528092919081815260200182805460018160011615610100020316600290048015612b005780601f10612ad557610100808354040283529160200191612b00565b820191906000526020600020905b815481529060010190602001808311612ae357829003601f168201915b50505050509250818054600181600116156101000203166002900480601f016020809104026020016040519081016040528092919081815260200182805460018160011615610100020316600290048015612b9c5780601f10612b7157610100808354040283529160200191612b9c565b820191906000526020600020905b815481529060010190602001808311612b7f57829003601f168201915b50505050509150808054600181600116156101000203166002900480601f016020809104026020016040519081016040528092919081815260200182805460018160011615610100020316600290048015612c385780601f10612c0d57610100808354040283529160200191612c38565b820191906000526020600020905b815481529060010190602001808311612c1b57829003601f168201915b5050505050905095509550955095509550509295509295909350565b612c5c61434b565b600082612c68816112ad565b1515612c7357600080fd5b600360008573ffffffffffffffffffffffffffffffffffffffff1673ffffffffffffffffffffffffffffffffffffffff1681526020019081526020016000206001018054905091505b6000821115612de257818060019003925050612cd88483613bb7565b15612ddd57600360008573ffffffffffffffffffffffffffffffffffffffff1673ffffffffffffffffffffffffffffffffffffffff16815260200190815260200160002060010182815481101515612d2c57fe5b90600052602060002090600902016000018054600181600116156101000203166002900480601f016020809104026020016040519081016040528092919081815260200182805460018160011615610100020316600290048015612dd15780601f10612da657610100808354040283529160200191612dd1565b820191906000526020600020905b815481529060010190602001808311612db457829003601f168201915b50505050509250612df6565b612cbc565b602060405190810160405280600081525092505b5050919050565b600460009054906101000a900467ffffffffffffffff1681565b600080600080600086612e29816112ad565b1515612e3457600080fd5b600091505b600360008973ffffffffffffffffffffffffffffffffffffffff1673ffffffffffffffffffffffffffffffffffffffff16815260200190815260200160002060010180549050821015612f7e578660001916600360008a73ffffffffffffffffffffffffffffffffffffffff1673ffffffffffffffffffffffffffffffffffffffff16815260200190815260200160002060010183815481101515612eda57fe5b906000526020600020906009020160080154600019161415612f7157600182612f038a85613bb7565b600360008c73ffffffffffffffffffffffffffffffffffffffff1673ffffffffffffffffffffffffffffffffffffffff16815260200190815260200160002060010185815481101515612f5257fe5b9060005260206000209060090201600701549550955095509550612f96565b8180600101925050612e39565b60008060008082925080600102905095509550955095505b505092959194509250565b600080600080600033612fb3816112ad565b1515612fbe57600080fd5b612fcc338c8c8c8c8c6139c5565b508096508197505050851515612fe157600080fd5b600360003373ffffffffffffffffffffffffffffffffffffffff1673ffffffffffffffffffffffffffffffffffffffff1681526020019081526020016000206001018581548110151561303057fe5b9060005260206000209060090201600701549350600260009054906101000a900473ffffffffffffffffffffffffffffffffffffffff1673ffffffffffffffffffffffffffffffffffffffff1663c7508ec73033876040518463ffffffff167c0100000000000000000000000000000000000000000000000000000000028152600401808473ffffffffffffffffffffffffffffffffffffffff1673ffffffffffffffffffffffffffffffffffffffff1681526020018373ffffffffffffffffffffffffffffffffffffffff1673ffffffffffffffffffffffffffffffffffffffff16815260200182600019166000191681526020019350505050600060405180830381600087803b151561314457600080fd5b6102c65a03f1151561315557600080fd5b505050600360003373ffffffffffffffffffffffffffffffffffffffff1673ffffffffffffffffffffffffffffffffffffffff1681526020019081526020016000206001018054905092508491505b6001830382101561339657600360003373ffffffffffffffffffffffffffffffffffffffff1673ffffffffffffffffffffffffffffffffffffffff1681526020019081526020016000206001016001830181548110151561320157fe5b9060005260206000209060090201600360003373ffffffffffffffffffffffffffffffffffffffff1673ffffffffffffffffffffffffffffffffffffffff1681526020019081526020016000206001018381548110151561325e57fe5b90600052602060002090600902016000820181600001908054600181600116156101000203166002900461329392919061435f565b50600182018160010190805460018160011615610100020316600290046132bb92919061435f565b50600282018160020190805460018160011615610100020316600290046132e392919061435f565b506003820181600301908054600181600116156101000203166002900461330b92919061435f565b506004820181600401908054600181600116156101000203166002900461333392919061435f565b506005820181600501908054600181600116156101000203166002900461335b92919061435f565b5060068201548160060155600782015481600701906000191690556008820154816008019060001916905590505081806001019250506131a4565b600360003373ffffffffffffffffffffffffffffffffffffffff1673ffffffffffffffffffffffffffffffffffffffff168152602001908152602001600020600101600184038154811015156133e857fe5b90600052602060002090600902016000808201600061340791906143e6565b60018201600061341791906143e6565b60028201600061342791906143e6565b60038201600061343791906143e6565b60048201600061344791906143e6565b60058201600061345791906143e6565b6006820160009055600782016000905560088201600090555050600360003373ffffffffffffffffffffffffffffffffffffffff1673ffffffffffffffffffffffffffffffffffffffff1681526020019081526020016000206001018054809190600190036134c6919061442e565b506000600360003373ffffffffffffffffffffffffffffffffffffffff1673ffffffffffffffffffffffffffffffffffffffff16815260200190815260200160002060010180549050141561357057600360003373ffffffffffffffffffffffffffffffffffffffff1673ffffffffffffffffffffffffffffffffffffffff16815260200190815260200160002060008082016000905560018201600061356d9190614460565b50505b3373ffffffffffffffffffffffffffffffffffffffff167ff205ce75791437944181c7d5b0da9fc3f03171ae90ec93e4dc4f3ddf2982eb018560405180826000191660001916815260200191505060405180910390a25050505050505050505050565b6000806000809150600090505b600360008573ffffffffffffffffffffffffffffffffffffffff1673ffffffffffffffffffffffffffffffffffffffff16815260200190815260200160002060010180549050811015613650576136378482613bb7565b15613643576001820191505b80806001019150506135e0565b8192505050919050565b600460089054906101000a900467ffffffffffffffff1681565b61367c61434b565b81613686816112ad565b151561369157600080fd5b600360008473ffffffffffffffffffffffffffffffffffffffff1673ffffffffffffffffffffffffffffffffffffffff1681526020019081526020016000206001016001600360008673ffffffffffffffffffffffffffffffffffffffff1673ffffffffffffffffffffffffffffffffffffffff168152602001908152602001600020600101805490500381548110151561372857fe5b90600052602060002090600902016000018054600181600116156101000203166002900480601f0160208091040260200160405190810160405280929190818152602001828054600181600116156101000203166002900480156137cd5780601f106137a2576101008083540402835291602001916137cd565b820191906000526020600020905b8154815290600101906020018083116137b057829003601f168201915b5050505050915050919050565b60006137e4614484565b60006040805190810160405280601c81526020017f19457468657265756d205369676e6564204d6573736167653a0a333200000000815250915081876040518083805190602001908083835b6020831015156138555780518252602082019150602081019050602083039250613830565b6001836020036101000a03801982511681845116808217855250505050505090500182600019166000191681526020019250505060405180910390209050600160009054906101000a900473ffffffffffffffffffffffffffffffffffffffff1673ffffffffffffffffffffffffffffffffffffffff16600182888888604051600081526020016040526000604051602001526040518085600019166000191681526020018460ff1660ff16815260200183600019166000191681526020018260001916600019168152602001945050505050602060405160208103908084039060008661646e5a03f1151561394a57600080fd5b50506020604051035173ffffffffffffffffffffffffffffffffffffffff161492505050949350505050565b6000600360008373ffffffffffffffffffffffffffffffffffffffff1673ffffffffffffffffffffffffffffffffffffffff168152602001908152602001600020600101805490509050919050565b600080600080896139d5816112ad565b15156139e057600080fd5b89898989896040518086805190602001908083835b602083101515613a1a57805182526020820191506020810190506020830392506139f5565b6001836020036101000a03801982511681845116808217855250505050505090500185805190602001908083835b602083101515613a6d5780518252602082019150602081019050602083039250613a48565b6001836020036101000a03801982511681845116808217855250505050505090500184805190602001908083835b602083101515613ac05780518252602082019150602081019050602083039250613a9b565b6001836020036101000a03801982511681845116808217855250505050505090500183805190602001908083835b602083101515613b135780518252602082019150602081019050602083039250613aee565b6001836020036101000a03801982511681845116808217855250505050505090500182805190602001908083835b602083101515613b665780518252602082019150602081019050602083039250613b41565b6001836020036101000a0380198251168184511680821785525050505050509050019550505050505060405180910390209150613ba38b8361202f565b945094509450505096509650969350505050565b60008083613bc4816112ad565b1515613bcf57600080fd5b600360008673ffffffffffffffffffffffffffffffffffffffff1673ffffffffffffffffffffffffffffffffffffffff16815260200190815260200160002060010184815481101515613c1e57fe5b9060005260206000209060090201600701549150600060010282600019161415613c4b5760009250613e0a565b600073__PhysicalAddressClaim__________________637194df0d600260009054906101000a900473ffffffffffffffffffffffffffffffffffffffff1673ffffffffffffffffffffffffffffffffffffffff1663e1661eff308a886000604051602001526040518463ffffffff167c0100000000000000000000000000000000000000000000000000000000028152600401808473ffffffffffffffffffffffffffffffffffffffff1673ffffffffffffffffffffffffffffffffffffffff1681526020018373ffffffffffffffffffffffffffffffffffffffff1673ffffffffffffffffffffffffffffffffffffffff16815260200182600019166000191681526020019350505050602060405180830381600087803b1515613d7057600080fd5b6102c65a03f11515613d8157600080fd5b505050604051805190506000604051602001526040518263ffffffff167c010000000000000000000000000000000000000000000000000000000002815260040180826000191660001916815260200191505060206040518083038186803b1515613deb57600080fd5b6102c65a03f41515613dfc57600080fd5b505050604051805190501192505b505092915050565b613e1a61434b565b60008060008086613e2a816112ad565b1515613e3557600080fd5b73__PhysicalAddressClaim__________________637194df0d600260009054906101000a900473ffffffffffffffffffffffffffffffffffffffff1673ffffffffffffffffffffffffffffffffffffffff1663e1661eff308c600360008f73ffffffffffffffffffffffffffffffffffffffff1673ffffffffffffffffffffffffffffffffffffffff1681526020019081526020016000206001018d815481101515613ede57fe5b9060005260206000209060090201600701546000604051602001526040518463ffffffff167c0100000000000000000000000000000000000000000000000000000000028152600401808473ffffffffffffffffffffffffffffffffffffffff1673ffffffffffffffffffffffffffffffffffffffff1681526020018373ffffffffffffffffffffffffffffffffffffffff1673ffffffffffffffffffffffffffffffffffffffff16815260200182600019166000191681526020019350505050602060405180830381600087803b1515613fb857600080fd5b6102c65a03f11515613fc957600080fd5b505050604051805190506000604051602001526040518263ffffffff167c010000000000000000000000000000000000000000000000000000000002815260040180826000191660001916815260200191505060206040518083038186803b151561403357600080fd5b6102c65a03f4151561404457600080fd5b505050604051805190509150600360008973ffffffffffffffffffffffffffffffffffffffff1673ffffffffffffffffffffffffffffffffffffffff1681526020019081526020016000206001018781548110151561409f57fe5b9060005260206000209060090201600001600360008a73ffffffffffffffffffffffffffffffffffffffff1673ffffffffffffffffffffffffffffffffffffffff168152602001908152602001600020600101888154811015156140ff57fe5b90600052602060002090600902016006015483600360008c73ffffffffffffffffffffffffffffffffffffffff1673ffffffffffffffffffffffffffffffffffffffff1681526020019081526020016000206001018a81548110151561416157fe5b906000526020600020906009020160070154838054600181600116156101000203166002900480601f0160208091040260200160405190810160405280929190818152602001828054600181600116156101000203166002900480156142085780601f106141dd57610100808354040283529160200191614208565b820191906000526020600020905b8154815290600101906020018083116141eb57829003601f168201915b505050505093509550955095509550505092959194509250565b61012060405190810160405280614237614498565b8152602001614244614498565b8152602001614251614498565b815260200161425e614498565b815260200161426b614498565b8152602001614278614498565b81526020016000815260200160008019168152602001600080191681525090565b8154818355818115116142c6576009028160090283600052602060002091820191016142c591906144ac565b5b505050565b828054600181600116156101000203166002900490600052602060002090601f016020900481019282601f1061430c57805160ff191683800117855561433a565b8280016001018555821561433a579182015b8281111561433957825182559160200191906001019061431e565b5b5090506143479190614543565b5090565b602060405190810160405280600081525090565b828054600181600116156101000203166002900490600052602060002090601f016020900481019282601f1061439857805485556143d5565b828001600101855582156143d557600052602060002091601f016020900482015b828111156143d45782548255916001019190600101906143b9565b5b5090506143e29190614543565b5090565b50805460018160011615610100020316600290046000825580601f1061440c575061442b565b601f01602090049060005260206000209081019061442a9190614543565b5b50565b81548183558181151161445b5760090281600902836000526020600020918201910161445a91906144ac565b5b505050565b508054600082556009029060005260206000209081019061448191906144ac565b50565b602060405190810160405280600081525090565b602060405190810160405280600081525090565b61454091905b8082111561453c57600080820160006144cb91906143e6565b6001820160006144db91906143e6565b6002820160006144eb91906143e6565b6003820160006144fb91906143e6565b60048201600061450b91906143e6565b60058201600061451b91906143e6565b600682016000905560078201600090556008820160009055506009016144b2565b5090565b90565b61456591905b80821115614561576000816000905550600101614549565b5090565b905600a165627a7a72305820807dd6399c24d777f1cad49bdfae234fb9d740e7e7f078bf63ba1e97964157350029",
  "source": "pragma solidity 0.4.19;\n\nimport \"./EthereumClaimsRegistryInterface.sol\";\nimport \"./PhysicalAddressClaim.sol\";\nimport \"./ERC20.sol\";\n\n\n// Checks -> Effects -> Interactions\ncontract ProofOfPhysicalAddress {\n    address public owner;\n    address public signer;\n    EthereumClaimsRegistryInterface public registry;\n\n    // Main structures:\n    struct PhysicalAddress {\n        string name;\n\n        string country;\n        string state;\n        string city;\n        string location;\n        string zip;\n\n        uint256 creationBlock;\n        bytes32 keccakIdentifier;\n        bytes32 confirmationCodeSha3;\n    }\n\n    function ProofOfPhysicalAddress(address _registry) public\n    {\n        owner = msg.sender;\n        signer = owner;\n        registry = EthereumClaimsRegistryInterface(_registry);\n    }\n\n    struct User {\n        uint256 creationBlock;\n        PhysicalAddress[] physicalAddresses;\n    }\n\n    mapping (address => User) public users;\n\n    // Stats:\n\n    uint64 public totalUsers;\n    uint64 public totalAddresses;\n    uint64 public totalConfirmed;\n\n    // Events:\n\n    event LogSignerChanged(address newSigner);\n    event LogRegistryChanged(address newRegistry);\n    event LogAddressRegistered(address indexed wallet, bytes32 keccakIdentifier);\n    event LogAddressUnregistered(address indexed wallet, bytes32 keccakIdentifier);\n    event LogAddressConfirmed(address indexed wallet, bytes32 keccakIdentifier);\n    event LogClaimedTokens(address token, address to, uint256 amount);\n\n    // Modifiers:\n    modifier onlyOwner() {\n        require(msg.sender == owner);\n        _;\n    }\n\n    modifier checkUserExists(address wallet) {\n        require(userExists(wallet));\n        _;\n    }\n\n    // Helpers:\n    function signerIsValid(bytes32 data, uint8 v, bytes32 r, bytes32 s)\n    public constant returns (bool)\n    {\n        bytes memory prefix = \"\\x19Ethereum Signed Message:\\n32\";\n        bytes32 prefixed = keccak256(prefix, data);\n        return (ecrecover(prefixed, v, r, s) == signer);\n    }\n\n    // Methods:\n    // set address that is used on server-side to calculate signatures\n    // and on contract-side to verify them\n    function setSigner(address newSigner) public onlyOwner {\n        signer = newSigner;\n        LogSignerChanged(newSigner);\n    }\n\n    function setRegistry(address newRegistry) public onlyOwner {\n        registry = EthereumClaimsRegistryInterface(newRegistry);\n        LogRegistryChanged(newRegistry);\n    }\n\n    // withdraw specified amount of eth in wei\n    function withdrawSome(uint256 amountWei)\n    public onlyOwner\n    {\n        require(address(this).balance >= amountWei);\n        owner.transfer(amountWei);\n    }\n\n    // withdraw all available eth\n    function withdrawAll()\n    public onlyOwner\n    {\n        require(address(this).balance > 0);\n        owner.transfer(address(this).balance);\n    }\n\n    function userExists(address wallet)\n    public constant returns (bool)\n    {\n        return (users[wallet].creationBlock > 0);\n    }\n\n    function userAddressConfirmed(address wallet, uint256 addressIndex)\n    public constant checkUserExists(wallet) returns (bool)\n    {\n        bytes32 keccakIdentifier = users[wallet].physicalAddresses[addressIndex].keccakIdentifier;\n\n        if (keccakIdentifier == 0x0) {\n            return false;\n        }\n\n        return PhysicalAddressClaim.decodeConfirmation(registry.getClaim(address(this), wallet, keccakIdentifier)) > 0;\n    }\n\n    // returns (found/not found, index if found/0 if not found, confirmed/not confirmed)\n    function userAddressByCreationBlock(address wallet, uint256 creationBlock)\n    public constant checkUserExists(wallet) returns (bool, uint256, bool)\n    {\n        for (uint256 ai = 0; ai < users[wallet].physicalAddresses.length; ai++) {\n            if (users[wallet].physicalAddresses[ai].creationBlock == creationBlock) {\n                return (true, ai, userAddressConfirmed(wallet, ai));\n            }\n        }\n        return (false, 0, false);\n    }\n\n    // returns (found/not found, index if found/0 if not found, confirmed/not confirmed)\n    function userAddressByConfirmationCode(\n        address wallet,\n        bytes32 confirmationCodeSha3\n    )\n        public\n        constant\n        checkUserExists(wallet)\n        returns(bool, uint256, bool, bytes32)\n    {\n        for (uint256 ai = 0; ai < users[wallet].physicalAddresses.length; ai++) {\n            if (users[wallet].physicalAddresses[ai].confirmationCodeSha3 == confirmationCodeSha3) {\n                return (\n                    true,\n                    ai,\n                    userAddressConfirmed(wallet, ai),\n                    users[wallet].physicalAddresses[ai].keccakIdentifier\n                );\n            }\n        }\n        return (false, 0, false, 0x0);\n    }\n\n    // returns (found/not found, index if found/0 if not found, confirmed/not confirmed)\n    function userAddressByAddress(address wallet, string country, string state, string city, string location, string zip)\n    public constant checkUserExists(wallet) returns(bool, uint256, bool)\n    {\n        bytes32 keccakIdentifier = keccak256(country, state, city, location, zip);\n        return userAddressByKeccakIdentifier(wallet, keccakIdentifier);\n    }\n\n    // returns (found/not found, index if found/0 if not found, confirmed/not confirmed)\n    function userAddressByKeccakIdentifier(address wallet, bytes32 keccakIdentifier)\n    public constant checkUserExists(wallet) returns(bool, uint256, bool)\n    {\n        for (uint256 ai = 0; ai < users[wallet].physicalAddresses.length; ai++) {\n            if (users[wallet].physicalAddresses[ai].keccakIdentifier == keccakIdentifier) {\n                return (true, ai, userAddressConfirmed(wallet, ai));\n            }\n        }\n        return (false, 0, false);\n    }\n\n    // returns last name submitted to PoPA contract\n    function userLastSubmittedName(address wallet)\n    public constant checkUserExists(wallet) returns (string)\n    {\n        return users[wallet].physicalAddresses[users[wallet].physicalAddresses.length-1].name;\n    }\n\n    // returns name from the last confirmed address. If no addresses were confirmed returns ''\n    function userLastConfirmedName(address wallet)\n    public constant checkUserExists(wallet) returns (string)\n    {\n        for (uint256 ai = users[wallet].physicalAddresses.length; ai > 0;) {\n            ai--;\n            if (userAddressConfirmed(wallet, ai)) {\n                return users[wallet].physicalAddresses[ai].name;\n            }\n        }\n        return \"\";\n    }\n\n    // returns how many addresses there are in PoPA contract. If user does not exist, returns 0\n    function userSubmittedAddressesCount(address wallet)\n    public constant returns (uint256)\n    {\n        return users[wallet].physicalAddresses.length;\n    }\n\n    // returns how many addresses from PoPA contract are confirmed. If user does not exist, returns 0\n    function userConfirmedAddressesCount(address wallet)\n    public constant returns (uint256)\n    {\n        uint256 c = 0;\n        for (uint256 ai = 0; ai < users[wallet].physicalAddresses.length; ai++) {\n            if (userAddressConfirmed(wallet, ai)) {\n                c += 1;\n            }\n        }\n        return c;\n    }\n\n    function userAddress(address wallet, uint256 addressIndex)\n    public constant checkUserExists(wallet) returns (\n        string country, string state, string city, string location, string zip)\n    {\n        return (\n            users[wallet].physicalAddresses[addressIndex].country,\n            users[wallet].physicalAddresses[addressIndex].state,\n            users[wallet].physicalAddresses[addressIndex].city,\n            users[wallet].physicalAddresses[addressIndex].location,\n            users[wallet].physicalAddresses[addressIndex].zip\n        );\n    }\n\n    function userAddressInfo(address wallet, uint256 addressIndex)\n    public constant checkUserExists(wallet) returns (\n        string name,\n        uint256 creationBlock,\n        uint256 confirmationBlock,\n        bytes32 keccakIdentifier\n    ) {\n        uint256 _confirmationBlock = PhysicalAddressClaim.decodeConfirmation(registry.getClaim(\n            address(this),\n            wallet,\n            users[wallet].physicalAddresses[addressIndex].keccakIdentifier)\n        );\n        return (\n            users[wallet].physicalAddresses[addressIndex].name,\n            users[wallet].physicalAddresses[addressIndex].creationBlock,\n            _confirmationBlock,\n            users[wallet].physicalAddresses[addressIndex].keccakIdentifier\n        );\n    }\n\n    // Main methods:\n    function registerAddress(\n        string name,\n        string country, string state, string city, string location, string zip,\n        uint256 priceWei,\n        bytes32 confirmationCodeSha3, uint8 sigV, bytes32 sigR, bytes32 sigS)\n    public payable\n    {\n        require(bytes(name).length > 0);\n        require(bytes(country).length > 0);\n        require(bytes(state).length > 0);\n        require(bytes(city).length > 0);\n        require(bytes(location).length > 0);\n        require(bytes(zip).length > 0);\n        require(msg.value >= priceWei);\n\n        bytes32 data = keccak256(\n            msg.sender,\n            name,\n            country,\n            state,\n            city,\n            location,\n            zip,\n            priceWei,\n            confirmationCodeSha3\n        );\n        require(signerIsValid(data, sigV, sigR, sigS));\n\n        if (userExists(msg.sender)) {\n            // check if this address is already registered\n            bool found;\n            (found, , ) = userAddressByAddress(msg.sender, country, state, city, location, zip);\n\n            require(!found);\n        } else {\n            // new user\n            users[msg.sender].creationBlock = block.number;\n\n            totalUsers += 1;\n        }\n\n        PhysicalAddress memory pa;\n\n        pa.name = name;\n        pa.country = country;\n        pa.state = state;\n        pa.city = city;\n        pa.location = location;\n        pa.zip = zip;\n        pa.creationBlock = block.number;\n        pa.confirmationCodeSha3 = confirmationCodeSha3;\n        pa.keccakIdentifier = keccak256(country, state, city, location, zip);\n        users[msg.sender].physicalAddresses.push(pa);\n\n        totalAddresses += 1;\n\n        LogAddressRegistered(msg.sender, pa.keccakIdentifier);\n    }\n\n    function unregisterAddress(string country, string state, string city, string location, string zip)\n        public checkUserExists(msg.sender)\n    {\n        bool found;\n        uint256 index;\n        (found, index, ) = userAddressByAddress(msg.sender, country, state, city, location, zip);\n        require(found);\n\n        bytes32 keccakIdentifier = users[msg.sender].physicalAddresses[index].keccakIdentifier;\n        registry.removeClaim(\n            address(this),\n            msg.sender,\n            keccakIdentifier\n        );\n\n        // Remove physical address from list\n        uint256 length = users[msg.sender].physicalAddresses.length;\n\n        for (uint256 i = index; i < length - 1; i++) {\n            users[msg.sender].physicalAddresses[i] = users[msg.sender].physicalAddresses[i+1];\n        }\n\n        delete users[msg.sender].physicalAddresses[length - 1];\n        users[msg.sender].physicalAddresses.length--;\n\n        if (users[msg.sender].physicalAddresses.length == 0) {\n            delete users[msg.sender];\n        }\n\n        LogAddressUnregistered(msg.sender, keccakIdentifier);\n    }\n\n    function confirmAddress(string confirmationCodePlain, uint8 sigV, bytes32 sigR, bytes32 sigS)\n    public checkUserExists(msg.sender)\n    {\n        require(bytes(confirmationCodePlain).length > 0);\n\n        bytes32 data = keccak256(\n            msg.sender,\n            confirmationCodePlain\n        );\n        require(signerIsValid(data, sigV, sigR, sigS));\n\n        bool found;\n        uint ai;\n        bool confirmed;\n        bytes32 keccakIdentifier;\n        (found, ai, confirmed, keccakIdentifier) = userAddressByConfirmationCode(\n            msg.sender,\n            keccak256(confirmationCodePlain)\n        );\n        require(found);\n        require(!confirmed);\n\n        registry.setClaim(msg.sender, keccakIdentifier, PhysicalAddressClaim.encode(block.number));\n        totalConfirmed += 1;\n\n        LogAddressConfirmed(msg.sender, keccakIdentifier);\n    }\n\n    function claimTokens(address _token, address _to) public onlyOwner {\n        require(_token != address(0));\n        require(_to != address(0));\n\n        ERC20 token = ERC20(_token);\n        uint256 balance = token.balanceOf(this);\n        token.transfer(_to, balance);\n        LogClaimedTokens(_token, _to, balance);\n    }\n}\n",
  "sourcePath": "/Users/matiasgaratortiz/Github/poa-popa/blockchain/contracts/ProofOfPhysicalAddress.sol",
  "compiler": {
    "name": "solc",
    "version": "0.4.19+commit.c4cbbb05.Emscripten.clang"
  },
  "schemaVersion": "1.0.1",
  "updatedAt": "2018-05-16T17:20:02.573Z"
}