{
  "contractName": "ProofOfPhysicalAddress",
  "abi": [
    {
      "constant": true,
      "inputs": [],
      "name": "signer",
      "outputs": [
        {
          "name": "",
          "type": "address"
        }
      ],
      "payable": false,
      "stateMutability": "view",
      "type": "function"
    },
    {
      "constant": true,
      "inputs": [],
      "name": "totalConfirmed",
      "outputs": [
        {
          "name": "",
          "type": "uint64"
        }
      ],
      "payable": false,
      "stateMutability": "view",
      "type": "function"
    },
    {
      "constant": true,
      "inputs": [],
      "name": "registry",
      "outputs": [
        {
          "name": "",
          "type": "address"
        }
      ],
      "payable": false,
      "stateMutability": "view",
      "type": "function"
    },
    {
      "constant": true,
      "inputs": [],
      "name": "owner",
      "outputs": [
        {
          "name": "",
          "type": "address"
        }
      ],
      "payable": false,
      "stateMutability": "view",
      "type": "function"
    },
    {
      "constant": true,
      "inputs": [
        {
          "name": "",
          "type": "address"
        }
      ],
      "name": "users",
      "outputs": [
        {
          "name": "creationBlock",
          "type": "uint256"
        }
      ],
      "payable": false,
      "stateMutability": "view",
      "type": "function"
    },
    {
      "constant": true,
      "inputs": [],
      "name": "totalUsers",
      "outputs": [
        {
          "name": "",
          "type": "uint64"
        }
      ],
      "payable": false,
      "stateMutability": "view",
      "type": "function"
    },
    {
      "constant": true,
      "inputs": [],
      "name": "totalAddresses",
      "outputs": [
        {
          "name": "",
          "type": "uint64"
        }
      ],
      "payable": false,
      "stateMutability": "view",
      "type": "function"
    },
    {
      "inputs": [
        {
          "name": "_registry",
          "type": "address"
        }
      ],
      "payable": false,
      "stateMutability": "nonpayable",
      "type": "constructor"
    },
    {
      "constant": true,
      "inputs": [
        {
          "name": "data",
          "type": "bytes32"
        },
        {
          "name": "v",
          "type": "uint8"
        },
        {
          "name": "r",
          "type": "bytes32"
        },
        {
          "name": "s",
          "type": "bytes32"
        }
      ],
      "name": "signerIsValid",
      "outputs": [
        {
          "name": "",
          "type": "bool"
        }
      ],
      "payable": false,
      "stateMutability": "view",
      "type": "function"
    },
    {
      "constant": false,
      "inputs": [
        {
          "name": "newSigner",
          "type": "address"
        }
      ],
      "name": "setSigner",
      "outputs": [],
      "payable": false,
      "stateMutability": "nonpayable",
      "type": "function"
    },
    {
      "constant": false,
      "inputs": [
        {
          "name": "newRegistry",
          "type": "address"
        }
      ],
      "name": "setRegistry",
      "outputs": [],
      "payable": false,
      "stateMutability": "nonpayable",
      "type": "function"
    },
    {
      "constant": false,
      "inputs": [
        {
          "name": "amountWei",
          "type": "uint256"
        }
      ],
      "name": "withdrawSome",
      "outputs": [],
      "payable": false,
      "stateMutability": "nonpayable",
      "type": "function"
    },
    {
      "constant": false,
      "inputs": [],
      "name": "withdrawAll",
      "outputs": [],
      "payable": false,
      "stateMutability": "nonpayable",
      "type": "function"
    },
    {
      "constant": true,
      "inputs": [
        {
          "name": "wallet",
          "type": "address"
        }
      ],
      "name": "userExists",
      "outputs": [
        {
          "name": "",
          "type": "bool"
        }
      ],
      "payable": false,
      "stateMutability": "view",
      "type": "function"
    },
    {
      "constant": true,
      "inputs": [
        {
          "name": "wallet",
          "type": "address"
        },
        {
          "name": "addressIndex",
          "type": "uint256"
        }
      ],
      "name": "userAddressConfirmed",
      "outputs": [
        {
          "name": "",
          "type": "bool"
        }
      ],
      "payable": false,
      "stateMutability": "view",
      "type": "function"
    },
    {
      "constant": true,
      "inputs": [
        {
          "name": "wallet",
          "type": "address"
        },
        {
          "name": "creationBlock",
          "type": "uint256"
        }
      ],
      "name": "userAddressByCreationBlock",
      "outputs": [
        {
          "name": "",
          "type": "bool"
        },
        {
          "name": "",
          "type": "uint256"
        },
        {
          "name": "",
          "type": "bool"
        }
      ],
      "payable": false,
      "stateMutability": "view",
      "type": "function"
    },
    {
      "constant": true,
      "inputs": [
        {
          "name": "wallet",
          "type": "address"
        },
        {
          "name": "confirmationCodeSha3",
          "type": "bytes32"
        }
      ],
      "name": "userAddressByConfirmationCode",
      "outputs": [
        {
          "name": "",
          "type": "bool"
        },
        {
          "name": "",
          "type": "uint256"
        },
        {
          "name": "",
          "type": "bool"
        },
        {
          "name": "",
          "type": "bytes32"
        }
      ],
      "payable": false,
      "stateMutability": "view",
      "type": "function"
    },
    {
      "constant": true,
      "inputs": [
        {
          "name": "wallet",
          "type": "address"
        },
        {
          "name": "country",
          "type": "string"
        },
        {
          "name": "state",
          "type": "string"
        },
        {
          "name": "city",
          "type": "string"
        },
        {
          "name": "location",
          "type": "string"
        },
        {
          "name": "zip",
          "type": "string"
        }
      ],
      "name": "userAddressByAddress",
      "outputs": [
        {
          "name": "",
          "type": "bool"
        },
        {
          "name": "",
          "type": "uint256"
        },
        {
          "name": "",
          "type": "bool"
        }
      ],
      "payable": false,
      "stateMutability": "view",
      "type": "function"
    },
    {
      "constant": true,
      "inputs": [
        {
          "name": "wallet",
          "type": "address"
        }
      ],
      "name": "userLastSubmittedName",
      "outputs": [
        {
          "name": "",
          "type": "string"
        }
      ],
      "payable": false,
      "stateMutability": "view",
      "type": "function"
    },
    {
      "constant": true,
      "inputs": [
        {
          "name": "wallet",
          "type": "address"
        }
      ],
      "name": "userLastConfirmedName",
      "outputs": [
        {
          "name": "",
          "type": "string"
        }
      ],
      "payable": false,
      "stateMutability": "view",
      "type": "function"
    },
    {
      "constant": true,
      "inputs": [
        {
          "name": "wallet",
          "type": "address"
        }
      ],
      "name": "userSubmittedAddressesCount",
      "outputs": [
        {
          "name": "",
          "type": "uint256"
        }
      ],
      "payable": false,
      "stateMutability": "view",
      "type": "function"
    },
    {
      "constant": true,
      "inputs": [
        {
          "name": "wallet",
          "type": "address"
        }
      ],
      "name": "userConfirmedAddressesCount",
      "outputs": [
        {
          "name": "",
          "type": "uint256"
        }
      ],
      "payable": false,
      "stateMutability": "view",
      "type": "function"
    },
    {
      "constant": true,
      "inputs": [
        {
          "name": "wallet",
          "type": "address"
        },
        {
          "name": "addressIndex",
          "type": "uint256"
        }
      ],
      "name": "userAddress",
      "outputs": [
        {
          "name": "country",
          "type": "string"
        },
        {
          "name": "state",
          "type": "string"
        },
        {
          "name": "city",
          "type": "string"
        },
        {
          "name": "location",
          "type": "string"
        },
        {
          "name": "zip",
          "type": "string"
        }
      ],
      "payable": false,
      "stateMutability": "view",
      "type": "function"
    },
    {
      "constant": true,
      "inputs": [
        {
          "name": "wallet",
          "type": "address"
        },
        {
          "name": "addressIndex",
          "type": "uint256"
        }
      ],
      "name": "userAddressInfo",
      "outputs": [
        {
          "name": "name",
          "type": "string"
        },
        {
          "name": "creationBlock",
          "type": "uint256"
        },
        {
          "name": "confirmationBlock",
          "type": "uint256"
        },
        {
          "name": "keccakIdentifier",
          "type": "bytes32"
        }
      ],
      "payable": false,
      "stateMutability": "view",
      "type": "function"
    },
    {
      "constant": false,
      "inputs": [
        {
          "name": "name",
          "type": "string"
        },
        {
          "name": "country",
          "type": "string"
        },
        {
          "name": "state",
          "type": "string"
        },
        {
          "name": "city",
          "type": "string"
        },
        {
          "name": "location",
          "type": "string"
        },
        {
          "name": "zip",
          "type": "string"
        },
        {
          "name": "priceWei",
          "type": "uint256"
        },
        {
          "name": "confirmationCodeSha3",
          "type": "bytes32"
        },
        {
          "name": "sigV",
          "type": "uint8"
        },
        {
          "name": "sigR",
          "type": "bytes32"
        },
        {
          "name": "sigS",
          "type": "bytes32"
        }
      ],
      "name": "registerAddress",
      "outputs": [],
      "payable": true,
      "stateMutability": "payable",
      "type": "function"
    },
    {
      "constant": false,
      "inputs": [
        {
          "name": "country",
          "type": "string"
        },
        {
          "name": "state",
          "type": "string"
        },
        {
          "name": "city",
          "type": "string"
        },
        {
          "name": "location",
          "type": "string"
        },
        {
          "name": "zip",
          "type": "string"
        }
      ],
      "name": "unregisterAddress",
      "outputs": [],
      "payable": false,
      "stateMutability": "nonpayable",
      "type": "function"
    },
    {
      "constant": false,
      "inputs": [
        {
          "name": "confirmationCodePlain",
          "type": "string"
        },
        {
          "name": "sigV",
          "type": "uint8"
        },
        {
          "name": "sigR",
          "type": "bytes32"
        },
        {
          "name": "sigS",
          "type": "bytes32"
        }
      ],
      "name": "confirmAddress",
      "outputs": [],
      "payable": false,
      "stateMutability": "nonpayable",
      "type": "function"
    }
  ],
  "bytecode": "0x6060604052341561000f57600080fd5b6040516020806140cc83398101604052808051906020019091905050336000806101000a81548173ffffffffffffffffffffffffffffffffffffffff021916908373ffffffffffffffffffffffffffffffffffffffff1602179055506000809054906101000a900473ffffffffffffffffffffffffffffffffffffffff16600160006101000a81548173ffffffffffffffffffffffffffffffffffffffff021916908373ffffffffffffffffffffffffffffffffffffffff16021790555080600260006101000a81548173ffffffffffffffffffffffffffffffffffffffff021916908373ffffffffffffffffffffffffffffffffffffffff16021790555050613fae8061011e6000396000f300606060405260043610610154576000357c0100000000000000000000000000000000000000000000000000000000900463ffffffff16806305831776146101595780630e666e49146101c5578063238ac933146102165780632c2a178e1461026b5780634028a0f1146104485780636c19e783146104855780637b103999146104be578063853828b6146105135780638da5cb5b14610528578063a5db3d021461057d578063a87430ba14610600578063a91ee0dc1461064d578063ae9b051c14610686578063b4778e2d146106a9578063b55fbd0414610914578063bff1f9e1146109c6578063c0fe077f14610a03578063c228251b14610a82578063c94f2c1b14610beb578063cfad527714610c38578063d673560414610c75578063d956be1014610d27578063de3d702e14610d8c578063e585332e14610dd9578063f0486ab414610f8b578063feea980814610fe5575b600080fd5b341561016457600080fd5b610199600480803573ffffffffffffffffffffffffffffffffffffffff169060200190919080359060200190919050506110bd565b604051808415151515815260200183815260200182151515158152602001935050505060405180910390f35b34156101d057600080fd5b6101fc600480803573ffffffffffffffffffffffffffffffffffffffff169060200190919050506111cf565b604051808215151515815260200191505060405180910390f35b341561022157600080fd5b61022961121d565b604051808273ffffffffffffffffffffffffffffffffffffffff1673ffffffffffffffffffffffffffffffffffffffff16815260200191505060405180910390f35b610446600480803590602001908201803590602001908080601f0160208091040260200160405190810160405280939291908181526020018383808284378201915050505050509190803590602001908201803590602001908080601f0160208091040260200160405190810160405280939291908181526020018383808284378201915050505050509190803590602001908201803590602001908080601f0160208091040260200160405190810160405280939291908181526020018383808284378201915050505050509190803590602001908201803590602001908080601f0160208091040260200160405190810160405280939291908181526020018383808284378201915050505050509190803590602001908201803590602001908080601f0160208091040260200160405190810160405280939291908181526020018383808284378201915050505050509190803590602001908201803590602001908080601f016020809104026020016040519081016040528093929190818152602001838380828437820191505050505050919080359060200190919080356000191690602001909190803560ff169060200190919080356000191690602001909190803560001916906020019091905050611243565b005b341561045357600080fd5b61045b6119b5565b604051808267ffffffffffffffff1667ffffffffffffffff16815260200191505060405180910390f35b341561049057600080fd5b6104bc600480803573ffffffffffffffffffffffffffffffffffffffff169060200190919050506119cf565b005b34156104c957600080fd5b6104d1611a6e565b604051808273ffffffffffffffffffffffffffffffffffffffff1673ffffffffffffffffffffffffffffffffffffffff16815260200191505060405180910390f35b341561051e57600080fd5b610526611a94565b005b341561053357600080fd5b61053b611b8f565b604051808273ffffffffffffffffffffffffffffffffffffffff1673ffffffffffffffffffffffffffffffffffffffff16815260200191505060405180910390f35b341561058857600080fd5b6105fe600480803590602001908201803590602001908080601f0160208091040260200160405190810160405280939291908181526020018383808284378201915050505050509190803560ff169060200190919080356000191690602001909190803560001916906020019091905050611bb4565b005b341561060b57600080fd5b610637600480803573ffffffffffffffffffffffffffffffffffffffff16906020019091905050611f01565b6040518082815260200191505060405180910390f35b341561065857600080fd5b610684600480803573ffffffffffffffffffffffffffffffffffffffff16906020019091905050611f1f565b005b341561069157600080fd5b6106a76004808035906020019091905050611fbe565b005b34156106b457600080fd5b6106e9600480803573ffffffffffffffffffffffffffffffffffffffff169060200190919080359060200190919050506120a3565b60405180806020018060200180602001806020018060200186810386528b818151815260200191508051906020019080838360005b8381101561073957808201518184015260208101905061071e565b50505050905090810190601f1680156107665780820380516001836020036101000a031916815260200191505b5086810385528a818151815260200191508051906020019080838360005b8381101561079f578082015181840152602081019050610784565b50505050905090810190601f1680156107cc5780820380516001836020036101000a031916815260200191505b50868103845289818151815260200191508051906020019080838360005b838110156108055780820151818401526020810190506107ea565b50505050905090810190601f1680156108325780820380516001836020036101000a031916815260200191505b50868103835288818151815260200191508051906020019080838360005b8381101561086b578082015181840152602081019050610850565b50505050905090810190601f1680156108985780820380516001836020036101000a031916815260200191505b50868103825287818151815260200191508051906020019080838360005b838110156108d15780820151818401526020810190506108b6565b50505050905090810190601f1680156108fe5780820380516001836020036101000a031916815260200191505b509a505050505050505050505060405180910390f35b341561091f57600080fd5b61094b600480803573ffffffffffffffffffffffffffffffffffffffff169060200190919050506125e1565b6040518080602001828103825283818151815260200191508051906020019080838360005b8381101561098b578082015181840152602081019050610970565b50505050905090810190601f1680156109b85780820380516001836020036101000a031916815260200191505b509250505060405180910390f35b34156109d157600080fd5b6109d961278a565b604051808267ffffffffffffffff1667ffffffffffffffff16815260200191505060405180910390f35b3415610a0e57600080fd5b610a47600480803573ffffffffffffffffffffffffffffffffffffffff16906020019091908035600019169060200190919050506127a4565b604051808515151515815260200184815260200183151515158152602001826000191660001916815260200194505050505060405180910390f35b3415610a8d57600080fd5b610be9600480803590602001908201803590602001908080601f0160208091040260200160405190810160405280939291908181526020018383808284378201915050505050509190803590602001908201803590602001908080601f0160208091040260200160405190810160405280939291908181526020018383808284378201915050505050509190803590602001908201803590602001908080601f0160208091040260200160405190810160405280939291908181526020018383808284378201915050505050509190803590602001908201803590602001908080601f0160208091040260200160405190810160405280939291908181526020018383808284378201915050505050509190803590602001908201803590602001908080601f0160208091040260200160405190810160405280939291908181526020018383808284378201915050505050509190505061292e565b005b3415610bf657600080fd5b610c22600480803573ffffffffffffffffffffffffffffffffffffffff16906020019091905050612f04565b6040518082815260200191505060405180910390f35b3415610c4357600080fd5b610c4b612f8b565b604051808267ffffffffffffffff1667ffffffffffffffff16815260200191505060405180910390f35b3415610c8057600080fd5b610cac600480803573ffffffffffffffffffffffffffffffffffffffff16906020019091905050612fa5565b6040518080602001828103825283818151815260200191508051906020019080838360005b83811015610cec578082015181840152602081019050610cd1565b50505050905090810190601f168015610d195780820380516001836020036101000a031916815260200191505b509250505060405180910390f35b3415610d3257600080fd5b610d7260048080356000191690602001909190803560ff16906020019091908035600019169060200190919080356000191690602001909190505061310b565b604051808215151515815260200191505060405180910390f35b3415610d9757600080fd5b610dc3600480803573ffffffffffffffffffffffffffffffffffffffff169060200190919050506132a7565b6040518082815260200191505060405180910390f35b3415610de457600080fd5b610f5f600480803573ffffffffffffffffffffffffffffffffffffffff1690602001909190803590602001908201803590602001908080601f0160208091040260200160405190810160405280939291908181526020018383808284378201915050505050509190803590602001908201803590602001908080601f0160208091040260200160405190810160405280939291908181526020018383808284378201915050505050509190803590602001908201803590602001908080601f0160208091040260200160405190810160405280939291908181526020018383808284378201915050505050509190803590602001908201803590602001908080601f0160208091040260200160405190810160405280939291908181526020018383808284378201915050505050509190803590602001908201803590602001908080601f016020809104026020016040519081016040528093929190818152602001838380828437820191505050505050919050506132f6565b604051808415151515815260200183815260200182151515158152602001935050505060405180910390f35b3415610f9657600080fd5b610fcb600480803573ffffffffffffffffffffffffffffffffffffffff169060200190919080359060200190919050506135d1565b604051808215151515815260200191505060405180910390f35b3415610ff057600080fd5b611025600480803573ffffffffffffffffffffffffffffffffffffffff1690602001909190803590602001909190505061382c565b60405180806020018581526020018481526020018360001916600019168152602001828103825286818151815260200191508051906020019080838360005b8381101561107f578082015181840152602081019050611064565b50505050905090810190601f1680156110ac5780820380516001836020036101000a031916815260200191505b509550505050505060405180910390f35b600080600080856110cd816111cf565b15156110d857600080fd5b600091505b600360008873ffffffffffffffffffffffffffffffffffffffff1673ffffffffffffffffffffffffffffffffffffffff168152602001908152602001600020600101805490508210156111b75785600360008973ffffffffffffffffffffffffffffffffffffffff1673ffffffffffffffffffffffffffffffffffffffff1681526020019081526020016000206001018381548110151561117a57fe5b90600052602060002090600902016006015414156111aa5760018261119f89856135d1565b9450945094506111c6565b81806001019250506110dd565b60008060008191509450945094505b50509250925092565b600080600360008473ffffffffffffffffffffffffffffffffffffffff1673ffffffffffffffffffffffffffffffffffffffff16815260200190815260200160002060000154119050919050565b600160009054906101000a900473ffffffffffffffffffffffffffffffffffffffff1681565b60008061124e613c3c565b60008e5111151561125e57600080fd5b60008d5111151561126e57600080fd5b60008c5111151561127e57600080fd5b60008b5111151561128e57600080fd5b60008a5111151561129e57600080fd5b600089511115156112ae57600080fd5b8734101515156112bd57600080fd5b338e8e8e8e8e8e8e8e604051808a73ffffffffffffffffffffffffffffffffffffffff1673ffffffffffffffffffffffffffffffffffffffff166c0100000000000000000000000002815260140189805190602001908083835b60208310151561133c5780518252602082019150602081019050602083039250611317565b6001836020036101000a03801982511681845116808217855250505050505090500188805190602001908083835b60208310151561138f578051825260208201915060208101905060208303925061136a565b6001836020036101000a03801982511681845116808217855250505050505090500187805190602001908083835b6020831015156113e257805182526020820191506020810190506020830392506113bd565b6001836020036101000a03801982511681845116808217855250505050505090500186805190602001908083835b6020831015156114355780518252602082019150602081019050602083039250611410565b6001836020036101000a03801982511681845116808217855250505050505090500185805190602001908083835b6020831015156114885780518252602082019150602081019050602083039250611463565b6001836020036101000a03801982511681845116808217855250505050505090500184805190602001908083835b6020831015156114db57805182526020820191506020810190506020830392506114b6565b6001836020036101000a03801982511681845116808217855250505050505090500183815260200182600019166000191681526020019950505050505050505050604051809103902092506115328387878761310b565b151561153d57600080fd5b611546336111cf565b1561157257611559338e8e8e8e8e6132f6565b905050809250508115151561156d57600080fd5b6115fd565b43600360003373ffffffffffffffffffffffffffffffffffffffff1673ffffffffffffffffffffffffffffffffffffffff168152602001908152602001600020600001819055506001600460008282829054906101000a900467ffffffffffffffff160192506101000a81548167ffffffffffffffff021916908367ffffffffffffffff1602179055505b8d81600001819052508c81602001819052508b81604001819052508a8160600181905250898160800181905250888160a00181905250438160c00181815250508681610100019060001916908160001916815250508c8c8c8c8c6040518086805190602001908083835b60208310151561168c5780518252602082019150602081019050602083039250611667565b6001836020036101000a03801982511681845116808217855250505050505090500185805190602001908083835b6020831015156116df57805182526020820191506020810190506020830392506116ba565b6001836020036101000a03801982511681845116808217855250505050505090500184805190602001908083835b602083101515611732578051825260208201915060208101905060208303925061170d565b6001836020036101000a03801982511681845116808217855250505050505090500183805190602001908083835b6020831015156117855780518252602082019150602081019050602083039250611760565b6001836020036101000a03801982511681845116808217855250505050505090500182805190602001908083835b6020831015156117d857805182526020820191506020810190506020830392506117b3565b6001836020036101000a0380198251168184511680821785525050505050509050019550505050505060405180910390208160e001906000191690816000191681525050600360003373ffffffffffffffffffffffffffffffffffffffff1673ffffffffffffffffffffffffffffffffffffffff16815260200190815260200160002060010180548060010182816118709190613cb3565b9160005260206000209060090201600083909190915060008201518160000190805190602001906118a2929190613ce5565b5060208201518160010190805190602001906118bf929190613ce5565b5060408201518160020190805190602001906118dc929190613ce5565b5060608201518160030190805190602001906118f9929190613ce5565b506080820151816004019080519060200190611916929190613ce5565b5060a0820151816005019080519060200190611933929190613ce5565b5060c0820151816006015560e0820151816007019060001916905561010082015181600801906000191690555050506001600460088282829054906101000a900467ffffffffffffffff160192506101000a81548167ffffffffffffffff021916908367ffffffffffffffff1602179055505050505050505050505050505050565b600460109054906101000a900467ffffffffffffffff1681565b6000809054906101000a900473ffffffffffffffffffffffffffffffffffffffff1673ffffffffffffffffffffffffffffffffffffffff163373ffffffffffffffffffffffffffffffffffffffff16141515611a2a57600080fd5b80600160006101000a81548173ffffffffffffffffffffffffffffffffffffffff021916908373ffffffffffffffffffffffffffffffffffffffff16021790555050565b600260009054906101000a900473ffffffffffffffffffffffffffffffffffffffff1681565b6000809054906101000a900473ffffffffffffffffffffffffffffffffffffffff1673ffffffffffffffffffffffffffffffffffffffff163373ffffffffffffffffffffffffffffffffffffffff16141515611aef57600080fd5b60003073ffffffffffffffffffffffffffffffffffffffff1631111515611b1557600080fd5b6000809054906101000a900473ffffffffffffffffffffffffffffffffffffffff1673ffffffffffffffffffffffffffffffffffffffff166108fc3073ffffffffffffffffffffffffffffffffffffffff16319081150290604051600060405180830381858888f193505050501515611b8d57600080fd5b565b6000809054906101000a900473ffffffffffffffffffffffffffffffffffffffff1681565b600080600080600033611bc6816111cf565b1515611bd157600080fd5b60008a51111515611be157600080fd5b338a604051808373ffffffffffffffffffffffffffffffffffffffff1673ffffffffffffffffffffffffffffffffffffffff166c0100000000000000000000000002815260140182805190602001908083835b602083101515611c595780518252602082019150602081019050602083039250611c34565b6001836020036101000a0380198251168184511680821785525050505050509050019250505060405180910390209550611c95868a8a8a61310b565b1515611ca057600080fd5b611d0c338b6040518082805190602001908083835b602083101515611cda5780518252602082019150602081019050602083039250611cb5565b6001836020036101000a03801982511681845116808217855250505050505090500191505060405180910390206127a4565b80955081965082975083985050505050841515611d2857600080fd5b82151515611d3557600080fd5b600260009054906101000a900473ffffffffffffffffffffffffffffffffffffffff1673ffffffffffffffffffffffffffffffffffffffff16639918925d338473__PhysicalAddressClaim__________________63deb21fa2436000604051602001526040518263ffffffff167c01000000000000000000000000000000000000000000000000000000000281526004018082815260200191505060206040518083038186803b1515611de857600080fd5b6102c65a03f41515611df957600080fd5b505050604051805190506040518463ffffffff167c0100000000000000000000000000000000000000000000000000000000028152600401808473ffffffffffffffffffffffffffffffffffffffff1673ffffffffffffffffffffffffffffffffffffffff168152602001836000191660001916815260200182600019166000191681526020019350505050600060405180830381600087803b1515611e9e57600080fd5b6102c65a03f11515611eaf57600080fd5b5050506001600460108282829054906101000a900467ffffffffffffffff160192506101000a81548167ffffffffffffffff021916908367ffffffffffffffff16021790555050505050505050505050565b60036020528060005260406000206000915090508060000154905081565b6000809054906101000a900473ffffffffffffffffffffffffffffffffffffffff1673ffffffffffffffffffffffffffffffffffffffff163373ffffffffffffffffffffffffffffffffffffffff16141515611f7a57600080fd5b80600260006101000a81548173ffffffffffffffffffffffffffffffffffffffff021916908373ffffffffffffffffffffffffffffffffffffffff16021790555050565b6000809054906101000a900473ffffffffffffffffffffffffffffffffffffffff1673ffffffffffffffffffffffffffffffffffffffff163373ffffffffffffffffffffffffffffffffffffffff1614151561201957600080fd5b803073ffffffffffffffffffffffffffffffffffffffff16311015151561203f57600080fd5b6000809054906101000a900473ffffffffffffffffffffffffffffffffffffffff1673ffffffffffffffffffffffffffffffffffffffff166108fc829081150290604051600060405180830381858888f1935050505015156120a057600080fd5b50565b6120ab613d65565b6120b3613d65565b6120bb613d65565b6120c3613d65565b6120cb613d65565b866120d5816111cf565b15156120e057600080fd5b600360008973ffffffffffffffffffffffffffffffffffffffff1673ffffffffffffffffffffffffffffffffffffffff1681526020019081526020016000206001018781548110151561212f57fe5b9060005260206000209060090201600101600360008a73ffffffffffffffffffffffffffffffffffffffff1673ffffffffffffffffffffffffffffffffffffffff1681526020019081526020016000206001018881548110151561218f57fe5b9060005260206000209060090201600201600360008b73ffffffffffffffffffffffffffffffffffffffff1673ffffffffffffffffffffffffffffffffffffffff168152602001908152602001600020600101898154811015156121ef57fe5b9060005260206000209060090201600301600360008c73ffffffffffffffffffffffffffffffffffffffff1673ffffffffffffffffffffffffffffffffffffffff1681526020019081526020016000206001018a81548110151561224f57fe5b9060005260206000209060090201600401600360008d73ffffffffffffffffffffffffffffffffffffffff1673ffffffffffffffffffffffffffffffffffffffff1681526020019081526020016000206001018b8154811015156122af57fe5b9060005260206000209060090201600501848054600181600116156101000203166002900480601f0160208091040260200160405190810160405280929190818152602001828054600181600116156101000203166002900480156123555780601f1061232a57610100808354040283529160200191612355565b820191906000526020600020905b81548152906001019060200180831161233857829003601f168201915b50505050509450838054600181600116156101000203166002900480601f0160208091040260200160405190810160405280929190818152602001828054600181600116156101000203166002900480156123f15780601f106123c6576101008083540402835291602001916123f1565b820191906000526020600020905b8154815290600101906020018083116123d457829003601f168201915b50505050509350828054600181600116156101000203166002900480601f01602080910402602001604051908101604052809291908181526020018280546001816001161561010002031660029004801561248d5780601f106124625761010080835404028352916020019161248d565b820191906000526020600020905b81548152906001019060200180831161247057829003601f168201915b50505050509250818054600181600116156101000203166002900480601f0160208091040260200160405190810160405280929190818152602001828054600181600116156101000203166002900480156125295780601f106124fe57610100808354040283529160200191612529565b820191906000526020600020905b81548152906001019060200180831161250c57829003601f168201915b50505050509150808054600181600116156101000203166002900480601f0160208091040260200160405190810160405280929190818152602001828054600181600116156101000203166002900480156125c55780601f1061259a576101008083540402835291602001916125c5565b820191906000526020600020905b8154815290600101906020018083116125a857829003601f168201915b5050505050905095509550955095509550509295509295909350565b6125e9613d65565b6000826125f5816111cf565b151561260057600080fd5b600360008573ffffffffffffffffffffffffffffffffffffffff1673ffffffffffffffffffffffffffffffffffffffff1681526020019081526020016000206001018054905091505b600082111561276f5781806001900392505061266584836135d1565b1561276a57600360008573ffffffffffffffffffffffffffffffffffffffff1673ffffffffffffffffffffffffffffffffffffffff168152602001908152602001600020600101828154811015156126b957fe5b90600052602060002090600902016000018054600181600116156101000203166002900480601f01602080910402602001604051908101604052809291908181526020018280546001816001161561010002031660029004801561275e5780601f106127335761010080835404028352916020019161275e565b820191906000526020600020905b81548152906001019060200180831161274157829003601f168201915b50505050509250612783565b612649565b602060405190810160405280600081525092505b5050919050565b600460009054906101000a900467ffffffffffffffff1681565b6000806000806000866127b6816111cf565b15156127c157600080fd5b600091505b600360008973ffffffffffffffffffffffffffffffffffffffff1673ffffffffffffffffffffffffffffffffffffffff1681526020019081526020016000206001018054905082101561290b578660001916600360008a73ffffffffffffffffffffffffffffffffffffffff1673ffffffffffffffffffffffffffffffffffffffff1681526020019081526020016000206001018381548110151561286757fe5b9060005260206000209060090201600801546000191614156128fe576001826128908a856135d1565b600360008c73ffffffffffffffffffffffffffffffffffffffff1673ffffffffffffffffffffffffffffffffffffffff168152602001908152602001600020600101858154811015156128df57fe5b9060005260206000209060090201600701549550955095509550612923565b81806001019250506127c6565b60008060008082925080600102905095509550955095505b505092959194509250565b6000806000803361293e816111cf565b151561294957600080fd5b612957338b8b8b8b8b6132f6565b50809550819650505084151561296c57600080fd5b600260009054906101000a900473ffffffffffffffffffffffffffffffffffffffff1673ffffffffffffffffffffffffffffffffffffffff1663c7508ec73033600360003373ffffffffffffffffffffffffffffffffffffffff1673ffffffffffffffffffffffffffffffffffffffff168152602001908152602001600020600101888154811015156129fb57fe5b9060005260206000209060090201600701546040518463ffffffff167c0100000000000000000000000000000000000000000000000000000000028152600401808473ffffffffffffffffffffffffffffffffffffffff1673ffffffffffffffffffffffffffffffffffffffff1681526020018373ffffffffffffffffffffffffffffffffffffffff1673ffffffffffffffffffffffffffffffffffffffff16815260200182600019166000191681526020019350505050600060405180830381600087803b1515612acc57600080fd5b6102c65a03f11515612add57600080fd5b505050600360003373ffffffffffffffffffffffffffffffffffffffff1673ffffffffffffffffffffffffffffffffffffffff1681526020019081526020016000206001018054905092508391505b60018303821015612d1e57600360003373ffffffffffffffffffffffffffffffffffffffff1673ffffffffffffffffffffffffffffffffffffffff16815260200190815260200160002060010160018301815481101515612b8957fe5b9060005260206000209060090201600360003373ffffffffffffffffffffffffffffffffffffffff1673ffffffffffffffffffffffffffffffffffffffff16815260200190815260200160002060010183815481101515612be657fe5b906000526020600020906009020160008201816000019080546001816001161561010002031660029004612c1b929190613d79565b5060018201816001019080546001816001161561010002031660029004612c43929190613d79565b5060028201816002019080546001816001161561010002031660029004612c6b929190613d79565b5060038201816003019080546001816001161561010002031660029004612c93929190613d79565b5060048201816004019080546001816001161561010002031660029004612cbb929190613d79565b5060058201816005019080546001816001161561010002031660029004612ce3929190613d79565b506006820154816006015560078201548160070190600019169055600882015481600801906000191690559050508180600101925050612b2c565b600360003373ffffffffffffffffffffffffffffffffffffffff1673ffffffffffffffffffffffffffffffffffffffff16815260200190815260200160002060010160018403815481101515612d7057fe5b906000526020600020906009020160008082016000612d8f9190613e00565b600182016000612d9f9190613e00565b600282016000612daf9190613e00565b600382016000612dbf9190613e00565b600482016000612dcf9190613e00565b600582016000612ddf9190613e00565b6006820160009055600782016000905560088201600090555050600360003373ffffffffffffffffffffffffffffffffffffffff1673ffffffffffffffffffffffffffffffffffffffff168152602001908152602001600020600101805480919060019003612e4e9190613e48565b506000600360003373ffffffffffffffffffffffffffffffffffffffff1673ffffffffffffffffffffffffffffffffffffffff168152602001908152602001600020600101805490501415612ef857600360003373ffffffffffffffffffffffffffffffffffffffff1673ffffffffffffffffffffffffffffffffffffffff168152602001908152602001600020600080820160009055600182016000612ef59190613e7a565b50505b50505050505050505050565b6000806000809150600090505b600360008573ffffffffffffffffffffffffffffffffffffffff1673ffffffffffffffffffffffffffffffffffffffff16815260200190815260200160002060010180549050811015612f8157612f6884826135d1565b15612f74576001820191505b8080600101915050612f11565b8192505050919050565b600460089054906101000a900467ffffffffffffffff1681565b612fad613d65565b81612fb7816111cf565b1515612fc257600080fd5b600360008473ffffffffffffffffffffffffffffffffffffffff1673ffffffffffffffffffffffffffffffffffffffff1681526020019081526020016000206001016001600360008673ffffffffffffffffffffffffffffffffffffffff1673ffffffffffffffffffffffffffffffffffffffff168152602001908152602001600020600101805490500381548110151561305957fe5b90600052602060002090600902016000018054600181600116156101000203166002900480601f0160208091040260200160405190810160405280929190818152602001828054600181600116156101000203166002900480156130fe5780601f106130d3576101008083540402835291602001916130fe565b820191906000526020600020905b8154815290600101906020018083116130e157829003601f168201915b5050505050915050919050565b6000613115613e9e565b60006040805190810160405280601c81526020017f19457468657265756d205369676e6564204d6573736167653a0a333200000000815250915081876040518083805190602001908083835b6020831015156131865780518252602082019150602081019050602083039250613161565b6001836020036101000a03801982511681845116808217855250505050505090500182600019166000191681526020019250505060405180910390209050600160009054906101000a900473ffffffffffffffffffffffffffffffffffffffff1673ffffffffffffffffffffffffffffffffffffffff16600182888888604051600081526020016040526000604051602001526040518085600019166000191681526020018460ff1660ff16815260200183600019166000191681526020018260001916600019168152602001945050505050602060405160208103908084039060008661646e5a03f1151561327b57600080fd5b50506020604051035173ffffffffffffffffffffffffffffffffffffffff161492505050949350505050565b6000600360008373ffffffffffffffffffffffffffffffffffffffff1673ffffffffffffffffffffffffffffffffffffffff168152602001908152602001600020600101805490509050919050565b60008060008060008a613308816111cf565b151561331357600080fd5b8a8a8a8a8a6040518086805190602001908083835b60208310151561334d5780518252602082019150602081019050602083039250613328565b6001836020036101000a03801982511681845116808217855250505050505090500185805190602001908083835b6020831015156133a0578051825260208201915060208101905060208303925061337b565b6001836020036101000a03801982511681845116808217855250505050505090500184805190602001908083835b6020831015156133f357805182526020820191506020810190506020830392506133ce565b6001836020036101000a03801982511681845116808217855250505050505090500183805190602001908083835b6020831015156134465780518252602082019150602081019050602083039250613421565b6001836020036101000a03801982511681845116808217855250505050505090500182805190602001908083835b6020831015156134995780518252602082019150602081019050602083039250613474565b6001836020036101000a0380198251168184511680821785525050505050509050019550505050505060405180910390209250600091505b600360008d73ffffffffffffffffffffffffffffffffffffffff1673ffffffffffffffffffffffffffffffffffffffff168152602001908152602001600020600101805490508210156135b3578260001916600360008e73ffffffffffffffffffffffffffffffffffffffff1673ffffffffffffffffffffffffffffffffffffffff1681526020019081526020016000206001018381548110151561357257fe5b9060005260206000209060090201600701546000191614156135a65760018261359b8e856135d1565b9550955095506135c2565b81806001019250506134d1565b60008060008191509550955095505b50505096509650969350505050565b600080836135de816111cf565b15156135e957600080fd5b600360008673ffffffffffffffffffffffffffffffffffffffff1673ffffffffffffffffffffffffffffffffffffffff1681526020019081526020016000206001018481548110151561363857fe5b90600052602060002090600902016007015491506000600102826000191614156136655760009250613824565b600073__PhysicalAddressClaim__________________637194df0d600260009054906101000a900473ffffffffffffffffffffffffffffffffffffffff1673ffffffffffffffffffffffffffffffffffffffff1663e1661eff308a886000604051602001526040518463ffffffff167c0100000000000000000000000000000000000000000000000000000000028152600401808473ffffffffffffffffffffffffffffffffffffffff1673ffffffffffffffffffffffffffffffffffffffff1681526020018373ffffffffffffffffffffffffffffffffffffffff1673ffffffffffffffffffffffffffffffffffffffff16815260200182600019166000191681526020019350505050602060405180830381600087803b151561378a57600080fd5b6102c65a03f1151561379b57600080fd5b505050604051805190506000604051602001526040518263ffffffff167c010000000000000000000000000000000000000000000000000000000002815260040180826000191660001916815260200191505060206040518083038186803b151561380557600080fd5b6102c65a03f4151561381657600080fd5b505050604051805190501192505b505092915050565b613834613d65565b60008060008086613844816111cf565b151561384f57600080fd5b73__PhysicalAddressClaim__________________637194df0d600260009054906101000a900473ffffffffffffffffffffffffffffffffffffffff1673ffffffffffffffffffffffffffffffffffffffff1663e1661eff308c600360008f73ffffffffffffffffffffffffffffffffffffffff1673ffffffffffffffffffffffffffffffffffffffff1681526020019081526020016000206001018d8154811015156138f857fe5b9060005260206000209060090201600701546000604051602001526040518463ffffffff167c0100000000000000000000000000000000000000000000000000000000028152600401808473ffffffffffffffffffffffffffffffffffffffff1673ffffffffffffffffffffffffffffffffffffffff1681526020018373ffffffffffffffffffffffffffffffffffffffff1673ffffffffffffffffffffffffffffffffffffffff16815260200182600019166000191681526020019350505050602060405180830381600087803b15156139d257600080fd5b6102c65a03f115156139e357600080fd5b505050604051805190506000604051602001526040518263ffffffff167c010000000000000000000000000000000000000000000000000000000002815260040180826000191660001916815260200191505060206040518083038186803b1515613a4d57600080fd5b6102c65a03f41515613a5e57600080fd5b505050604051805190509150600360008973ffffffffffffffffffffffffffffffffffffffff1673ffffffffffffffffffffffffffffffffffffffff16815260200190815260200160002060010187815481101515613ab957fe5b9060005260206000209060090201600001600360008a73ffffffffffffffffffffffffffffffffffffffff1673ffffffffffffffffffffffffffffffffffffffff16815260200190815260200160002060010188815481101515613b1957fe5b90600052602060002090600902016006015483600360008c73ffffffffffffffffffffffffffffffffffffffff1673ffffffffffffffffffffffffffffffffffffffff1681526020019081526020016000206001018a815481101515613b7b57fe5b906000526020600020906009020160070154838054600181600116156101000203166002900480601f016020809104026020016040519081016040528092919081815260200182805460018160011615610100020316600290048015613c225780601f10613bf757610100808354040283529160200191613c22565b820191906000526020600020905b815481529060010190602001808311613c0557829003601f168201915b505050505093509550955095509550505092959194509250565b61012060405190810160405280613c51613eb2565b8152602001613c5e613eb2565b8152602001613c6b613eb2565b8152602001613c78613eb2565b8152602001613c85613eb2565b8152602001613c92613eb2565b81526020016000815260200160008019168152602001600080191681525090565b815481835581811511613ce057600902816009028360005260206000209182019101613cdf9190613ec6565b5b505050565b828054600181600116156101000203166002900490600052602060002090601f016020900481019282601f10613d2657805160ff1916838001178555613d54565b82800160010185558215613d54579182015b82811115613d53578251825591602001919060010190613d38565b5b509050613d619190613f5d565b5090565b602060405190810160405280600081525090565b828054600181600116156101000203166002900490600052602060002090601f016020900481019282601f10613db25780548555613def565b82800160010185558215613def57600052602060002091601f016020900482015b82811115613dee578254825591600101919060010190613dd3565b5b509050613dfc9190613f5d565b5090565b50805460018160011615610100020316600290046000825580601f10613e265750613e45565b601f016020900490600052602060002090810190613e449190613f5d565b5b50565b815481835581811511613e7557600902816009028360005260206000209182019101613e749190613ec6565b5b505050565b5080546000825560090290600052602060002090810190613e9b9190613ec6565b50565b602060405190810160405280600081525090565b602060405190810160405280600081525090565b613f5a91905b80821115613f565760008082016000613ee59190613e00565b600182016000613ef59190613e00565b600282016000613f059190613e00565b600382016000613f159190613e00565b600482016000613f259190613e00565b600582016000613f359190613e00565b60068201600090556007820160009055600882016000905550600901613ecc565b5090565b90565b613f7f91905b80821115613f7b576000816000905550600101613f63565b5090565b905600a165627a7a72305820fac0df76ebf6d4119e004e0bb55b63d7cb09c09270cadca76180194b74e2577b0029",
  "source": "pragma solidity 0.4.19;\n\nimport \"./EthereumClaimsRegistryInterface.sol\";\nimport \"./PhysicalAddressClaim.sol\";\n\n\n// Checks -> Effects -> Interactions\ncontract ProofOfPhysicalAddress {\n    address public owner;\n    address public signer;\n    EthereumClaimsRegistryInterface public registry;\n\n    // Main structures:\n    struct PhysicalAddress {\n        string name;\n\n        string country;\n        string state;\n        string city;\n        string location;\n        string zip;\n\n        uint256 creationBlock;\n        bytes32 keccakIdentifier;\n        bytes32 confirmationCodeSha3;\n    }\n\n    function ProofOfPhysicalAddress(address _registry) public\n    {\n        owner = msg.sender;\n        signer = owner;\n        registry = EthereumClaimsRegistryInterface(_registry);\n    }\n\n    struct User {\n        uint256 creationBlock;\n        PhysicalAddress[] physicalAddresses;\n    }\n\n    mapping (address => User) public users;\n\n    // Stats:\n\n    uint64 public totalUsers;\n    uint64 public totalAddresses;\n    uint64 public totalConfirmed;\n\n    // Modifiers:\n    modifier onlyOwner() {\n        require(msg.sender == owner);\n        _;\n    }\n\n    modifier checkUserExists(address wallet) {\n        require(userExists(wallet));\n        _;\n    }\n\n    // Helpers:\n    function signerIsValid(bytes32 data, uint8 v, bytes32 r, bytes32 s)\n    public constant returns (bool)\n    {\n        bytes memory prefix = \"\\x19Ethereum Signed Message:\\n32\";\n        bytes32 prefixed = keccak256(prefix, data);\n        return (ecrecover(prefixed, v, r, s) == signer);\n    }\n\n    // Methods:\n    // set address that is used on server-side to calculate signatures\n    // and on contract-side to verify them\n    function setSigner(address newSigner) public onlyOwner {\n        signer = newSigner;\n    }\n\n    function setRegistry(address newRegistry) public onlyOwner {\n        registry = EthereumClaimsRegistryInterface(newRegistry);\n    }\n\n    // withdraw specified amount of eth in wei\n    function withdrawSome(uint256 amountWei)\n    public onlyOwner\n    {\n        require(address(this).balance >= amountWei);\n        owner.transfer(amountWei);\n    }\n\n    // withdraw all available eth\n    function withdrawAll()\n    public onlyOwner\n    {\n        require(address(this).balance > 0);\n        owner.transfer(address(this).balance);\n    }\n\n    function userExists(address wallet)\n    public constant returns (bool)\n    {\n        return (users[wallet].creationBlock > 0);\n    }\n\n    function userAddressConfirmed(address wallet, uint256 addressIndex)\n    public constant checkUserExists(wallet) returns (bool)\n    {\n        bytes32 keccakIdentifier = users[wallet].physicalAddresses[addressIndex].keccakIdentifier;\n\n        if (keccakIdentifier == 0x0) {\n            return false;\n        }\n\n        return PhysicalAddressClaim.decodeConfirmation(registry.getClaim(address(this), wallet, keccakIdentifier)) > 0;\n    }\n\n    // returns (found/not found, index if found/0 if not found, confirmed/not confirmed)\n    function userAddressByCreationBlock(address wallet, uint256 creationBlock)\n    public constant checkUserExists(wallet) returns (bool, uint256, bool)\n    {\n        for (uint256 ai = 0; ai < users[wallet].physicalAddresses.length; ai++) {\n            if (users[wallet].physicalAddresses[ai].creationBlock == creationBlock) {\n                return (true, ai, userAddressConfirmed(wallet, ai));\n            }\n        }\n        return (false, 0, false);\n    }\n\n    // returns (found/not found, index if found/0 if not found, confirmed/not confirmed)\n    function userAddressByConfirmationCode(\n        address wallet,\n        bytes32 confirmationCodeSha3\n    )\n        public\n        constant\n        checkUserExists(wallet)\n        returns(bool, uint256, bool, bytes32)\n    {\n        for (uint256 ai = 0; ai < users[wallet].physicalAddresses.length; ai++) {\n            if (users[wallet].physicalAddresses[ai].confirmationCodeSha3 == confirmationCodeSha3) {\n                return (\n                    true,\n                    ai,\n                    userAddressConfirmed(wallet, ai),\n                    users[wallet].physicalAddresses[ai].keccakIdentifier\n                );\n            }\n        }\n        return (false, 0, false, 0x0);\n    }\n\n    // returns (found/not found, index if found/0 if not found, confirmed/not confirmed)\n    function userAddressByAddress(address wallet, string country, string state, string city, string location, string zip)\n    public constant checkUserExists(wallet) returns(bool, uint256, bool)\n    {\n        bytes32 keccakIdentifier = keccak256(country, state, city, location, zip);\n        for (uint256 ai = 0; ai < users[wallet].physicalAddresses.length; ai++) {\n            if (users[wallet].physicalAddresses[ai].keccakIdentifier == keccakIdentifier) {\n                return (true, ai, userAddressConfirmed(wallet, ai));\n            }\n        }\n        return (false, 0, false);\n    }\n\n    // returns last name submitted to PoPA contract\n    function userLastSubmittedName(address wallet)\n    public constant checkUserExists(wallet) returns (string)\n    {\n        return users[wallet].physicalAddresses[users[wallet].physicalAddresses.length-1].name;\n    }\n\n    // returns name from the last confirmed address. If no addresses were confirmed returns ''\n    function userLastConfirmedName(address wallet)\n    public constant checkUserExists(wallet) returns (string)\n    {\n        for (uint256 ai = users[wallet].physicalAddresses.length; ai > 0;) {\n            ai--;\n            if (userAddressConfirmed(wallet, ai)) {\n                return users[wallet].physicalAddresses[ai].name;\n            }\n        }\n        return \"\";\n    }\n\n    // returns how many addresses there are in PoPA contract. If user does not exist, returns 0\n    function userSubmittedAddressesCount(address wallet)\n    public constant returns (uint256)\n    {\n        return users[wallet].physicalAddresses.length;\n    }\n\n    // returns how many addresses from PoPA contract are confirmed. If user does not exist, returns 0\n    function userConfirmedAddressesCount(address wallet)\n    public constant returns (uint256)\n    {\n        uint256 c = 0;\n        for (uint256 ai = 0; ai < users[wallet].physicalAddresses.length; ai++) {\n            if (userAddressConfirmed(wallet, ai)) {\n                c += 1;\n            }\n        }\n        return c;\n    }\n\n    function userAddress(address wallet, uint256 addressIndex)\n    public constant checkUserExists(wallet) returns (\n        string country, string state, string city, string location, string zip)\n    {\n        return (\n            users[wallet].physicalAddresses[addressIndex].country,\n            users[wallet].physicalAddresses[addressIndex].state,\n            users[wallet].physicalAddresses[addressIndex].city,\n            users[wallet].physicalAddresses[addressIndex].location,\n            users[wallet].physicalAddresses[addressIndex].zip\n        );\n    }\n\n    function userAddressInfo(address wallet, uint256 addressIndex)\n    public constant checkUserExists(wallet) returns (\n        string name,\n        uint256 creationBlock,\n        uint256 confirmationBlock,\n        bytes32 keccakIdentifier\n    ) {\n        uint256 _confirmationBlock = PhysicalAddressClaim.decodeConfirmation(registry.getClaim(\n            address(this),\n            wallet,\n            users[wallet].physicalAddresses[addressIndex].keccakIdentifier)\n        );\n        return (\n            users[wallet].physicalAddresses[addressIndex].name,\n            users[wallet].physicalAddresses[addressIndex].creationBlock,\n            _confirmationBlock,\n            users[wallet].physicalAddresses[addressIndex].keccakIdentifier\n        );\n    }\n\n    // Main methods:\n    function registerAddress(\n        string name,\n        string country, string state, string city, string location, string zip,\n        uint256 priceWei,\n        bytes32 confirmationCodeSha3, uint8 sigV, bytes32 sigR, bytes32 sigS)\n    public payable\n    {\n        require(bytes(name).length > 0);\n        require(bytes(country).length > 0);\n        require(bytes(state).length > 0);\n        require(bytes(city).length > 0);\n        require(bytes(location).length > 0);\n        require(bytes(zip).length > 0);\n        require(msg.value >= priceWei);\n\n        bytes32 data = keccak256(\n            msg.sender,\n            name,\n            country,\n            state,\n            city,\n            location,\n            zip,\n            priceWei,\n            confirmationCodeSha3\n        );\n        require(signerIsValid(data, sigV, sigR, sigS));\n\n        if (userExists(msg.sender)) {\n            // check if this address is already registered\n            bool found;\n            (found, , ) = userAddressByAddress(msg.sender, country, state, city, location, zip);\n\n            require(!found);\n        } else {\n            // new user\n            users[msg.sender].creationBlock = block.number;\n\n            totalUsers += 1;\n        }\n\n        PhysicalAddress memory pa;\n\n        pa.name = name;\n        pa.country = country;\n        pa.state = state;\n        pa.city = city;\n        pa.location = location;\n        pa.zip = zip;\n        pa.creationBlock = block.number;\n        pa.confirmationCodeSha3 = confirmationCodeSha3;\n        pa.keccakIdentifier = keccak256(country, state, city, location, zip);\n        users[msg.sender].physicalAddresses.push(pa);\n\n        totalAddresses += 1;\n    }\n\n    function unregisterAddress(string country, string state, string city, string location, string zip)\n        public checkUserExists(msg.sender)\n    {\n        bool found;\n        uint256 index;\n        (found, index, ) = userAddressByAddress(msg.sender, country, state, city, location, zip);\n        require(found);\n\n        registry.removeClaim(\n            address(this),\n            msg.sender,\n            users[msg.sender].physicalAddresses[index].keccakIdentifier\n        );\n\n        // Remove physical address from list\n        uint256 length = users[msg.sender].physicalAddresses.length;\n\n        for (uint256 i = index; i < length - 1; i++) {\n            users[msg.sender].physicalAddresses[i] = users[msg.sender].physicalAddresses[i+1];\n        }\n\n        delete users[msg.sender].physicalAddresses[length - 1];\n        users[msg.sender].physicalAddresses.length--;\n\n        if (users[msg.sender].physicalAddresses.length == 0) {\n            delete users[msg.sender];\n        }\n    }\n\n    function confirmAddress(string confirmationCodePlain, uint8 sigV, bytes32 sigR, bytes32 sigS)\n    public checkUserExists(msg.sender)\n    {\n        require(bytes(confirmationCodePlain).length > 0);\n\n        bytes32 data = keccak256(\n            msg.sender,\n            confirmationCodePlain\n        );\n        require(signerIsValid(data, sigV, sigR, sigS));\n\n        bool found;\n        uint ai;\n        bool confirmed;\n        bytes32 keccakIdentifier;\n        (found, ai, confirmed, keccakIdentifier) = userAddressByConfirmationCode(\n            msg.sender,\n            keccak256(confirmationCodePlain)\n        );\n        require(found);\n        require(!confirmed);\n\n        registry.setClaim(msg.sender, keccakIdentifier, PhysicalAddressClaim.encode(block.number));\n        totalConfirmed += 1;\n    }\n}\n",
  "sourcePath": "/home/fvictorio/repos/poa-popa/blockchain/contracts/ProofOfPhysicalAddress.sol",
  "compiler": {
    "name": "solc",
    "version": "0.4.19+commit.c4cbbb05.Emscripten.clang"
  },
  "schemaVersion": "1.0.1",
  "updatedAt": "2018-05-14T14:15:17.728Z"
}